{
  "_format": "hh-sol-artifact-1",
  "contractName": "Mixer",
  "sourceName": "contracts/Mixer.sol",
  "abi": [
    {
      "anonymous": false,
      "inputs": [
        {
          "indexed": false,
          "internalType": "uint8",
          "name": "version",
          "type": "uint8"
        }
      ],
      "name": "Initialized",
      "type": "event"
    },
    {
      "anonymous": false,
      "inputs": [
        {
          "indexed": false,
          "internalType": "address",
          "name": "",
          "type": "address"
        }
      ],
      "name": "NewInnerContractCreated",
      "type": "event"
    },
    {
      "anonymous": false,
      "inputs": [
        {
          "indexed": true,
          "internalType": "address",
          "name": "previousOwner",
          "type": "address"
        },
        {
          "indexed": true,
          "internalType": "address",
          "name": "newOwner",
          "type": "address"
        }
      ],
      "name": "OwnershipTransferred",
      "type": "event"
    },
    {
      "inputs": [
        {
          "internalType": "address",
          "name": "",
          "type": "address"
        }
      ],
      "name": "addressDeposits",
      "outputs": [
        {
          "internalType": "uint8",
          "name": "",
          "type": "uint8"
        }
      ],
      "stateMutability": "view",
      "type": "function"
    },
    {
      "inputs": [],
      "name": "currentContract",
      "outputs": [
        {
          "internalType": "address payable",
          "name": "",
          "type": "address"
        }
      ],
      "stateMutability": "view",
      "type": "function"
    },
    {
      "inputs": [
        {
          "internalType": "address",
          "name": "_erc20Addr",
          "type": "address"
        },
        {
          "internalType": "uint256",
          "name": "_numberOfTokens",
          "type": "uint256"
        },
        {
          "internalType": "address",
          "name": "_to",
          "type": "address"
        },
        {
          "internalType": "bool",
          "name": "_withdraw",
          "type": "bool"
        }
      ],
      "name": "depositTokens",
      "outputs": [],
      "stateMutability": "payable",
      "type": "function"
    },
    {
      "inputs": [],
      "name": "getCurrentContract",
      "outputs": [
        {
          "internalType": "address",
          "name": "",
          "type": "address"
        }
      ],
      "stateMutability": "view",
      "type": "function"
    },
    {
      "inputs": [],
      "name": "initialize",
      "outputs": [],
      "stateMutability": "nonpayable",
      "type": "function"
    },
    {
      "inputs": [],
      "name": "owner",
      "outputs": [
        {
          "internalType": "address",
          "name": "",
          "type": "address"
        }
      ],
      "stateMutability": "view",
      "type": "function"
    },
    {
      "inputs": [],
      "name": "renounceOwnership",
      "outputs": [],
      "stateMutability": "nonpayable",
      "type": "function"
    },
    {
      "inputs": [
        {
          "internalType": "address",
          "name": "newOwner",
          "type": "address"
        }
      ],
      "name": "transferOwnership",
      "outputs": [],
      "stateMutability": "nonpayable",
      "type": "function"
    },
    {
      "inputs": [
        {
          "internalType": "address",
          "name": "_contractAddress",
          "type": "address"
        },
        {
          "internalType": "address",
          "name": "_erc20Addr",
          "type": "address"
        },
        {
          "internalType": "uint256",
          "name": "_numberOfTokens",
          "type": "uint256"
        },
        {
          "internalType": "address",
          "name": "_from",
          "type": "address"
        }
      ],
      "name": "withdraw",
      "outputs": [],
      "stateMutability": "nonpayable",
      "type": "function"
    },
    {
      "inputs": [
        {
          "internalType": "address",
          "name": "_to",
          "type": "address"
        }
      ],
      "name": "withdrawFee",
      "outputs": [],
      "stateMutability": "nonpayable",
      "type": "function"
    },
    {
      "stateMutability": "payable",
      "type": "receive"
    }
  ],
  "bytecode": "0x608060405234801561001057600080fd5b50612351806100206000396000f3fe6080604052600436106100955760003560e01c80638da5cb5b116100595780638da5cb5b1461014f5780639d1c6d381461017a578063ec634f7714610196578063f072476e146101c1578063f2fde38b146101fe5761009f565b80630e917f76146100a45780631ac3ddeb146100cd578063715018a6146100f6578063721d7d8e1461010d5780638129fc1c146101385761009f565b3661009f57600080fd5b600080fd5b3480156100b057600080fd5b506100cb60048036038101906100c69190611008565b610227565b005b3480156100d957600080fd5b506100f460048036038101906100ef9190610fdb565b61029e565b005b34801561010257600080fd5b5061010b6102f0565b005b34801561011957600080fd5b50610122610304565b60405161012f9190611292565b60405180910390f35b34801561014457600080fd5b5061014d61032a565b005b34801561015b57600080fd5b50610164610471565b604051610171919061125c565b60405180910390f35b610194600480360381019061018f919061106f565b61049b565b005b3480156101a257600080fd5b506101ab610b82565b6040516101b8919061125c565b60405180910390f35b3480156101cd57600080fd5b506101e860048036038101906101e39190610fdb565b610bac565b6040516101f5919061142d565b60405180910390f35b34801561020a57600080fd5b5061022560048036038101906102209190610fdb565b610bcc565b005b8373ffffffffffffffffffffffffffffffffffffffff16630e917f76828585336040518563ffffffff1660e01b8152600401610266949392919061130d565b600060405180830381600087803b15801561028057600080fd5b505af1158015610294573d6000803e3d6000fd5b5050505050505050565b6102a6610c50565b8073ffffffffffffffffffffffffffffffffffffffff166108fc479081150290604051600060405180830381858888f193505050501580156102ec573d6000803e3d6000fd5b5050565b6102f8610c50565b6103026000610cce565b565b606660009054906101000a900473ffffffffffffffffffffffffffffffffffffffff1681565b60008060019054906101000a900460ff1615905080801561035b5750600160008054906101000a900460ff1660ff16105b80610388575061036a30610d94565b1580156103875750600160008054906101000a900460ff1660ff16145b5b6103c7576040517f08c379a00000000000000000000000000000000000000000000000000000000081526004016103be906113ad565b60405180910390fd5b60016000806101000a81548160ff021916908360ff1602179055508015610404576001600060016101000a81548160ff0219169083151502179055505b61040c610db7565b610414610e10565b50801561046e5760008060016101000a81548160ff0219169083151502179055507f7f26b83ff96e1f2b6a682f133852f6798a09c465da95921460cefb384740249860016040516104659190611352565b60405180910390a15b50565b6000603360009054906101000a900473ffffffffffffffffffffffffffffffffffffffff16905090565b662386f26fc100003410156104e5576040517f08c379a00000000000000000000000000000000000000000000000000000000081526004016104dc9061138d565b60405180910390fd5b601e60656000606660009054906101000a900473ffffffffffffffffffffffffffffffffffffffff1673ffffffffffffffffffffffffffffffffffffffff1673ffffffffffffffffffffffffffffffffffffffff16815260200190815260200160002060009054906101000a900460ff1660ff16141561056957610567610e10565b505b600073ffffffffffffffffffffffffffffffffffffffff168473ffffffffffffffffffffffffffffffffffffffff16141561072657666a94d74f430000662386f26fc10000346105b99190611490565b10156105fa576040517f08c379a00000000000000000000000000000000000000000000000000000000081526004016105f1906113cd565b60405180910390fd5b606660009054906101000a900473ffffffffffffffffffffffffffffffffffffffff1673ffffffffffffffffffffffffffffffffffffffff166108fc662386f26fc10000346106499190611490565b9081150290604051600060405180830381858888f19350505050158015610674573d6000803e3d6000fd5b50606660009054906101000a900473ffffffffffffffffffffffffffffffffffffffff1673ffffffffffffffffffffffffffffffffffffffff1663b1d1ec196106bb610efc565b86662386f26fc10000346106cf9190611490565b866040518563ffffffff1660e01b81526004016106ef949392919061130d565b600060405180830381600087803b15801561070957600080fd5b505af115801561071d573d6000803e3d6000fd5b50505050610957565b68056bc75e2d631000008473ffffffffffffffffffffffffffffffffffffffff1663dd62ed3e610754610efc565b306040518363ffffffff1660e01b81526004016107729291906112ad565b60206040518083038186803b15801561078a57600080fd5b505afa15801561079e573d6000803e3d6000fd5b505050506040513d601f19601f820116820180604052508101906107c29190611103565b1015610803576040517f08c379a00000000000000000000000000000000000000000000000000000000081526004016107fa906113cd565b60405180910390fd5b8373ffffffffffffffffffffffffffffffffffffffff166323b872dd610827610efc565b606660009054906101000a900473ffffffffffffffffffffffffffffffffffffffff16866040518463ffffffff1660e01b8152600401610869939291906112d6565b602060405180830381600087803b15801561088357600080fd5b505af1158015610897573d6000803e3d6000fd5b505050506040513d601f19601f820116820180604052508101906108bb91906110d6565b50606660009054906101000a900473ffffffffffffffffffffffffffffffffffffffff1673ffffffffffffffffffffffffffffffffffffffff1663b1d1ec19610902610efc565b8686866040518563ffffffff1660e01b8152600401610924949392919061130d565b600060405180830381600087803b15801561093e57600080fd5b505af1158015610952573d6000803e3d6000fd5b505050505b600160656000606660009054906101000a900473ffffffffffffffffffffffffffffffffffffffff1673ffffffffffffffffffffffffffffffffffffffff1673ffffffffffffffffffffffffffffffffffffffff16815260200190815260200160002060008282829054906101000a900460ff166109d59190611459565b92506101000a81548160ff021916908360ff160217905550600115158115151415610b7c57600073ffffffffffffffffffffffffffffffffffffffff168473ffffffffffffffffffffffffffffffffffffffff161415610ae057606660009054906101000a900473ffffffffffffffffffffffffffffffffffffffff1673ffffffffffffffffffffffffffffffffffffffff16630e917f76610a75610efc565b86662386f26fc1000034610a899190611490565b866040518563ffffffff1660e01b8152600401610aa9949392919061130d565b600060405180830381600087803b158015610ac357600080fd5b505af1158015610ad7573d6000803e3d6000fd5b50505050610b7b565b606660009054906101000a900473ffffffffffffffffffffffffffffffffffffffff1673ffffffffffffffffffffffffffffffffffffffff16630e917f76610b26610efc565b8686866040518563ffffffff1660e01b8152600401610b48949392919061130d565b600060405180830381600087803b158015610b6257600080fd5b505af1158015610b76573d6000803e3d6000fd5b505050505b5b50505050565b6000606660009054906101000a900473ffffffffffffffffffffffffffffffffffffffff16905090565b60656020528060005260406000206000915054906101000a900460ff1681565b610bd4610c50565b600073ffffffffffffffffffffffffffffffffffffffff168173ffffffffffffffffffffffffffffffffffffffff161415610c44576040517f08c379a0000000000000000000000000000000000000000000000000000000008152600401610c3b9061136d565b60405180910390fd5b610c4d81610cce565b50565b610c58610efc565b73ffffffffffffffffffffffffffffffffffffffff16610c76610471565b73ffffffffffffffffffffffffffffffffffffffff1614610ccc576040517f08c379a0000000000000000000000000000000000000000000000000000000008152600401610cc3906113ed565b60405180910390fd5b565b6000603360009054906101000a900473ffffffffffffffffffffffffffffffffffffffff16905081603360006101000a81548173ffffffffffffffffffffffffffffffffffffffff021916908373ffffffffffffffffffffffffffffffffffffffff1602179055508173ffffffffffffffffffffffffffffffffffffffff168173ffffffffffffffffffffffffffffffffffffffff167f8be0079c531659141344cd1fd0a4f28419497f9722a3daafe3b4186f6b6457e060405160405180910390a35050565b6000808273ffffffffffffffffffffffffffffffffffffffff163b119050919050565b600060019054906101000a900460ff16610e06576040517f08c379a0000000000000000000000000000000000000000000000000000000008152600401610dfd9061140d565b60405180910390fd5b610e0e610f04565b565b6000604051610e1e90610f65565b604051809103906000f080158015610e3a573d6000803e3d6000fd5b50606660006101000a81548173ffffffffffffffffffffffffffffffffffffffff021916908373ffffffffffffffffffffffffffffffffffffffff1602179055507fff930b9a7b49209e6e4aaca7250915fa46f36a097caed9bc228fb268db60f770606660009054906101000a900473ffffffffffffffffffffffffffffffffffffffff16604051610ecc9190611277565b60405180910390a1606660009054906101000a900473ffffffffffffffffffffffffffffffffffffffff16905090565b600033905090565b600060019054906101000a900460ff16610f53576040517f08c379a0000000000000000000000000000000000000000000000000000000008152600401610f4a9061140d565b60405180910390fd5b610f63610f5e610efc565b610cce565b565b610ba18061177b83390190565b600081359050610f8181611735565b92915050565b600081359050610f968161174c565b92915050565b600081519050610fab8161174c565b92915050565b600081359050610fc081611763565b92915050565b600081519050610fd581611763565b92915050565b600060208284031215610ff157610ff06115a2565b5b6000610fff84828501610f72565b91505092915050565b60008060008060808587031215611022576110216115a2565b5b600061103087828801610f72565b945050602061104187828801610f72565b935050604061105287828801610fb1565b925050606061106387828801610f72565b91505092959194509250565b60008060008060808587031215611089576110886115a2565b5b600061109787828801610f72565b94505060206110a887828801610fb1565b93505060406110b987828801610f72565b92505060606110ca87828801610f87565b91505092959194509250565b6000602082840312156110ec576110eb6115a2565b5b60006110fa84828501610f9c565b91505092915050565b600060208284031215611119576111186115a2565b5b600061112784828501610fc6565b91505092915050565b6111398161152b565b82525050565b611148816114d6565b82525050565b611157816114c4565b82525050565b6111668161153d565b82525050565b6000611179602683611448565b9150611184826115a7565b604082019050919050565b600061119c602083611448565b91506111a7826115f6565b602082019050919050565b60006111bf602e83611448565b91506111ca8261161f565b604082019050919050565b60006111e2602783611448565b91506111ed8261166e565b604082019050919050565b6000611205602083611448565b9150611210826116bd565b602082019050919050565b6000611228602b83611448565b9150611233826116e6565b604082019050919050565b61124781611514565b82525050565b6112568161151e565b82525050565b6000602082019050611271600083018461114e565b92915050565b600060208201905061128c6000830184611130565b92915050565b60006020820190506112a7600083018461113f565b92915050565b60006040820190506112c2600083018561114e565b6112cf602083018461114e565b9392505050565b60006060820190506112eb600083018661114e565b6112f86020830185611130565b611305604083018461123e565b949350505050565b6000608082019050611322600083018761114e565b61132f602083018661114e565b61133c604083018561123e565b611349606083018461114e565b95945050505050565b6000602082019050611367600083018461115d565b92915050565b600060208201905081810360008301526113868161116c565b9050919050565b600060208201905081810360008301526113a68161118f565b9050919050565b600060208201905081810360008301526113c6816111b2565b9050919050565b600060208201905081810360008301526113e6816111d5565b9050919050565b60006020820190508181036000830152611406816111f8565b9050919050565b600060208201905081810360008301526114268161121b565b9050919050565b6000602082019050611442600083018461124d565b92915050565b600082825260208201905092915050565b60006114648261151e565b915061146f8361151e565b92508260ff0382111561148557611484611573565b5b828201905092915050565b600061149b82611514565b91506114a683611514565b9250828210156114b9576114b8611573565b5b828203905092915050565b60006114cf826114f4565b9050919050565b60006114e1826114f4565b9050919050565b60008115159050919050565b600073ffffffffffffffffffffffffffffffffffffffff82169050919050565b6000819050919050565b600060ff82169050919050565b60006115368261154f565b9050919050565b60006115488261151e565b9050919050565b600061155a82611561565b9050919050565b600061156c826114f4565b9050919050565b7f4e487b7100000000000000000000000000000000000000000000000000000000600052601160045260246000fd5b600080fd5b7f4f776e61626c653a206e6577206f776e657220697320746865207a65726f206160008201527f6464726573730000000000000000000000000000000000000000000000000000602082015250565b7f4d697865723a2046656520746f20636f6e7472616374206e6f742073656e7421600082015250565b7f496e697469616c697a61626c653a20636f6e747261637420697320616c72656160008201527f647920696e697469616c697a6564000000000000000000000000000000000000602082015250565b7f4d697865723a204d696e2062616c616e636520746f206465706f736974206e6f60008201527f742073656e742100000000000000000000000000000000000000000000000000602082015250565b7f4f776e61626c653a2063616c6c6572206973206e6f7420746865206f776e6572600082015250565b7f496e697469616c697a61626c653a20636f6e7472616374206973206e6f74206960008201527f6e697469616c697a696e67000000000000000000000000000000000000000000602082015250565b61173e816114c4565b811461174957600080fd5b50565b611755816114e8565b811461176057600080fd5b50565b61176c81611514565b811461177757600080fd5b5056fe608060405234801561001057600080fd5b50610b81806100206000396000f3fe6080604052600436106100595760003560e01c80630e917f7614610065578063715018a61461008e5780638da5cb5b146100a5578063b1d1ec19146100d0578063ba0b7dee146100f9578063f2fde38b1461013657610060565b3661006057005b600080fd5b34801561007157600080fd5b5061008c600480360381019061008791906107e0565b61015f565b005b34801561009a57600080fd5b506100a361040b565b005b3480156100b157600080fd5b506100ba61041f565b6040516100c791906108d8565b60405180910390f35b3480156100dc57600080fd5b506100f760048036038101906100f291906107e0565b610449565b005b34801561010557600080fd5b50610120600480360381019061011b919061078d565b61051f565b60405161012d919061095c565b60405180910390f35b34801561014257600080fd5b5061015d60048036038101906101589190610760565b610551565b005b81606560008673ffffffffffffffffffffffffffffffffffffffff1673ffffffffffffffffffffffffffffffffffffffff16815260200190815260200160002060008573ffffffffffffffffffffffffffffffffffffffff1673ffffffffffffffffffffffffffffffffffffffff16815260200190815260200160002060008373ffffffffffffffffffffffffffffffffffffffff1673ffffffffffffffffffffffffffffffffffffffff16815260200190815260200160002054101561022557600080fd5b81606560008673ffffffffffffffffffffffffffffffffffffffff1673ffffffffffffffffffffffffffffffffffffffff16815260200190815260200160002060008573ffffffffffffffffffffffffffffffffffffffff1673ffffffffffffffffffffffffffffffffffffffff16815260200190815260200160002060008373ffffffffffffffffffffffffffffffffffffffff1673ffffffffffffffffffffffffffffffffffffffff16815260200190815260200160002060008282546102ee91906109de565b92505081905550600073ffffffffffffffffffffffffffffffffffffffff168373ffffffffffffffffffffffffffffffffffffffff161415610376578073ffffffffffffffffffffffffffffffffffffffff166108fc839081150290604051600060405180830381858888f19350505050158015610370573d6000803e3d6000fd5b50610405565b8273ffffffffffffffffffffffffffffffffffffffff1663a9059cbb82846040518363ffffffff1660e01b81526004016103b19291906108f3565b602060405180830381600087803b1580156103cb57600080fd5b505af11580156103df573d6000803e3d6000fd5b505050506040513d601f19601f820116820180604052508101906104039190610847565b505b50505050565b6104136105d5565b61041d6000610653565b565b6000603360009054906101000a900473ffffffffffffffffffffffffffffffffffffffff16905090565b81606560008673ffffffffffffffffffffffffffffffffffffffff1673ffffffffffffffffffffffffffffffffffffffff16815260200190815260200160002060008573ffffffffffffffffffffffffffffffffffffffff1673ffffffffffffffffffffffffffffffffffffffff16815260200190815260200160002060008373ffffffffffffffffffffffffffffffffffffffff1673ffffffffffffffffffffffffffffffffffffffff16815260200190815260200160002060008282546105129190610988565b9250508190555050505050565b606560205282600052604060002060205281600052604060002060205280600052604060002060009250925050505481565b6105596105d5565b600073ffffffffffffffffffffffffffffffffffffffff168173ffffffffffffffffffffffffffffffffffffffff1614156105c9576040517f08c379a00000000000000000000000000000000000000000000000000000000081526004016105c09061091c565b60405180910390fd5b6105d281610653565b50565b6105dd610719565b73ffffffffffffffffffffffffffffffffffffffff166105fb61041f565b73ffffffffffffffffffffffffffffffffffffffff1614610651576040517f08c379a00000000000000000000000000000000000000000000000000000000081526004016106489061093c565b60405180910390fd5b565b6000603360009054906101000a900473ffffffffffffffffffffffffffffffffffffffff16905081603360006101000a81548173ffffffffffffffffffffffffffffffffffffffff021916908373ffffffffffffffffffffffffffffffffffffffff1602179055508173ffffffffffffffffffffffffffffffffffffffff168173ffffffffffffffffffffffffffffffffffffffff167f8be0079c531659141344cd1fd0a4f28419497f9722a3daafe3b4186f6b6457e060405160405180910390a35050565b600033905090565b60008135905061073081610b06565b92915050565b60008151905061074581610b1d565b92915050565b60008135905061075a81610b34565b92915050565b60006020828403121561077657610775610a89565b5b600061078484828501610721565b91505092915050565b6000806000606084860312156107a6576107a5610a89565b5b60006107b486828701610721565b93505060206107c586828701610721565b92505060406107d686828701610721565b9150509250925092565b600080600080608085870312156107fa576107f9610a89565b5b600061080887828801610721565b945050602061081987828801610721565b935050604061082a8782880161074b565b925050606061083b87828801610721565b91505092959194509250565b60006020828403121561085d5761085c610a89565b5b600061086b84828501610736565b91505092915050565b61087d81610a12565b82525050565b6000610890602683610977565b915061089b82610a8e565b604082019050919050565b60006108b3602083610977565b91506108be82610add565b602082019050919050565b6108d281610a50565b82525050565b60006020820190506108ed6000830184610874565b92915050565b60006040820190506109086000830185610874565b61091560208301846108c9565b9392505050565b6000602082019050818103600083015261093581610883565b9050919050565b60006020820190508181036000830152610955816108a6565b9050919050565b600060208201905061097160008301846108c9565b92915050565b600082825260208201905092915050565b600061099382610a50565b915061099e83610a50565b9250827fffffffffffffffffffffffffffffffffffffffffffffffffffffffffffffffff038211156109d3576109d2610a5a565b5b828201905092915050565b60006109e982610a50565b91506109f483610a50565b925082821015610a0757610a06610a5a565b5b828203905092915050565b6000610a1d82610a30565b9050919050565b60008115159050919050565b600073ffffffffffffffffffffffffffffffffffffffff82169050919050565b6000819050919050565b7f4e487b7100000000000000000000000000000000000000000000000000000000600052601160045260246000fd5b600080fd5b7f4f776e61626c653a206e6577206f776e657220697320746865207a65726f206160008201527f6464726573730000000000000000000000000000000000000000000000000000602082015250565b7f4f776e61626c653a2063616c6c6572206973206e6f7420746865206f776e6572600082015250565b610b0f81610a12565b8114610b1a57600080fd5b50565b610b2681610a24565b8114610b3157600080fd5b50565b610b3d81610a50565b8114610b4857600080fd5b5056fea264697066735822122020a01fbabfe1711b772b6526ae1311ab283cb4d716a1116796f379d30064883564736f6c63430008070033a2646970667358221220c68add09ca911ab1b812a380568e89c9e0c12085e0ec799a79b46561247be92e64736f6c63430008070033",
  "linkReferences": {},
  "deployedLinkReferences": {}
}