{
  "_format": "hh-sol-artifact-1",
  "contractName": "Mixer",
  "sourceName": "contracts/Mixer.sol",
  "abi": [
    {
      "anonymous": false,
      "inputs": [
        {
          "indexed": false,
          "internalType": "uint8",
          "name": "version",
          "type": "uint8"
        }
      ],
      "name": "Initialized",
      "type": "event"
    },
    {
      "anonymous": false,
      "inputs": [
        {
          "indexed": false,
          "internalType": "address",
          "name": "",
          "type": "address"
        }
      ],
      "name": "NewInnerContractCreated",
      "type": "event"
    },
    {
      "anonymous": false,
      "inputs": [
        {
          "indexed": true,
          "internalType": "address",
          "name": "previousOwner",
          "type": "address"
        },
        {
          "indexed": true,
          "internalType": "address",
          "name": "newOwner",
          "type": "address"
        }
      ],
      "name": "OwnershipTransferred",
      "type": "event"
    },
    {
      "inputs": [
        {
          "internalType": "address",
          "name": "",
          "type": "address"
        }
      ],
      "name": "addressDeposits",
      "outputs": [
        {
          "internalType": "uint8",
          "name": "",
          "type": "uint8"
        }
      ],
      "stateMutability": "view",
      "type": "function"
    },
    {
      "inputs": [],
      "name": "currentContract",
      "outputs": [
        {
          "internalType": "address payable",
          "name": "",
          "type": "address"
        }
      ],
      "stateMutability": "view",
      "type": "function"
    },
    {
      "inputs": [
        {
          "internalType": "address",
          "name": "_erc20Addr",
          "type": "address"
        },
        {
          "internalType": "uint256",
          "name": "_numberOfTokens",
          "type": "uint256"
        },
        {
          "internalType": "address",
          "name": "_to",
          "type": "address"
        }
      ],
      "name": "depositTokens",
      "outputs": [],
      "stateMutability": "payable",
      "type": "function"
    },
    {
      "inputs": [],
      "name": "getCurrentContract",
      "outputs": [
        {
          "internalType": "address",
          "name": "",
          "type": "address"
        }
      ],
      "stateMutability": "view",
      "type": "function"
    },
    {
      "inputs": [],
      "name": "initialize",
      "outputs": [],
      "stateMutability": "nonpayable",
      "type": "function"
    },
    {
      "inputs": [],
      "name": "owner",
      "outputs": [
        {
          "internalType": "address",
          "name": "",
          "type": "address"
        }
      ],
      "stateMutability": "view",
      "type": "function"
    },
    {
      "inputs": [],
      "name": "renounceOwnership",
      "outputs": [],
      "stateMutability": "nonpayable",
      "type": "function"
    },
    {
      "inputs": [
        {
          "internalType": "address",
          "name": "newOwner",
          "type": "address"
        }
      ],
      "name": "transferOwnership",
      "outputs": [],
      "stateMutability": "nonpayable",
      "type": "function"
    },
    {
      "inputs": [
        {
          "internalType": "address",
          "name": "_contractAddress",
          "type": "address"
        },
        {
          "internalType": "address",
          "name": "_erc20Addr",
          "type": "address"
        },
        {
          "internalType": "uint256",
          "name": "_numberOfTokens",
          "type": "uint256"
        },
        {
          "internalType": "address",
          "name": "_from",
          "type": "address"
        },
        {
          "internalType": "address",
          "name": "_to",
          "type": "address"
        }
      ],
      "name": "withdraw",
      "outputs": [],
      "stateMutability": "nonpayable",
      "type": "function"
    },
    {
      "inputs": [
        {
          "internalType": "address",
          "name": "_to",
          "type": "address"
        }
      ],
      "name": "withdrawFee",
      "outputs": [],
      "stateMutability": "nonpayable",
      "type": "function"
    },
    {
      "inputs": [
        {
          "internalType": "address",
          "name": "_contractAddress",
          "type": "address"
        },
        {
          "internalType": "address",
          "name": "_erc20Addr",
          "type": "address"
        },
        {
          "internalType": "uint256",
          "name": "_numberOfTokens",
          "type": "uint256"
        },
        {
          "internalType": "address",
          "name": "_from",
          "type": "address"
        },
        {
          "internalType": "address",
          "name": "_to",
          "type": "address"
        }
      ],
      "name": "withdrawForCompliance",
      "outputs": [],
      "stateMutability": "nonpayable",
      "type": "function"
    },
    {
      "stateMutability": "payable",
      "type": "receive"
    }
  ],
  "bytecode": "0x608060405234801561001057600080fd5b506128a8806100206000396000f3fe6080604052600436106100a05760003560e01c80638129fc1c116100645780638129fc1c1461015f5780638da5cb5b14610176578063aff3c1a5146101a1578063ec634f77146101ca578063f072476e146101f5578063f2fde38b14610232576100aa565b80631ac3ddeb146100af578063298e4f79146100d857806331d7d650146100f4578063715018a61461011d578063721d7d8e14610134576100aa565b366100aa57600080fd5b600080fd5b3480156100bb57600080fd5b506100d660048036038101906100d19190611037565b61025b565b005b6100f260048036038101906100ed91906110df565b6102ad565b005b34801561010057600080fd5b5061011b60048036038101906101169190611064565b610804565b005b34801561012957600080fd5b5061013261088d565b005b34801561014057600080fd5b506101496108a1565b6040516101569190611334565b60405180910390f35b34801561016b57600080fd5b506101746108c7565b005b34801561018257600080fd5b5061018b610a0e565b60405161019891906112fe565b60405180910390f35b3480156101ad57600080fd5b506101c860048036038101906101c39190611064565b610a38565b005b3480156101d657600080fd5b506101df610bf3565b6040516101ec91906112fe565b60405180910390f35b34801561020157600080fd5b5061021c60048036038101906102179190611037565b610c1d565b6040516102299190611562565b60405180910390f35b34801561023e57600080fd5b5061025960048036038101906102549190611037565b610c3d565b005b610263610cc1565b8073ffffffffffffffffffffffffffffffffffffffff166108fc479081150290604051600060405180830381858888f193505050501580156102a9573d6000803e3d6000fd5b5050565b662386f26fc100003410156102f7576040517f08c379a00000000000000000000000000000000000000000000000000000000081526004016102ee90611482565b60405180910390fd5b601e60656000606660009054906101000a900473ffffffffffffffffffffffffffffffffffffffff1673ffffffffffffffffffffffffffffffffffffffff1673ffffffffffffffffffffffffffffffffffffffff16815260200190815260200160002060009054906101000a900460ff1660ff16141561037b57610379610d3f565b505b600073ffffffffffffffffffffffffffffffffffffffff168373ffffffffffffffffffffffffffffffffffffffff16141561053857666a94d74f430000662386f26fc10000346103cb91906115c5565b101561040c576040517f08c379a0000000000000000000000000000000000000000000000000000000008152600401610403906114e2565b60405180910390fd5b606660009054906101000a900473ffffffffffffffffffffffffffffffffffffffff1673ffffffffffffffffffffffffffffffffffffffff166108fc662386f26fc100003461045b91906115c5565b9081150290604051600060405180830381858888f19350505050158015610486573d6000803e3d6000fd5b50606660009054906101000a900473ffffffffffffffffffffffffffffffffffffffff1673ffffffffffffffffffffffffffffffffffffffff1663b1d1ec196104cd610e2b565b85662386f26fc10000346104e191906115c5565b856040518563ffffffff1660e01b815260040161050194939291906113af565b600060405180830381600087803b15801561051b57600080fd5b505af115801561052f573d6000803e3d6000fd5b50505050610769565b68056bc75e2d631000008373ffffffffffffffffffffffffffffffffffffffff1663dd62ed3e610566610e2b565b306040518363ffffffff1660e01b815260040161058492919061134f565b60206040518083038186803b15801561059c57600080fd5b505afa1580156105b0573d6000803e3d6000fd5b505050506040513d601f19601f820116820180604052508101906105d4919061115f565b1015610615576040517f08c379a000000000000000000000000000000000000000000000000000000000815260040161060c906114e2565b60405180910390fd5b8273ffffffffffffffffffffffffffffffffffffffff166323b872dd610639610e2b565b606660009054906101000a900473ffffffffffffffffffffffffffffffffffffffff16856040518463ffffffff1660e01b815260040161067b93929190611378565b602060405180830381600087803b15801561069557600080fd5b505af11580156106a9573d6000803e3d6000fd5b505050506040513d601f19601f820116820180604052508101906106cd9190611132565b50606660009054906101000a900473ffffffffffffffffffffffffffffffffffffffff1673ffffffffffffffffffffffffffffffffffffffff1663b1d1ec19610714610e2b565b8585856040518563ffffffff1660e01b815260040161073694939291906113af565b600060405180830381600087803b15801561075057600080fd5b505af1158015610764573d6000803e3d6000fd5b505050505b600160656000606660009054906101000a900473ffffffffffffffffffffffffffffffffffffffff1673ffffffffffffffffffffffffffffffffffffffff1673ffffffffffffffffffffffffffffffffffffffff16815260200190815260200160002060008282829054906101000a900460ff166107e7919061158e565b92506101000a81548160ff021916908360ff160217905550505050565b61080c610cc1565b8473ffffffffffffffffffffffffffffffffffffffff166331d7d65083868685610834610a0e565b6040518663ffffffff1660e01b81526004016108549594939291906113f4565b600060405180830381600087803b15801561086e57600080fd5b505af1158015610882573d6000803e3d6000fd5b505050505050505050565b610895610cc1565b61089f6000610e33565b565b606660009054906101000a900473ffffffffffffffffffffffffffffffffffffffff1681565b60008060019054906101000a900460ff161590508080156108f85750600160008054906101000a900460ff1660ff16105b80610925575061090730610ef9565b1580156109245750600160008054906101000a900460ff1660ff16145b5b610964576040517f08c379a000000000000000000000000000000000000000000000000000000000815260040161095b906114c2565b60405180910390fd5b60016000806101000a81548160ff021916908360ff16021790555080156109a1576001600060016101000a81548160ff0219169083151502179055505b6109a9610f1c565b6109b1610d3f565b508015610a0b5760008060016101000a81548160ff0219169083151502179055507f7f26b83ff96e1f2b6a682f133852f6798a09c465da95921460cefb38474024986001604051610a029190611447565b60405180910390a15b50565b6000603360009054906101000a900473ffffffffffffffffffffffffffffffffffffffff16905090565b606660009054906101000a900473ffffffffffffffffffffffffffffffffffffffff1673ffffffffffffffffffffffffffffffffffffffff168573ffffffffffffffffffffffffffffffffffffffff161415610ac9576040517f08c379a0000000000000000000000000000000000000000000000000000000008152600401610ac0906114a2565b60405180910390fd5b8173ffffffffffffffffffffffffffffffffffffffff16610ae8610e2b565b73ffffffffffffffffffffffffffffffffffffffff161480610b3c57508073ffffffffffffffffffffffffffffffffffffffff16610b24610e2b565b73ffffffffffffffffffffffffffffffffffffffff16145b610b7b576040517f08c379a0000000000000000000000000000000000000000000000000000000008152600401610b7290611522565b60405180910390fd5b8473ffffffffffffffffffffffffffffffffffffffff16630e917f76838686856040518563ffffffff1660e01b8152600401610bba94939291906113af565b600060405180830381600087803b158015610bd457600080fd5b505af1158015610be8573d6000803e3d6000fd5b505050505050505050565b6000606660009054906101000a900473ffffffffffffffffffffffffffffffffffffffff16905090565b60656020528060005260406000206000915054906101000a900460ff1681565b610c45610cc1565b600073ffffffffffffffffffffffffffffffffffffffff168173ffffffffffffffffffffffffffffffffffffffff161415610cb5576040517f08c379a0000000000000000000000000000000000000000000000000000000008152600401610cac90611462565b60405180910390fd5b610cbe81610e33565b50565b610cc9610e2b565b73ffffffffffffffffffffffffffffffffffffffff16610ce7610a0e565b73ffffffffffffffffffffffffffffffffffffffff1614610d3d576040517f08c379a0000000000000000000000000000000000000000000000000000000008152600401610d3490611502565b60405180910390fd5b565b6000604051610d4d90610fd6565b604051809103906000f080158015610d69573d6000803e3d6000fd5b50606660006101000a81548173ffffffffffffffffffffffffffffffffffffffff021916908373ffffffffffffffffffffffffffffffffffffffff1602179055507fff930b9a7b49209e6e4aaca7250915fa46f36a097caed9bc228fb268db60f770606660009054906101000a900473ffffffffffffffffffffffffffffffffffffffff16604051610dfb9190611319565b60405180910390a1606660009054906101000a900473ffffffffffffffffffffffffffffffffffffffff16905090565b600033905090565b6000603360009054906101000a900473ffffffffffffffffffffffffffffffffffffffff16905081603360006101000a81548173ffffffffffffffffffffffffffffffffffffffff021916908373ffffffffffffffffffffffffffffffffffffffff1602179055508173ffffffffffffffffffffffffffffffffffffffff168173ffffffffffffffffffffffffffffffffffffffff167f8be0079c531659141344cd1fd0a4f28419497f9722a3daafe3b4186f6b6457e060405160405180910390a35050565b6000808273ffffffffffffffffffffffffffffffffffffffff163b119050919050565b600060019054906101000a900460ff16610f6b576040517f08c379a0000000000000000000000000000000000000000000000000000000008152600401610f6290611542565b60405180910390fd5b610f73610f75565b565b600060019054906101000a900460ff16610fc4576040517f08c379a0000000000000000000000000000000000000000000000000000000008152600401610fbb90611542565b60405180910390fd5b610fd4610fcf610e2b565b610e33565b565b610f258061194e83390190565b600081359050610ff281611908565b92915050565b6000815190506110078161191f565b92915050565b60008135905061101c81611936565b92915050565b60008151905061103181611936565b92915050565b60006020828403121561104d5761104c6116d7565b5b600061105b84828501610fe3565b91505092915050565b600080600080600060a086880312156110805761107f6116d7565b5b600061108e88828901610fe3565b955050602061109f88828901610fe3565b94505060406110b08882890161100d565b93505060606110c188828901610fe3565b92505060806110d288828901610fe3565b9150509295509295909350565b6000806000606084860312156110f8576110f76116d7565b5b600061110686828701610fe3565b93505060206111178682870161100d565b925050604061112886828701610fe3565b9150509250925092565b600060208284031215611148576111476116d7565b5b600061115684828501610ff8565b91505092915050565b600060208284031215611175576111746116d7565b5b600061118384828501611022565b91505092915050565b61119581611660565b82525050565b6111a48161160b565b82525050565b6111b3816115f9565b82525050565b6111c281611672565b82525050565b60006111d560268361157d565b91506111e0826116dc565b604082019050919050565b60006111f860208361157d565b91506112038261172b565b602082019050919050565b600061121b60318361157d565b915061122682611754565b604082019050919050565b600061123e602e8361157d565b9150611249826117a3565b604082019050919050565b600061126160278361157d565b915061126c826117f2565b604082019050919050565b600061128460208361157d565b915061128f82611841565b602082019050919050565b60006112a760288361157d565b91506112b28261186a565b604082019050919050565b60006112ca602b8361157d565b91506112d5826118b9565b604082019050919050565b6112e981611649565b82525050565b6112f881611653565b82525050565b600060208201905061131360008301846111aa565b92915050565b600060208201905061132e600083018461118c565b92915050565b6000602082019050611349600083018461119b565b92915050565b600060408201905061136460008301856111aa565b61137160208301846111aa565b9392505050565b600060608201905061138d60008301866111aa565b61139a602083018561118c565b6113a760408301846112e0565b949350505050565b60006080820190506113c460008301876111aa565b6113d160208301866111aa565b6113de60408301856112e0565b6113eb60608301846111aa565b95945050505050565b600060a08201905061140960008301886111aa565b61141660208301876111aa565b61142360408301866112e0565b61143060608301856111aa565b61143d60808301846111aa565b9695505050505050565b600060208201905061145c60008301846111b9565b92915050565b6000602082019050818103600083015261147b816111c8565b9050919050565b6000602082019050818103600083015261149b816111eb565b9050919050565b600060208201905081810360008301526114bb8161120e565b9050919050565b600060208201905081810360008301526114db81611231565b9050919050565b600060208201905081810360008301526114fb81611254565b9050919050565b6000602082019050818103600083015261151b81611277565b9050919050565b6000602082019050818103600083015261153b8161129a565b9050919050565b6000602082019050818103600083015261155b816112bd565b9050919050565b600060208201905061157760008301846112ef565b92915050565b600082825260208201905092915050565b600061159982611653565b91506115a483611653565b92508260ff038211156115ba576115b96116a8565b5b828201905092915050565b60006115d082611649565b91506115db83611649565b9250828210156115ee576115ed6116a8565b5b828203905092915050565b600061160482611629565b9050919050565b600061161682611629565b9050919050565b60008115159050919050565b600073ffffffffffffffffffffffffffffffffffffffff82169050919050565b6000819050919050565b600060ff82169050919050565b600061166b82611684565b9050919050565b600061167d82611653565b9050919050565b600061168f82611696565b9050919050565b60006116a182611629565b9050919050565b7f4e487b7100000000000000000000000000000000000000000000000000000000600052601160045260246000fd5b600080fd5b7f4f776e61626c653a206e6577206f776e657220697320746865207a65726f206160008201527f6464726573730000000000000000000000000000000000000000000000000000602082015250565b7f4d697865723a2046656520746f20636f6e7472616374206e6f742073656e7421600082015250565b7f4d697865723a2043616e277420776974686472617720756e74696c207468652060008201527f636f6e74726163742069732066756c6c2e000000000000000000000000000000602082015250565b7f496e697469616c697a61626c653a20636f6e747261637420697320616c72656160008201527f647920696e697469616c697a6564000000000000000000000000000000000000602082015250565b7f4d697865723a204d696e2062616c616e636520746f206465706f736974206e6f60008201527f742073656e742100000000000000000000000000000000000000000000000000602082015250565b7f4f776e61626c653a2063616c6c6572206973206e6f7420746865206f776e6572600082015250565b7f4d697865723a204e6f7420617574686f72697a656420746f207769746864726160008201527f772066756e64732e000000000000000000000000000000000000000000000000602082015250565b7f496e697469616c697a61626c653a20636f6e7472616374206973206e6f74206960008201527f6e697469616c697a696e67000000000000000000000000000000000000000000602082015250565b611911816115f9565b811461191c57600080fd5b50565b6119288161161d565b811461193357600080fd5b50565b61193f81611649565b811461194a57600080fd5b5056fe608060405234801561001057600080fd5b50610f05806100206000396000f3fe6080604052600436106100745760003560e01c80638da5cb5b1161004e5780638da5cb5b146100e9578063b1d1ec1914610114578063ba0b7dee1461013d578063f2fde38b1461017a5761007b565b80630e917f761461008057806331d7d650146100a9578063715018a6146100d25761007b565b3661007b57005b600080fd5b34801561008c57600080fd5b506100a760048036038101906100a29190610ae9565b6101a3565b005b3480156100b557600080fd5b506100d060048036038101906100cb9190610b50565b610457565b005b3480156100de57600080fd5b506100e761070c565b005b3480156100f557600080fd5b506100fe610720565b60405161010b9190610c5c565b60405180910390f35b34801561012057600080fd5b5061013b60048036038101906101369190610ae9565b61074a565b005b34801561014957600080fd5b50610164600480360381019061015f9190610a96565b610828565b6040516101719190610ce0565b60405180910390f35b34801561018657600080fd5b506101a1600480360381019061019c9190610a69565b61085a565b005b6101ab6108de565b81606560008673ffffffffffffffffffffffffffffffffffffffff1673ffffffffffffffffffffffffffffffffffffffff16815260200190815260200160002060008573ffffffffffffffffffffffffffffffffffffffff1673ffffffffffffffffffffffffffffffffffffffff16815260200190815260200160002060008373ffffffffffffffffffffffffffffffffffffffff1673ffffffffffffffffffffffffffffffffffffffff16815260200190815260200160002054101561027157600080fd5b81606560008673ffffffffffffffffffffffffffffffffffffffff1673ffffffffffffffffffffffffffffffffffffffff16815260200190815260200160002060008573ffffffffffffffffffffffffffffffffffffffff1673ffffffffffffffffffffffffffffffffffffffff16815260200190815260200160002060008373ffffffffffffffffffffffffffffffffffffffff1673ffffffffffffffffffffffffffffffffffffffff168152602001908152602001600020600082825461033a9190610d62565b92505081905550600073ffffffffffffffffffffffffffffffffffffffff168373ffffffffffffffffffffffffffffffffffffffff1614156103c2578073ffffffffffffffffffffffffffffffffffffffff166108fc839081150290604051600060405180830381858888f193505050501580156103bc573d6000803e3d6000fd5b50610451565b8273ffffffffffffffffffffffffffffffffffffffff1663a9059cbb82846040518363ffffffff1660e01b81526004016103fd929190610c77565b602060405180830381600087803b15801561041757600080fd5b505af115801561042b573d6000803e3d6000fd5b505050506040513d601f19601f8201168201806040525081019061044f9190610bcb565b505b50505050565b61045f6108de565b82606560008773ffffffffffffffffffffffffffffffffffffffff1673ffffffffffffffffffffffffffffffffffffffff16815260200190815260200160002060008673ffffffffffffffffffffffffffffffffffffffff1673ffffffffffffffffffffffffffffffffffffffff16815260200190815260200160002060008473ffffffffffffffffffffffffffffffffffffffff1673ffffffffffffffffffffffffffffffffffffffff16815260200190815260200160002054101561052557600080fd5b82606560008773ffffffffffffffffffffffffffffffffffffffff1673ffffffffffffffffffffffffffffffffffffffff16815260200190815260200160002060008673ffffffffffffffffffffffffffffffffffffffff1673ffffffffffffffffffffffffffffffffffffffff16815260200190815260200160002060008473ffffffffffffffffffffffffffffffffffffffff1673ffffffffffffffffffffffffffffffffffffffff16815260200190815260200160002060008282546105ee9190610d62565b92505081905550600073ffffffffffffffffffffffffffffffffffffffff168473ffffffffffffffffffffffffffffffffffffffff161415610676578073ffffffffffffffffffffffffffffffffffffffff166108fc849081150290604051600060405180830381858888f19350505050158015610670573d6000803e3d6000fd5b50610705565b8373ffffffffffffffffffffffffffffffffffffffff1663a9059cbb82856040518363ffffffff1660e01b81526004016106b1929190610c77565b602060405180830381600087803b1580156106cb57600080fd5b505af11580156106df573d6000803e3d6000fd5b505050506040513d601f19601f820116820180604052508101906107039190610bcb565b505b5050505050565b6107146108de565b61071e600061095c565b565b6000603360009054906101000a900473ffffffffffffffffffffffffffffffffffffffff16905090565b6107526108de565b81606560008673ffffffffffffffffffffffffffffffffffffffff1673ffffffffffffffffffffffffffffffffffffffff16815260200190815260200160002060008573ffffffffffffffffffffffffffffffffffffffff1673ffffffffffffffffffffffffffffffffffffffff16815260200190815260200160002060008373ffffffffffffffffffffffffffffffffffffffff1673ffffffffffffffffffffffffffffffffffffffff168152602001908152602001600020600082825461081b9190610d0c565b9250508190555050505050565b606560205282600052604060002060205281600052604060002060205280600052604060002060009250925050505481565b6108626108de565b600073ffffffffffffffffffffffffffffffffffffffff168173ffffffffffffffffffffffffffffffffffffffff1614156108d2576040517f08c379a00000000000000000000000000000000000000000000000000000000081526004016108c990610ca0565b60405180910390fd5b6108db8161095c565b50565b6108e6610a22565b73ffffffffffffffffffffffffffffffffffffffff16610904610720565b73ffffffffffffffffffffffffffffffffffffffff161461095a576040517f08c379a000000000000000000000000000000000000000000000000000000000815260040161095190610cc0565b60405180910390fd5b565b6000603360009054906101000a900473ffffffffffffffffffffffffffffffffffffffff16905081603360006101000a81548173ffffffffffffffffffffffffffffffffffffffff021916908373ffffffffffffffffffffffffffffffffffffffff1602179055508173ffffffffffffffffffffffffffffffffffffffff168173ffffffffffffffffffffffffffffffffffffffff167f8be0079c531659141344cd1fd0a4f28419497f9722a3daafe3b4186f6b6457e060405160405180910390a35050565b600033905090565b600081359050610a3981610e8a565b92915050565b600081519050610a4e81610ea1565b92915050565b600081359050610a6381610eb8565b92915050565b600060208284031215610a7f57610a7e610e0d565b5b6000610a8d84828501610a2a565b91505092915050565b600080600060608486031215610aaf57610aae610e0d565b5b6000610abd86828701610a2a565b9350506020610ace86828701610a2a565b9250506040610adf86828701610a2a565b9150509250925092565b60008060008060808587031215610b0357610b02610e0d565b5b6000610b1187828801610a2a565b9450506020610b2287828801610a2a565b9350506040610b3387828801610a54565b9250506060610b4487828801610a2a565b91505092959194509250565b600080600080600060a08688031215610b6c57610b6b610e0d565b5b6000610b7a88828901610a2a565b9550506020610b8b88828901610a2a565b9450506040610b9c88828901610a54565b9350506060610bad88828901610a2a565b9250506080610bbe88828901610a2a565b9150509295509295909350565b600060208284031215610be157610be0610e0d565b5b6000610bef84828501610a3f565b91505092915050565b610c0181610d96565b82525050565b6000610c14602683610cfb565b9150610c1f82610e12565b604082019050919050565b6000610c37602083610cfb565b9150610c4282610e61565b602082019050919050565b610c5681610dd4565b82525050565b6000602082019050610c716000830184610bf8565b92915050565b6000604082019050610c8c6000830185610bf8565b610c996020830184610c4d565b9392505050565b60006020820190508181036000830152610cb981610c07565b9050919050565b60006020820190508181036000830152610cd981610c2a565b9050919050565b6000602082019050610cf56000830184610c4d565b92915050565b600082825260208201905092915050565b6000610d1782610dd4565b9150610d2283610dd4565b9250827fffffffffffffffffffffffffffffffffffffffffffffffffffffffffffffffff03821115610d5757610d56610dde565b5b828201905092915050565b6000610d6d82610dd4565b9150610d7883610dd4565b925082821015610d8b57610d8a610dde565b5b828203905092915050565b6000610da182610db4565b9050919050565b60008115159050919050565b600073ffffffffffffffffffffffffffffffffffffffff82169050919050565b6000819050919050565b7f4e487b7100000000000000000000000000000000000000000000000000000000600052601160045260246000fd5b600080fd5b7f4f776e61626c653a206e6577206f776e657220697320746865207a65726f206160008201527f6464726573730000000000000000000000000000000000000000000000000000602082015250565b7f4f776e61626c653a2063616c6c6572206973206e6f7420746865206f776e6572600082015250565b610e9381610d96565b8114610e9e57600080fd5b50565b610eaa81610da8565b8114610eb557600080fd5b50565b610ec181610dd4565b8114610ecc57600080fd5b5056fea2646970667358221220aba255f74601455e1deeb4c635fcb3d2d467de5856a5fdedaa0521eee121f69264736f6c63430008070033a2646970667358221220ca7d423aeb5050075e37013c7028dc0e9cac7c4193f01ab414c36670fce3991864736f6c63430008070033",
  "linkReferences": {},
  "deployedLinkReferences": {}
}