{
  "_format": "hh-sol-artifact-1",
  "contractName": "Mixer",
  "sourceName": "contracts/Mixer.sol",
  "abi": [
    {
      "inputs": [],
      "stateMutability": "nonpayable",
      "type": "constructor"
    },
    {
      "anonymous": false,
      "inputs": [
        {
          "indexed": false,
          "internalType": "address",
          "name": "",
          "type": "address"
        }
      ],
      "name": "NewInnerContractCreated",
      "type": "event"
    },
    {
      "anonymous": false,
      "inputs": [
        {
          "indexed": true,
          "internalType": "address",
          "name": "previousOwner",
          "type": "address"
        },
        {
          "indexed": true,
          "internalType": "address",
          "name": "newOwner",
          "type": "address"
        }
      ],
      "name": "OwnershipTransferred",
      "type": "event"
    },
    {
      "inputs": [
        {
          "internalType": "address",
          "name": "",
          "type": "address"
        }
      ],
      "name": "addressDeposits",
      "outputs": [
        {
          "internalType": "uint8",
          "name": "",
          "type": "uint8"
        }
      ],
      "stateMutability": "view",
      "type": "function"
    },
    {
      "inputs": [],
      "name": "currentContract",
      "outputs": [
        {
          "internalType": "address payable",
          "name": "",
          "type": "address"
        }
      ],
      "stateMutability": "view",
      "type": "function"
    },
    {
      "inputs": [
        {
          "internalType": "address",
          "name": "_erc20Addr",
          "type": "address"
        },
        {
          "internalType": "uint256",
          "name": "_numberOfTokens",
          "type": "uint256"
        },
        {
          "internalType": "address",
          "name": "_to",
          "type": "address"
        }
      ],
      "name": "depositTokens",
      "outputs": [],
      "stateMutability": "payable",
      "type": "function"
    },
    {
      "inputs": [],
      "name": "getCurrentContract",
      "outputs": [
        {
          "internalType": "address",
          "name": "",
          "type": "address"
        }
      ],
      "stateMutability": "view",
      "type": "function"
    },
    {
      "inputs": [],
      "name": "owner",
      "outputs": [
        {
          "internalType": "address",
          "name": "",
          "type": "address"
        }
      ],
      "stateMutability": "view",
      "type": "function"
    },
    {
      "inputs": [],
      "name": "renounceOwnership",
      "outputs": [],
      "stateMutability": "nonpayable",
      "type": "function"
    },
    {
      "inputs": [
        {
          "internalType": "address",
          "name": "newOwner",
          "type": "address"
        }
      ],
      "name": "transferOwnership",
      "outputs": [],
      "stateMutability": "nonpayable",
      "type": "function"
    },
    {
      "inputs": [
        {
          "internalType": "address",
          "name": "_contractAddress",
          "type": "address"
        },
        {
          "internalType": "address",
          "name": "_erc20Addr",
          "type": "address"
        },
        {
          "internalType": "uint256",
          "name": "_numberOfTokens",
          "type": "uint256"
        },
        {
          "internalType": "address",
          "name": "_from",
          "type": "address"
        }
      ],
      "name": "withdraw",
      "outputs": [],
      "stateMutability": "nonpayable",
      "type": "function"
    },
    {
      "stateMutability": "payable",
      "type": "receive"
    }
  ],
  "bytecode": "0x60806040523480156200001157600080fd5b5062000032620000266200004960201b60201c565b6200005160201b60201c565b620000426200011560201b60201c565b506200029e565b600033905090565b60008060009054906101000a900473ffffffffffffffffffffffffffffffffffffffff169050816000806101000a81548173ffffffffffffffffffffffffffffffffffffffff021916908373ffffffffffffffffffffffffffffffffffffffff1602179055508173ffffffffffffffffffffffffffffffffffffffff168173ffffffffffffffffffffffffffffffffffffffff167f8be0079c531659141344cd1fd0a4f28419497f9722a3daafe3b4186f6b6457e060405160405180910390a35050565b6000604051620001259062000206565b604051809103906000f08015801562000142573d6000803e3d6000fd5b50600260006101000a81548173ffffffffffffffffffffffffffffffffffffffff021916908373ffffffffffffffffffffffffffffffffffffffff1602179055507fff930b9a7b49209e6e4aaca7250915fa46f36a097caed9bc228fb268db60f770600260009054906101000a900473ffffffffffffffffffffffffffffffffffffffff16604051620001d6919062000225565b60405180910390a1600260009054906101000a900473ffffffffffffffffffffffffffffffffffffffff16905090565b610c7e8062001ebe83390190565b6200021f8162000262565b82525050565b60006020820190506200023c600083018462000214565b92915050565b600073ffffffffffffffffffffffffffffffffffffffff82169050919050565b60006200026f8262000276565b9050919050565b600062000283826200028a565b9050919050565b6000620002978262000242565b9050919050565b611c1080620002ae6000396000f3fe60806040526004361061007f5760003560e01c80638da5cb5b1161004e5780638da5cb5b14610115578063ec634f7714610140578063f072476e1461016b578063f2fde38b146101a857610089565b80630e917f761461008e578063298e4f79146100b7578063715018a6146100d3578063721d7d8e146100ea57610089565b3661008957600080fd5b600080fd5b34801561009a57600080fd5b506100b560048036038101906100b09190610a46565b6101d1565b005b6100d160048036038101906100cc9190610aad565b610248565b005b3480156100df57600080fd5b506100e8610665565b005b3480156100f657600080fd5b506100ff610679565b60405161010c9190610c17565b60405180910390f35b34801561012157600080fd5b5061012a61069f565b6040516101379190610be1565b60405180910390f35b34801561014c57600080fd5b506101556106c8565b6040516101629190610be1565b60405180910390f35b34801561017757600080fd5b50610192600480360381019061018d9190610a19565b6106f2565b60405161019f9190610d0e565b60405180910390f35b3480156101b457600080fd5b506101cf60048036038101906101ca9190610a19565b610712565b005b8373ffffffffffffffffffffffffffffffffffffffff16630e917f76828585336040518563ffffffff1660e01b81526004016102109493929190610c69565b600060405180830381600087803b15801561022a57600080fd5b505af115801561023e573d6000803e3d6000fd5b5050505050505050565b662386f26fc10000341015610292576040517f08c379a000000000000000000000000000000000000000000000000000000000815260040161028990610cce565b60405180910390fd5b601e60016000600260009054906101000a900473ffffffffffffffffffffffffffffffffffffffff1673ffffffffffffffffffffffffffffffffffffffff1673ffffffffffffffffffffffffffffffffffffffff16815260200190815260200160002060009054906101000a900460ff1660ff16141561031657610314610796565b505b600073ffffffffffffffffffffffffffffffffffffffff168373ffffffffffffffffffffffffffffffffffffffff16141561047757600260009054906101000a900473ffffffffffffffffffffffffffffffffffffffff1673ffffffffffffffffffffffffffffffffffffffff166108fc662386f26fc100003461039a9190610d71565b9081150290604051600060405180830381858888f193505050501580156103c5573d6000803e3d6000fd5b50600260009054906101000a900473ffffffffffffffffffffffffffffffffffffffff1673ffffffffffffffffffffffffffffffffffffffff1663b1d1ec1961040c610882565b85662386f26fc10000346104209190610d71565b856040518563ffffffff1660e01b81526004016104409493929190610c69565b600060405180830381600087803b15801561045a57600080fd5b505af115801561046e573d6000803e3d6000fd5b505050506105cb565b8273ffffffffffffffffffffffffffffffffffffffff166323b872dd61049b610882565b600260009054906101000a900473ffffffffffffffffffffffffffffffffffffffff16856040518463ffffffff1660e01b81526004016104dd93929190610c32565b602060405180830381600087803b1580156104f757600080fd5b505af115801561050b573d6000803e3d6000fd5b505050506040513d601f19601f8201168201806040525081019061052f9190610b00565b50600260009054906101000a900473ffffffffffffffffffffffffffffffffffffffff1673ffffffffffffffffffffffffffffffffffffffff1663b1d1ec19610576610882565b8585856040518563ffffffff1660e01b81526004016105989493929190610c69565b600060405180830381600087803b1580156105b257600080fd5b505af11580156105c6573d6000803e3d6000fd5b505050505b6001806000600260009054906101000a900473ffffffffffffffffffffffffffffffffffffffff1673ffffffffffffffffffffffffffffffffffffffff1673ffffffffffffffffffffffffffffffffffffffff16815260200190815260200160002060008282829054906101000a900460ff166106489190610d3a565b92506101000a81548160ff021916908360ff160217905550505050565b61066d61088a565b6106776000610908565b565b600260009054906101000a900473ffffffffffffffffffffffffffffffffffffffff1681565b60008060009054906101000a900473ffffffffffffffffffffffffffffffffffffffff16905090565b6000600260009054906101000a900473ffffffffffffffffffffffffffffffffffffffff16905090565b60016020528060005260406000206000915054906101000a900460ff1681565b61071a61088a565b600073ffffffffffffffffffffffffffffffffffffffff168173ffffffffffffffffffffffffffffffffffffffff16141561078a576040517f08c379a000000000000000000000000000000000000000000000000000000000815260040161078190610cae565b60405180910390fd5b61079381610908565b50565b60006040516107a4906109cc565b604051809103906000f0801580156107c0573d6000803e3d6000fd5b50600260006101000a81548173ffffffffffffffffffffffffffffffffffffffff021916908373ffffffffffffffffffffffffffffffffffffffff1602179055507fff930b9a7b49209e6e4aaca7250915fa46f36a097caed9bc228fb268db60f770600260009054906101000a900473ffffffffffffffffffffffffffffffffffffffff166040516108529190610bfc565b60405180910390a1600260009054906101000a900473ffffffffffffffffffffffffffffffffffffffff16905090565b600033905090565b610892610882565b73ffffffffffffffffffffffffffffffffffffffff166108b061069f565b73ffffffffffffffffffffffffffffffffffffffff1614610906576040517f08c379a00000000000000000000000000000000000000000000000000000000081526004016108fd90610cee565b60405180910390fd5b565b60008060009054906101000a900473ffffffffffffffffffffffffffffffffffffffff169050816000806101000a81548173ffffffffffffffffffffffffffffffffffffffff021916908373ffffffffffffffffffffffffffffffffffffffff1602179055508173ffffffffffffffffffffffffffffffffffffffff168173ffffffffffffffffffffffffffffffffffffffff167f8be0079c531659141344cd1fd0a4f28419497f9722a3daafe3b4186f6b6457e060405160405180910390a35050565b610c7e8062000f5d83390190565b6000813590506109e981610f17565b92915050565b6000815190506109fe81610f2e565b92915050565b600081359050610a1381610f45565b92915050565b600060208284031215610a2f57610a2e610e71565b5b6000610a3d848285016109da565b91505092915050565b60008060008060808587031215610a6057610a5f610e71565b5b6000610a6e878288016109da565b9450506020610a7f878288016109da565b9350506040610a9087828801610a04565b9250506060610aa1878288016109da565b91505092959194509250565b600080600060608486031215610ac657610ac5610e71565b5b6000610ad4868287016109da565b9350506020610ae586828701610a04565b9250506040610af6868287016109da565b9150509250925092565b600060208284031215610b1657610b15610e71565b5b6000610b24848285016109ef565b91505092915050565b610b3681610e0c565b82525050565b610b4581610db7565b82525050565b610b5481610da5565b82525050565b6000610b67602683610d29565b9150610b7282610e76565b604082019050919050565b6000610b8a602083610d29565b9150610b9582610ec5565b602082019050919050565b6000610bad602083610d29565b9150610bb882610eee565b602082019050919050565b610bcc81610df5565b82525050565b610bdb81610dff565b82525050565b6000602082019050610bf66000830184610b4b565b92915050565b6000602082019050610c116000830184610b2d565b92915050565b6000602082019050610c2c6000830184610b3c565b92915050565b6000606082019050610c476000830186610b4b565b610c546020830185610b2d565b610c616040830184610bc3565b949350505050565b6000608082019050610c7e6000830187610b4b565b610c8b6020830186610b4b565b610c986040830185610bc3565b610ca56060830184610b4b565b95945050505050565b60006020820190508181036000830152610cc781610b5a565b9050919050565b60006020820190508181036000830152610ce781610b7d565b9050919050565b60006020820190508181036000830152610d0781610ba0565b9050919050565b6000602082019050610d236000830184610bd2565b92915050565b600082825260208201905092915050565b6000610d4582610dff565b9150610d5083610dff565b92508260ff03821115610d6657610d65610e42565b5b828201905092915050565b6000610d7c82610df5565b9150610d8783610df5565b925082821015610d9a57610d99610e42565b5b828203905092915050565b6000610db082610dd5565b9050919050565b6000610dc282610dd5565b9050919050565b60008115159050919050565b600073ffffffffffffffffffffffffffffffffffffffff82169050919050565b6000819050919050565b600060ff82169050919050565b6000610e1782610e1e565b9050919050565b6000610e2982610e30565b9050919050565b6000610e3b82610dd5565b9050919050565b7f4e487b7100000000000000000000000000000000000000000000000000000000600052601160045260246000fd5b600080fd5b7f4f776e61626c653a206e6577206f776e657220697320746865207a65726f206160008201527f6464726573730000000000000000000000000000000000000000000000000000602082015250565b7f4d697865723a2046656520746f20636f6e7472616374206e6f742073656e7421600082015250565b7f4f776e61626c653a2063616c6c6572206973206e6f7420746865206f776e6572600082015250565b610f2081610da5565b8114610f2b57600080fd5b50565b610f3781610dc9565b8114610f4257600080fd5b50565b610f4e81610df5565b8114610f5957600080fd5b5056fe608060405234801561001057600080fd5b5061002d61002261003260201b60201c565b61003a60201b60201c565b6100fe565b600033905090565b60008060009054906101000a900473ffffffffffffffffffffffffffffffffffffffff169050816000806101000a81548173ffffffffffffffffffffffffffffffffffffffff021916908373ffffffffffffffffffffffffffffffffffffffff1602179055508173ffffffffffffffffffffffffffffffffffffffff168173ffffffffffffffffffffffffffffffffffffffff167f8be0079c531659141344cd1fd0a4f28419497f9722a3daafe3b4186f6b6457e060405160405180910390a35050565b610b718061010d6000396000f3fe6080604052600436106100745760003560e01c8063b1d1ec191161004e578063b1d1ec19146100eb578063c23f001f14610114578063cb79935814610151578063f2fde38b1461018e5761007b565b80630e917f7614610080578063715018a6146100a95780638da5cb5b146100c05761007b565b3661007b57005b600080fd5b34801561008c57600080fd5b506100a760048036038101906100a29190610889565b6101b7565b005b3480156100b557600080fd5b506100be610429565b005b3480156100cc57600080fd5b506100d561043d565b6040516100e29190610981565b60405180910390f35b3480156100f757600080fd5b50610112600480360381019061010d9190610889565b610466565b005b34801561012057600080fd5b5061013b60048036038101906101369190610849565b6105a8565b6040516101489190610a05565b60405180910390f35b34801561015d57600080fd5b5061017860048036038101906101739190610849565b6105cd565b6040516101859190610981565b60405180910390f35b34801561019a57600080fd5b506101b560048036038101906101b0919061081c565b61060f565b005b81600160008673ffffffffffffffffffffffffffffffffffffffff1673ffffffffffffffffffffffffffffffffffffffff16815260200190815260200160002060008573ffffffffffffffffffffffffffffffffffffffff1673ffffffffffffffffffffffffffffffffffffffff168152602001908152602001600020541461023f57600080fd5b8073ffffffffffffffffffffffffffffffffffffffff16600260008673ffffffffffffffffffffffffffffffffffffffff1673ffffffffffffffffffffffffffffffffffffffff16815260200190815260200160002060008573ffffffffffffffffffffffffffffffffffffffff1673ffffffffffffffffffffffffffffffffffffffff16815260200190815260200160002060009054906101000a900473ffffffffffffffffffffffffffffffffffffffff1673ffffffffffffffffffffffffffffffffffffffff161461031357600080fd5b600073ffffffffffffffffffffffffffffffffffffffff168373ffffffffffffffffffffffffffffffffffffffff161415610394578073ffffffffffffffffffffffffffffffffffffffff166108fc839081150290604051600060405180830381858888f1935050505015801561038e573d6000803e3d6000fd5b50610423565b8273ffffffffffffffffffffffffffffffffffffffff1663a9059cbb82846040518363ffffffff1660e01b81526004016103cf92919061099c565b602060405180830381600087803b1580156103e957600080fd5b505af11580156103fd573d6000803e3d6000fd5b505050506040513d601f19601f8201168201806040525081019061042191906108f0565b505b50505050565b610431610693565b61043b6000610711565b565b60008060009054906101000a900473ffffffffffffffffffffffffffffffffffffffff16905090565b81600160008673ffffffffffffffffffffffffffffffffffffffff1673ffffffffffffffffffffffffffffffffffffffff16815260200190815260200160002060008573ffffffffffffffffffffffffffffffffffffffff1673ffffffffffffffffffffffffffffffffffffffff1681526020019081526020016000208190555080600260008673ffffffffffffffffffffffffffffffffffffffff1673ffffffffffffffffffffffffffffffffffffffff16815260200190815260200160002060008573ffffffffffffffffffffffffffffffffffffffff1673ffffffffffffffffffffffffffffffffffffffff16815260200190815260200160002060006101000a81548173ffffffffffffffffffffffffffffffffffffffff021916908373ffffffffffffffffffffffffffffffffffffffff16021790555050505050565b6001602052816000526040600020602052806000526040600020600091509150505481565b60026020528160005260406000206020528060005260406000206000915091509054906101000a900473ffffffffffffffffffffffffffffffffffffffff1681565b610617610693565b600073ffffffffffffffffffffffffffffffffffffffff168173ffffffffffffffffffffffffffffffffffffffff161415610687576040517f08c379a000000000000000000000000000000000000000000000000000000000815260040161067e906109c5565b60405180910390fd5b61069081610711565b50565b61069b6107d5565b73ffffffffffffffffffffffffffffffffffffffff166106b961043d565b73ffffffffffffffffffffffffffffffffffffffff161461070f576040517f08c379a0000000000000000000000000000000000000000000000000000000008152600401610706906109e5565b60405180910390fd5b565b60008060009054906101000a900473ffffffffffffffffffffffffffffffffffffffff169050816000806101000a81548173ffffffffffffffffffffffffffffffffffffffff021916908373ffffffffffffffffffffffffffffffffffffffff1602179055508173ffffffffffffffffffffffffffffffffffffffff168173ffffffffffffffffffffffffffffffffffffffff167f8be0079c531659141344cd1fd0a4f28419497f9722a3daafe3b4186f6b6457e060405160405180910390a35050565b600033905090565b6000813590506107ec81610af6565b92915050565b60008151905061080181610b0d565b92915050565b60008135905061081681610b24565b92915050565b60006020828403121561083257610831610a79565b5b6000610840848285016107dd565b91505092915050565b600080604083850312156108605761085f610a79565b5b600061086e858286016107dd565b925050602061087f858286016107dd565b9150509250929050565b600080600080608085870312156108a3576108a2610a79565b5b60006108b1878288016107dd565b94505060206108c2878288016107dd565b93505060406108d387828801610807565b92505060606108e4878288016107dd565b91505092959194509250565b60006020828403121561090657610905610a79565b5b6000610914848285016107f2565b91505092915050565b61092681610a31565b82525050565b6000610939602683610a20565b915061094482610a7e565b604082019050919050565b600061095c602083610a20565b915061096782610acd565b602082019050919050565b61097b81610a6f565b82525050565b6000602082019050610996600083018461091d565b92915050565b60006040820190506109b1600083018561091d565b6109be6020830184610972565b9392505050565b600060208201905081810360008301526109de8161092c565b9050919050565b600060208201905081810360008301526109fe8161094f565b9050919050565b6000602082019050610a1a6000830184610972565b92915050565b600082825260208201905092915050565b6000610a3c82610a4f565b9050919050565b60008115159050919050565b600073ffffffffffffffffffffffffffffffffffffffff82169050919050565b6000819050919050565b600080fd5b7f4f776e61626c653a206e6577206f776e657220697320746865207a65726f206160008201527f6464726573730000000000000000000000000000000000000000000000000000602082015250565b7f4f776e61626c653a2063616c6c6572206973206e6f7420746865206f776e6572600082015250565b610aff81610a31565b8114610b0a57600080fd5b50565b610b1681610a43565b8114610b2157600080fd5b50565b610b2d81610a6f565b8114610b3857600080fd5b5056fea2646970667358221220e849c744126a9be22ca7eaaa7dd76cb537a7134ba45a2d747fe37ae7c0d67f3564736f6c63430008070033a26469706673582212206aa6d613322e653398349df4505683a62ea9e808a49e3beeb39adf00c531e6f064736f6c63430008070033608060405234801561001057600080fd5b5061002d61002261003260201b60201c565b61003a60201b60201c565b6100fe565b600033905090565b60008060009054906101000a900473ffffffffffffffffffffffffffffffffffffffff169050816000806101000a81548173ffffffffffffffffffffffffffffffffffffffff021916908373ffffffffffffffffffffffffffffffffffffffff1602179055508173ffffffffffffffffffffffffffffffffffffffff168173ffffffffffffffffffffffffffffffffffffffff167f8be0079c531659141344cd1fd0a4f28419497f9722a3daafe3b4186f6b6457e060405160405180910390a35050565b610b718061010d6000396000f3fe6080604052600436106100745760003560e01c8063b1d1ec191161004e578063b1d1ec19146100eb578063c23f001f14610114578063cb79935814610151578063f2fde38b1461018e5761007b565b80630e917f7614610080578063715018a6146100a95780638da5cb5b146100c05761007b565b3661007b57005b600080fd5b34801561008c57600080fd5b506100a760048036038101906100a29190610889565b6101b7565b005b3480156100b557600080fd5b506100be610429565b005b3480156100cc57600080fd5b506100d561043d565b6040516100e29190610981565b60405180910390f35b3480156100f757600080fd5b50610112600480360381019061010d9190610889565b610466565b005b34801561012057600080fd5b5061013b60048036038101906101369190610849565b6105a8565b6040516101489190610a05565b60405180910390f35b34801561015d57600080fd5b5061017860048036038101906101739190610849565b6105cd565b6040516101859190610981565b60405180910390f35b34801561019a57600080fd5b506101b560048036038101906101b0919061081c565b61060f565b005b81600160008673ffffffffffffffffffffffffffffffffffffffff1673ffffffffffffffffffffffffffffffffffffffff16815260200190815260200160002060008573ffffffffffffffffffffffffffffffffffffffff1673ffffffffffffffffffffffffffffffffffffffff168152602001908152602001600020541461023f57600080fd5b8073ffffffffffffffffffffffffffffffffffffffff16600260008673ffffffffffffffffffffffffffffffffffffffff1673ffffffffffffffffffffffffffffffffffffffff16815260200190815260200160002060008573ffffffffffffffffffffffffffffffffffffffff1673ffffffffffffffffffffffffffffffffffffffff16815260200190815260200160002060009054906101000a900473ffffffffffffffffffffffffffffffffffffffff1673ffffffffffffffffffffffffffffffffffffffff161461031357600080fd5b600073ffffffffffffffffffffffffffffffffffffffff168373ffffffffffffffffffffffffffffffffffffffff161415610394578073ffffffffffffffffffffffffffffffffffffffff166108fc839081150290604051600060405180830381858888f1935050505015801561038e573d6000803e3d6000fd5b50610423565b8273ffffffffffffffffffffffffffffffffffffffff1663a9059cbb82846040518363ffffffff1660e01b81526004016103cf92919061099c565b602060405180830381600087803b1580156103e957600080fd5b505af11580156103fd573d6000803e3d6000fd5b505050506040513d601f19601f8201168201806040525081019061042191906108f0565b505b50505050565b610431610693565b61043b6000610711565b565b60008060009054906101000a900473ffffffffffffffffffffffffffffffffffffffff16905090565b81600160008673ffffffffffffffffffffffffffffffffffffffff1673ffffffffffffffffffffffffffffffffffffffff16815260200190815260200160002060008573ffffffffffffffffffffffffffffffffffffffff1673ffffffffffffffffffffffffffffffffffffffff1681526020019081526020016000208190555080600260008673ffffffffffffffffffffffffffffffffffffffff1673ffffffffffffffffffffffffffffffffffffffff16815260200190815260200160002060008573ffffffffffffffffffffffffffffffffffffffff1673ffffffffffffffffffffffffffffffffffffffff16815260200190815260200160002060006101000a81548173ffffffffffffffffffffffffffffffffffffffff021916908373ffffffffffffffffffffffffffffffffffffffff16021790555050505050565b6001602052816000526040600020602052806000526040600020600091509150505481565b60026020528160005260406000206020528060005260406000206000915091509054906101000a900473ffffffffffffffffffffffffffffffffffffffff1681565b610617610693565b600073ffffffffffffffffffffffffffffffffffffffff168173ffffffffffffffffffffffffffffffffffffffff161415610687576040517f08c379a000000000000000000000000000000000000000000000000000000000815260040161067e906109c5565b60405180910390fd5b61069081610711565b50565b61069b6107d5565b73ffffffffffffffffffffffffffffffffffffffff166106b961043d565b73ffffffffffffffffffffffffffffffffffffffff161461070f576040517f08c379a0000000000000000000000000000000000000000000000000000000008152600401610706906109e5565b60405180910390fd5b565b60008060009054906101000a900473ffffffffffffffffffffffffffffffffffffffff169050816000806101000a81548173ffffffffffffffffffffffffffffffffffffffff021916908373ffffffffffffffffffffffffffffffffffffffff1602179055508173ffffffffffffffffffffffffffffffffffffffff168173ffffffffffffffffffffffffffffffffffffffff167f8be0079c531659141344cd1fd0a4f28419497f9722a3daafe3b4186f6b6457e060405160405180910390a35050565b600033905090565b6000813590506107ec81610af6565b92915050565b60008151905061080181610b0d565b92915050565b60008135905061081681610b24565b92915050565b60006020828403121561083257610831610a79565b5b6000610840848285016107dd565b91505092915050565b600080604083850312156108605761085f610a79565b5b600061086e858286016107dd565b925050602061087f858286016107dd565b9150509250929050565b600080600080608085870312156108a3576108a2610a79565b5b60006108b1878288016107dd565b94505060206108c2878288016107dd565b93505060406108d387828801610807565b92505060606108e4878288016107dd565b91505092959194509250565b60006020828403121561090657610905610a79565b5b6000610914848285016107f2565b91505092915050565b61092681610a31565b82525050565b6000610939602683610a20565b915061094482610a7e565b604082019050919050565b600061095c602083610a20565b915061096782610acd565b602082019050919050565b61097b81610a6f565b82525050565b6000602082019050610996600083018461091d565b92915050565b60006040820190506109b1600083018561091d565b6109be6020830184610972565b9392505050565b600060208201905081810360008301526109de8161092c565b9050919050565b600060208201905081810360008301526109fe8161094f565b9050919050565b6000602082019050610a1a6000830184610972565b92915050565b600082825260208201905092915050565b6000610a3c82610a4f565b9050919050565b60008115159050919050565b600073ffffffffffffffffffffffffffffffffffffffff82169050919050565b6000819050919050565b600080fd5b7f4f776e61626c653a206e6577206f776e657220697320746865207a65726f206160008201527f6464726573730000000000000000000000000000000000000000000000000000602082015250565b7f4f776e61626c653a2063616c6c6572206973206e6f7420746865206f776e6572600082015250565b610aff81610a31565b8114610b0a57600080fd5b50565b610b1681610a43565b8114610b2157600080fd5b50565b610b2d81610a6f565b8114610b3857600080fd5b5056fea2646970667358221220e849c744126a9be22ca7eaaa7dd76cb537a7134ba45a2d747fe37ae7c0d67f3564736f6c63430008070033",
  "linkReferences": {},
  "deployedLinkReferences": {}
}