{
  "_format": "hh-sol-artifact-1",
  "contractName": "Mixer",
  "sourceName": "contracts/Mixer.sol",
  "abi": [
    {
      "anonymous": false,
      "inputs": [
        {
          "indexed": false,
          "internalType": "uint8",
          "name": "version",
          "type": "uint8"
        }
      ],
      "name": "Initialized",
      "type": "event"
    },
    {
      "anonymous": false,
      "inputs": [
        {
          "indexed": false,
          "internalType": "address",
          "name": "",
          "type": "address"
        }
      ],
      "name": "NewInnerContractCreated",
      "type": "event"
    },
    {
      "anonymous": false,
      "inputs": [
        {
          "indexed": true,
          "internalType": "address",
          "name": "previousOwner",
          "type": "address"
        },
        {
          "indexed": true,
          "internalType": "address",
          "name": "newOwner",
          "type": "address"
        }
      ],
      "name": "OwnershipTransferred",
      "type": "event"
    },
    {
      "inputs": [
        {
          "internalType": "address",
          "name": "",
          "type": "address"
        }
      ],
      "name": "addressDeposits",
      "outputs": [
        {
          "internalType": "uint8",
          "name": "",
          "type": "uint8"
        }
      ],
      "stateMutability": "view",
      "type": "function"
    },
    {
      "inputs": [],
      "name": "currentContract",
      "outputs": [
        {
          "internalType": "address payable",
          "name": "",
          "type": "address"
        }
      ],
      "stateMutability": "view",
      "type": "function"
    },
    {
      "inputs": [
        {
          "internalType": "address",
          "name": "_erc20Addr",
          "type": "address"
        },
        {
          "internalType": "uint256",
          "name": "_numberOfTokens",
          "type": "uint256"
        },
        {
          "internalType": "address",
          "name": "_to",
          "type": "address"
        }
      ],
      "name": "depositTokens",
      "outputs": [],
      "stateMutability": "payable",
      "type": "function"
    },
    {
      "inputs": [],
      "name": "getCurrentContract",
      "outputs": [
        {
          "internalType": "address",
          "name": "",
          "type": "address"
        }
      ],
      "stateMutability": "view",
      "type": "function"
    },
    {
      "inputs": [],
      "name": "getOwnerOfInner",
      "outputs": [
        {
          "internalType": "address",
          "name": "",
          "type": "address"
        }
      ],
      "stateMutability": "view",
      "type": "function"
    },
    {
      "inputs": [],
      "name": "initialize",
      "outputs": [],
      "stateMutability": "nonpayable",
      "type": "function"
    },
    {
      "inputs": [],
      "name": "owner",
      "outputs": [
        {
          "internalType": "address",
          "name": "",
          "type": "address"
        }
      ],
      "stateMutability": "view",
      "type": "function"
    },
    {
      "inputs": [],
      "name": "renounceOwnership",
      "outputs": [],
      "stateMutability": "nonpayable",
      "type": "function"
    },
    {
      "inputs": [
        {
          "internalType": "address",
          "name": "newOwner",
          "type": "address"
        }
      ],
      "name": "transferOwnership",
      "outputs": [],
      "stateMutability": "nonpayable",
      "type": "function"
    },
    {
      "inputs": [
        {
          "internalType": "address",
          "name": "_contractAddress",
          "type": "address"
        },
        {
          "internalType": "address",
          "name": "_erc20Addr",
          "type": "address"
        },
        {
          "internalType": "uint256",
          "name": "_numberOfTokens",
          "type": "uint256"
        },
        {
          "internalType": "address",
          "name": "_from",
          "type": "address"
        },
        {
          "internalType": "address",
          "name": "_to",
          "type": "address"
        }
      ],
      "name": "withdraw",
      "outputs": [],
      "stateMutability": "nonpayable",
      "type": "function"
    },
    {
      "inputs": [
        {
          "internalType": "address",
          "name": "_to",
          "type": "address"
        }
      ],
      "name": "withdrawFee",
      "outputs": [],
      "stateMutability": "nonpayable",
      "type": "function"
    },
    {
      "inputs": [
        {
          "internalType": "address",
          "name": "_contractAddress",
          "type": "address"
        },
        {
          "internalType": "address",
          "name": "_erc20Addr",
          "type": "address"
        },
        {
          "internalType": "uint256",
          "name": "_numberOfTokens",
          "type": "uint256"
        },
        {
          "internalType": "address",
          "name": "_from",
          "type": "address"
        },
        {
          "internalType": "address",
          "name": "_to",
          "type": "address"
        }
      ],
      "name": "withdrawForCeX",
      "outputs": [],
      "stateMutability": "nonpayable",
      "type": "function"
    },
    {
      "inputs": [
        {
          "internalType": "address",
          "name": "_contractAddress",
          "type": "address"
        },
        {
          "internalType": "address",
          "name": "_erc20Addr",
          "type": "address"
        },
        {
          "internalType": "uint256",
          "name": "_numberOfTokens",
          "type": "uint256"
        },
        {
          "internalType": "address",
          "name": "_from",
          "type": "address"
        },
        {
          "internalType": "address",
          "name": "_to",
          "type": "address"
        }
      ],
      "name": "withdrawForCompliance",
      "outputs": [],
      "stateMutability": "nonpayable",
      "type": "function"
    },
    {
      "stateMutability": "payable",
      "type": "receive"
    }
  ],
  "bytecode": "0x608060405234801561001057600080fd5b5061322c806100206000396000f3fe6080604052600436106100c65760003560e01c8063721d7d8e1161007f578063aff3c1a511610059578063aff3c1a51461021b578063ec634f7714610244578063f072476e1461026f578063f2fde38b146102ac576100d0565b8063721d7d8e146101ae5780638129fc1c146101d95780638da5cb5b146101f0576100d0565b8063035bedfe146100d55780631ac3ddeb14610100578063298e4f791461012957806331d7d65014610145578063549ee5b81461016e578063715018a614610197576100d0565b366100d057600080fd5b600080fd5b3480156100e157600080fd5b506100ea6102d5565b6040516100f791906115f0565b60405180910390f35b34801561010c57600080fd5b50610127600480360381019061012291906112fc565b61037c565b005b610143600480360381019061013e91906113d1565b6103ce565b005b34801561015157600080fd5b5061016c60048036038101906101679190611356565b610921565b005b34801561017a57600080fd5b5061019560048036038101906101909190611356565b6109aa565b005b3480156101a357600080fd5b506101ac610abb565b005b3480156101ba57600080fd5b506101c3610acf565b6040516101d09190611626565b60405180910390f35b3480156101e557600080fd5b506101ee610af5565b005b3480156101fc57600080fd5b50610205610c3c565b60405161021291906115f0565b60405180910390f35b34801561022757600080fd5b50610242600480360381019061023d9190611356565b610c66565b005b34801561025057600080fd5b50610259610e21565b60405161026691906115f0565b60405180910390f35b34801561027b57600080fd5b50610296600480360381019061029191906112fc565b610e4b565b6040516102a39190611854565b60405180910390f35b3480156102b857600080fd5b506102d360048036038101906102ce91906112fc565b610e6b565b005b6000606660009054906101000a900473ffffffffffffffffffffffffffffffffffffffff1673ffffffffffffffffffffffffffffffffffffffff16638da5cb5b6040518163ffffffff1660e01b815260040160206040518083038186803b15801561033f57600080fd5b505afa158015610353573d6000803e3d6000fd5b505050506040513d601f19601f820116820180604052508101906103779190611329565b905090565b610384610eef565b8073ffffffffffffffffffffffffffffffffffffffff166108fc479081150290604051600060405180830381858888f193505050501580156103ca573d6000803e3d6000fd5b5050565b655af3107a4000341015610417576040517f08c379a000000000000000000000000000000000000000000000000000000000815260040161040e90611774565b60405180910390fd5b600360656000606660009054906101000a900473ffffffffffffffffffffffffffffffffffffffff1673ffffffffffffffffffffffffffffffffffffffff1673ffffffffffffffffffffffffffffffffffffffff16815260200190815260200160002060009054906101000a900460ff1660ff16141561049b57610499610f6d565b505b600073ffffffffffffffffffffffffffffffffffffffff168373ffffffffffffffffffffffffffffffffffffffff16141561065557660110d9316ec000655af3107a4000346104ea91906118b7565b101561052b576040517f08c379a0000000000000000000000000000000000000000000000000000000008152600401610522906117d4565b60405180910390fd5b606660009054906101000a900473ffffffffffffffffffffffffffffffffffffffff1673ffffffffffffffffffffffffffffffffffffffff166108fc655af3107a40003461057991906118b7565b9081150290604051600060405180830381858888f193505050501580156105a4573d6000803e3d6000fd5b50606660009054906101000a900473ffffffffffffffffffffffffffffffffffffffff1673ffffffffffffffffffffffffffffffffffffffff1663b1d1ec196105eb6110db565b85655af3107a4000346105fe91906118b7565b856040518563ffffffff1660e01b815260040161061e94939291906116a1565b600060405180830381600087803b15801561063857600080fd5b505af115801561064c573d6000803e3d6000fd5b50505050610886565b68056bc75e2d631000008373ffffffffffffffffffffffffffffffffffffffff1663dd62ed3e6106836110db565b306040518363ffffffff1660e01b81526004016106a1929190611641565b60206040518083038186803b1580156106b957600080fd5b505afa1580156106cd573d6000803e3d6000fd5b505050506040513d601f19601f820116820180604052508101906106f19190611451565b1015610732576040517f08c379a0000000000000000000000000000000000000000000000000000000008152600401610729906117d4565b60405180910390fd5b8273ffffffffffffffffffffffffffffffffffffffff166323b872dd6107566110db565b606660009054906101000a900473ffffffffffffffffffffffffffffffffffffffff16856040518463ffffffff1660e01b81526004016107989392919061166a565b602060405180830381600087803b1580156107b257600080fd5b505af11580156107c6573d6000803e3d6000fd5b505050506040513d601f19601f820116820180604052508101906107ea9190611424565b50606660009054906101000a900473ffffffffffffffffffffffffffffffffffffffff1673ffffffffffffffffffffffffffffffffffffffff1663b1d1ec196108316110db565b8585856040518563ffffffff1660e01b815260040161085394939291906116a1565b600060405180830381600087803b15801561086d57600080fd5b505af1158015610881573d6000803e3d6000fd5b505050505b600160656000606660009054906101000a900473ffffffffffffffffffffffffffffffffffffffff1673ffffffffffffffffffffffffffffffffffffffff1673ffffffffffffffffffffffffffffffffffffffff16815260200190815260200160002060008282829054906101000a900460ff166109049190611880565b92506101000a81548160ff021916908360ff160217905550505050565b610929610eef565b8473ffffffffffffffffffffffffffffffffffffffff166331d7d65083868685610951610c3c565b6040518663ffffffff1660e01b81526004016109719594939291906116e6565b600060405180830381600087803b15801561098b57600080fd5b505af115801561099f573d6000803e3d6000fd5b505050505050505050565b6109b2610eef565b606660009054906101000a900473ffffffffffffffffffffffffffffffffffffffff1673ffffffffffffffffffffffffffffffffffffffff168573ffffffffffffffffffffffffffffffffffffffff161415610a43576040517f08c379a0000000000000000000000000000000000000000000000000000000008152600401610a3a90611794565b60405180910390fd5b8473ffffffffffffffffffffffffffffffffffffffff166353ba6007838686856040518563ffffffff1660e01b8152600401610a8294939291906116a1565b600060405180830381600087803b158015610a9c57600080fd5b505af1158015610ab0573d6000803e3d6000fd5b505050505050505050565b610ac3610eef565b610acd60006110e3565b565b606660009054906101000a900473ffffffffffffffffffffffffffffffffffffffff1681565b60008060019054906101000a900460ff16159050808015610b265750600160008054906101000a900460ff1660ff16105b80610b535750610b35306111a9565b158015610b525750600160008054906101000a900460ff1660ff16145b5b610b92576040517f08c379a0000000000000000000000000000000000000000000000000000000008152600401610b89906117b4565b60405180910390fd5b60016000806101000a81548160ff021916908360ff1602179055508015610bcf576001600060016101000a81548160ff0219169083151502179055505b610bd76111cc565b610bdf610f6d565b508015610c395760008060016101000a81548160ff0219169083151502179055507f7f26b83ff96e1f2b6a682f133852f6798a09c465da95921460cefb38474024986001604051610c309190611739565b60405180910390a15b50565b6000603360009054906101000a900473ffffffffffffffffffffffffffffffffffffffff16905090565b606660009054906101000a900473ffffffffffffffffffffffffffffffffffffffff1673ffffffffffffffffffffffffffffffffffffffff168573ffffffffffffffffffffffffffffffffffffffff161415610cf7576040517f08c379a0000000000000000000000000000000000000000000000000000000008152600401610cee90611794565b60405180910390fd5b8173ffffffffffffffffffffffffffffffffffffffff16610d166110db565b73ffffffffffffffffffffffffffffffffffffffff161480610d6a57508073ffffffffffffffffffffffffffffffffffffffff16610d526110db565b73ffffffffffffffffffffffffffffffffffffffff16145b610da9576040517f08c379a0000000000000000000000000000000000000000000000000000000008152600401610da090611814565b60405180910390fd5b8473ffffffffffffffffffffffffffffffffffffffff16630e917f76838686856040518563ffffffff1660e01b8152600401610de894939291906116a1565b600060405180830381600087803b158015610e0257600080fd5b505af1158015610e16573d6000803e3d6000fd5b505050505050505050565b6000606660009054906101000a900473ffffffffffffffffffffffffffffffffffffffff16905090565b60656020528060005260406000206000915054906101000a900460ff1681565b610e73610eef565b600073ffffffffffffffffffffffffffffffffffffffff168173ffffffffffffffffffffffffffffffffffffffff161415610ee3576040517f08c379a0000000000000000000000000000000000000000000000000000000008152600401610eda90611754565b60405180910390fd5b610eec816110e3565b50565b610ef76110db565b73ffffffffffffffffffffffffffffffffffffffff16610f15610c3c565b73ffffffffffffffffffffffffffffffffffffffff1614610f6b576040517f08c379a0000000000000000000000000000000000000000000000000000000008152600401610f62906117f4565b60405180910390fd5b565b6000604051610f7b90611286565b604051809103906000f080158015610f97573d6000803e3d6000fd5b50606660006101000a81548173ffffffffffffffffffffffffffffffffffffffff021916908373ffffffffffffffffffffffffffffffffffffffff1602179055507fff930b9a7b49209e6e4aaca7250915fa46f36a097caed9bc228fb268db60f770606660009054906101000a900473ffffffffffffffffffffffffffffffffffffffff16604051611029919061160b565b60405180910390a1606660009054906101000a900473ffffffffffffffffffffffffffffffffffffffff1673ffffffffffffffffffffffffffffffffffffffff16638129fc1c6040518163ffffffff1660e01b8152600401600060405180830381600087803b15801561109b57600080fd5b505af11580156110af573d6000803e3d6000fd5b50505050606660009054906101000a900473ffffffffffffffffffffffffffffffffffffffff16905090565b600033905090565b6000603360009054906101000a900473ffffffffffffffffffffffffffffffffffffffff16905081603360006101000a81548173ffffffffffffffffffffffffffffffffffffffff021916908373ffffffffffffffffffffffffffffffffffffffff1602179055508173ffffffffffffffffffffffffffffffffffffffff168173ffffffffffffffffffffffffffffffffffffffff167f8be0079c531659141344cd1fd0a4f28419497f9722a3daafe3b4186f6b6457e060405160405180910390a35050565b6000808273ffffffffffffffffffffffffffffffffffffffff163b119050919050565b600060019054906101000a900460ff1661121b576040517f08c379a000000000000000000000000000000000000000000000000000000000815260040161121290611834565b60405180910390fd5b611223611225565b565b600060019054906101000a900460ff16611274576040517f08c379a000000000000000000000000000000000000000000000000000000000815260040161126b90611834565b60405180910390fd5b61128461127f6110db565b6110e3565b565b6115b780611c4083390190565b6000813590506112a281611bfa565b92915050565b6000815190506112b781611bfa565b92915050565b6000815190506112cc81611c11565b92915050565b6000813590506112e181611c28565b92915050565b6000815190506112f681611c28565b92915050565b600060208284031215611312576113116119c9565b5b600061132084828501611293565b91505092915050565b60006020828403121561133f5761133e6119c9565b5b600061134d848285016112a8565b91505092915050565b600080600080600060a08688031215611372576113716119c9565b5b600061138088828901611293565b955050602061139188828901611293565b94505060406113a2888289016112d2565b93505060606113b388828901611293565b92505060806113c488828901611293565b9150509295509295909350565b6000806000606084860312156113ea576113e96119c9565b5b60006113f886828701611293565b9350506020611409868287016112d2565b925050604061141a86828701611293565b9150509250925092565b60006020828403121561143a576114396119c9565b5b6000611448848285016112bd565b91505092915050565b600060208284031215611467576114666119c9565b5b6000611475848285016112e7565b91505092915050565b61148781611952565b82525050565b611496816118fd565b82525050565b6114a5816118eb565b82525050565b6114b481611964565b82525050565b60006114c760268361186f565b91506114d2826119ce565b604082019050919050565b60006114ea60208361186f565b91506114f582611a1d565b602082019050919050565b600061150d60318361186f565b915061151882611a46565b604082019050919050565b6000611530602e8361186f565b915061153b82611a95565b604082019050919050565b600061155360278361186f565b915061155e82611ae4565b604082019050919050565b600061157660208361186f565b915061158182611b33565b602082019050919050565b600061159960288361186f565b91506115a482611b5c565b604082019050919050565b60006115bc602b8361186f565b91506115c782611bab565b604082019050919050565b6115db8161193b565b82525050565b6115ea81611945565b82525050565b6000602082019050611605600083018461149c565b92915050565b6000602082019050611620600083018461147e565b92915050565b600060208201905061163b600083018461148d565b92915050565b6000604082019050611656600083018561149c565b611663602083018461149c565b9392505050565b600060608201905061167f600083018661149c565b61168c602083018561147e565b61169960408301846115d2565b949350505050565b60006080820190506116b6600083018761149c565b6116c3602083018661149c565b6116d060408301856115d2565b6116dd606083018461149c565b95945050505050565b600060a0820190506116fb600083018861149c565b611708602083018761149c565b61171560408301866115d2565b611722606083018561149c565b61172f608083018461149c565b9695505050505050565b600060208201905061174e60008301846114ab565b92915050565b6000602082019050818103600083015261176d816114ba565b9050919050565b6000602082019050818103600083015261178d816114dd565b9050919050565b600060208201905081810360008301526117ad81611500565b9050919050565b600060208201905081810360008301526117cd81611523565b9050919050565b600060208201905081810360008301526117ed81611546565b9050919050565b6000602082019050818103600083015261180d81611569565b9050919050565b6000602082019050818103600083015261182d8161158c565b9050919050565b6000602082019050818103600083015261184d816115af565b9050919050565b600060208201905061186960008301846115e1565b92915050565b600082825260208201905092915050565b600061188b82611945565b915061189683611945565b92508260ff038211156118ac576118ab61199a565b5b828201905092915050565b60006118c28261193b565b91506118cd8361193b565b9250828210156118e0576118df61199a565b5b828203905092915050565b60006118f68261191b565b9050919050565b60006119088261191b565b9050919050565b60008115159050919050565b600073ffffffffffffffffffffffffffffffffffffffff82169050919050565b6000819050919050565b600060ff82169050919050565b600061195d82611976565b9050919050565b600061196f82611945565b9050919050565b600061198182611988565b9050919050565b60006119938261191b565b9050919050565b7f4e487b7100000000000000000000000000000000000000000000000000000000600052601160045260246000fd5b600080fd5b7f4f776e61626c653a206e6577206f776e657220697320746865207a65726f206160008201527f6464726573730000000000000000000000000000000000000000000000000000602082015250565b7f4d697865723a2046656520746f20636f6e7472616374206e6f742073656e7421600082015250565b7f4d697865723a2043616e277420776974686472617720756e74696c207468652060008201527f636f6e74726163742069732066756c6c2e000000000000000000000000000000602082015250565b7f496e697469616c697a61626c653a20636f6e747261637420697320616c72656160008201527f647920696e697469616c697a6564000000000000000000000000000000000000602082015250565b7f4d697865723a204d696e2062616c616e636520746f206465706f736974206e6f60008201527f742073656e742100000000000000000000000000000000000000000000000000602082015250565b7f4f776e61626c653a2063616c6c6572206973206e6f7420746865206f776e6572600082015250565b7f4d697865723a204e6f7420617574686f72697a656420746f207769746864726160008201527f772066756e64732e000000000000000000000000000000000000000000000000602082015250565b7f496e697469616c697a61626c653a20636f6e7472616374206973206e6f74206960008201527f6e697469616c697a696e67000000000000000000000000000000000000000000602082015250565b611c03816118eb565b8114611c0e57600080fd5b50565b611c1a8161190f565b8114611c2557600080fd5b50565b611c318161193b565b8114611c3c57600080fd5b5056fe608060405234801561001057600080fd5b50611597806100206000396000f3fe60806040526004361061008a5760003560e01c80638129fc1c116100595780638129fc1c146101285780638da5cb5b1461013f578063b1d1ec191461016a578063ba0b7dee14610193578063f2fde38b146101d057610091565b80630e917f761461009657806331d7d650146100bf57806353ba6007146100e8578063715018a61461011157610091565b3661009157005b600080fd5b3480156100a257600080fd5b506100bd60048036038101906100b8919061100e565b6101f9565b005b3480156100cb57600080fd5b506100e660048036038101906100e19190611075565b6104ad565b005b3480156100f457600080fd5b5061010f600480360381019061010a919061100e565b610762565b005b34801561011d57600080fd5b50610126610a16565b005b34801561013457600080fd5b5061013d610a2a565b005b34801561014b57600080fd5b50610154610b68565b60405161016191906111d6565b60405180910390f35b34801561017657600080fd5b50610191600480360381019061018c919061100e565b610b92565b005b34801561019f57600080fd5b506101ba60048036038101906101b59190610fbb565b610c70565b6040516101c791906112b5565b60405180910390f35b3480156101dc57600080fd5b506101f760048036038101906101f29190610f8e565b610ca2565b005b610201610d26565b81606560008673ffffffffffffffffffffffffffffffffffffffff1673ffffffffffffffffffffffffffffffffffffffff16815260200190815260200160002060008573ffffffffffffffffffffffffffffffffffffffff1673ffffffffffffffffffffffffffffffffffffffff16815260200190815260200160002060008373ffffffffffffffffffffffffffffffffffffffff1673ffffffffffffffffffffffffffffffffffffffff1681526020019081526020016000205410156102c757600080fd5b81606560008673ffffffffffffffffffffffffffffffffffffffff1673ffffffffffffffffffffffffffffffffffffffff16815260200190815260200160002060008573ffffffffffffffffffffffffffffffffffffffff1673ffffffffffffffffffffffffffffffffffffffff16815260200190815260200160002060008373ffffffffffffffffffffffffffffffffffffffff1673ffffffffffffffffffffffffffffffffffffffff16815260200190815260200160002060008282546103909190611337565b92505081905550600073ffffffffffffffffffffffffffffffffffffffff168373ffffffffffffffffffffffffffffffffffffffff161415610418578073ffffffffffffffffffffffffffffffffffffffff166108fc839081150290604051600060405180830381858888f19350505050158015610412573d6000803e3d6000fd5b506104a7565b8273ffffffffffffffffffffffffffffffffffffffff1663a9059cbb82846040518363ffffffff1660e01b81526004016104539291906111f1565b602060405180830381600087803b15801561046d57600080fd5b505af1158015610481573d6000803e3d6000fd5b505050506040513d601f19601f820116820180604052508101906104a591906110f0565b505b50505050565b6104b5610d26565b82606560008773ffffffffffffffffffffffffffffffffffffffff1673ffffffffffffffffffffffffffffffffffffffff16815260200190815260200160002060008673ffffffffffffffffffffffffffffffffffffffff1673ffffffffffffffffffffffffffffffffffffffff16815260200190815260200160002060008473ffffffffffffffffffffffffffffffffffffffff1673ffffffffffffffffffffffffffffffffffffffff16815260200190815260200160002054101561057b57600080fd5b82606560008773ffffffffffffffffffffffffffffffffffffffff1673ffffffffffffffffffffffffffffffffffffffff16815260200190815260200160002060008673ffffffffffffffffffffffffffffffffffffffff1673ffffffffffffffffffffffffffffffffffffffff16815260200190815260200160002060008473ffffffffffffffffffffffffffffffffffffffff1673ffffffffffffffffffffffffffffffffffffffff16815260200190815260200160002060008282546106449190611337565b92505081905550600073ffffffffffffffffffffffffffffffffffffffff168473ffffffffffffffffffffffffffffffffffffffff1614156106cc578073ffffffffffffffffffffffffffffffffffffffff166108fc849081150290604051600060405180830381858888f193505050501580156106c6573d6000803e3d6000fd5b5061075b565b8373ffffffffffffffffffffffffffffffffffffffff1663a9059cbb82856040518363ffffffff1660e01b81526004016107079291906111f1565b602060405180830381600087803b15801561072157600080fd5b505af1158015610735573d6000803e3d6000fd5b505050506040513d601f19601f8201168201806040525081019061075991906110f0565b505b5050505050565b61076a610d26565b81606560008673ffffffffffffffffffffffffffffffffffffffff1673ffffffffffffffffffffffffffffffffffffffff16815260200190815260200160002060008573ffffffffffffffffffffffffffffffffffffffff1673ffffffffffffffffffffffffffffffffffffffff16815260200190815260200160002060008373ffffffffffffffffffffffffffffffffffffffff1673ffffffffffffffffffffffffffffffffffffffff16815260200190815260200160002054101561083057600080fd5b81606560008673ffffffffffffffffffffffffffffffffffffffff1673ffffffffffffffffffffffffffffffffffffffff16815260200190815260200160002060008573ffffffffffffffffffffffffffffffffffffffff1673ffffffffffffffffffffffffffffffffffffffff16815260200190815260200160002060008373ffffffffffffffffffffffffffffffffffffffff1673ffffffffffffffffffffffffffffffffffffffff16815260200190815260200160002060008282546108f99190611337565b92505081905550600073ffffffffffffffffffffffffffffffffffffffff168373ffffffffffffffffffffffffffffffffffffffff161415610981578073ffffffffffffffffffffffffffffffffffffffff166108fc839081150290604051600060405180830381858888f1935050505015801561097b573d6000803e3d6000fd5b50610a10565b8273ffffffffffffffffffffffffffffffffffffffff1663a9059cbb82846040518363ffffffff1660e01b81526004016109bc9291906111f1565b602060405180830381600087803b1580156109d657600080fd5b505af11580156109ea573d6000803e3d6000fd5b505050506040513d601f19601f82011682018060405250810190610a0e91906110f0565b505b50505050565b610a1e610d26565b610a286000610da4565b565b60008060019054906101000a900460ff16159050808015610a5b5750600160008054906101000a900460ff1660ff16105b80610a885750610a6a30610e6a565b158015610a875750600160008054906101000a900460ff1660ff16145b5b610ac7576040517f08c379a0000000000000000000000000000000000000000000000000000000008152600401610abe90611255565b60405180910390fd5b60016000806101000a81548160ff021916908360ff1602179055508015610b04576001600060016101000a81548160ff0219169083151502179055505b610b0c610e8d565b8015610b655760008060016101000a81548160ff0219169083151502179055507f7f26b83ff96e1f2b6a682f133852f6798a09c465da95921460cefb38474024986001604051610b5c919061121a565b60405180910390a15b50565b6000603360009054906101000a900473ffffffffffffffffffffffffffffffffffffffff16905090565b610b9a610d26565b81606560008673ffffffffffffffffffffffffffffffffffffffff1673ffffffffffffffffffffffffffffffffffffffff16815260200190815260200160002060008573ffffffffffffffffffffffffffffffffffffffff1673ffffffffffffffffffffffffffffffffffffffff16815260200190815260200160002060008373ffffffffffffffffffffffffffffffffffffffff1673ffffffffffffffffffffffffffffffffffffffff1681526020019081526020016000206000828254610c6391906112e1565b9250508190555050505050565b606560205282600052604060002060205281600052604060002060205280600052604060002060009250925050505481565b610caa610d26565b600073ffffffffffffffffffffffffffffffffffffffff168173ffffffffffffffffffffffffffffffffffffffff161415610d1a576040517f08c379a0000000000000000000000000000000000000000000000000000000008152600401610d1190611235565b60405180910390fd5b610d2381610da4565b50565b610d2e610ee6565b73ffffffffffffffffffffffffffffffffffffffff16610d4c610b68565b73ffffffffffffffffffffffffffffffffffffffff1614610da2576040517f08c379a0000000000000000000000000000000000000000000000000000000008152600401610d9990611275565b60405180910390fd5b565b6000603360009054906101000a900473ffffffffffffffffffffffffffffffffffffffff16905081603360006101000a81548173ffffffffffffffffffffffffffffffffffffffff021916908373ffffffffffffffffffffffffffffffffffffffff1602179055508173ffffffffffffffffffffffffffffffffffffffff168173ffffffffffffffffffffffffffffffffffffffff167f8be0079c531659141344cd1fd0a4f28419497f9722a3daafe3b4186f6b6457e060405160405180910390a35050565b6000808273ffffffffffffffffffffffffffffffffffffffff163b119050919050565b600060019054906101000a900460ff16610edc576040517f08c379a0000000000000000000000000000000000000000000000000000000008152600401610ed390611295565b60405180910390fd5b610ee4610eee565b565b600033905090565b600060019054906101000a900460ff16610f3d576040517f08c379a0000000000000000000000000000000000000000000000000000000008152600401610f3490611295565b60405180910390fd5b610f4d610f48610ee6565b610da4565b565b600081359050610f5e8161151c565b92915050565b600081519050610f7381611533565b92915050565b600081359050610f888161154a565b92915050565b600060208284031215610fa457610fa3611401565b5b6000610fb284828501610f4f565b91505092915050565b600080600060608486031215610fd457610fd3611401565b5b6000610fe286828701610f4f565b9350506020610ff386828701610f4f565b925050604061100486828701610f4f565b9150509250925092565b6000806000806080858703121561102857611027611401565b5b600061103687828801610f4f565b945050602061104787828801610f4f565b935050604061105887828801610f79565b925050606061106987828801610f4f565b91505092959194509250565b600080600080600060a0868803121561109157611090611401565b5b600061109f88828901610f4f565b95505060206110b088828901610f4f565b94505060406110c188828901610f79565b93505060606110d288828901610f4f565b92505060806110e388828901610f4f565b9150509295509295909350565b60006020828403121561110657611105611401565b5b600061111484828501610f64565b91505092915050565b6111268161136b565b82525050565b611135816113c0565b82525050565b60006111486026836112d0565b915061115382611406565b604082019050919050565b600061116b602e836112d0565b915061117682611455565b604082019050919050565b600061118e6020836112d0565b9150611199826114a4565b602082019050919050565b60006111b1602b836112d0565b91506111bc826114cd565b604082019050919050565b6111d0816113a9565b82525050565b60006020820190506111eb600083018461111d565b92915050565b6000604082019050611206600083018561111d565b61121360208301846111c7565b9392505050565b600060208201905061122f600083018461112c565b92915050565b6000602082019050818103600083015261124e8161113b565b9050919050565b6000602082019050818103600083015261126e8161115e565b9050919050565b6000602082019050818103600083015261128e81611181565b9050919050565b600060208201905081810360008301526112ae816111a4565b9050919050565b60006020820190506112ca60008301846111c7565b92915050565b600082825260208201905092915050565b60006112ec826113a9565b91506112f7836113a9565b9250827fffffffffffffffffffffffffffffffffffffffffffffffffffffffffffffffff0382111561132c5761132b6113d2565b5b828201905092915050565b6000611342826113a9565b915061134d836113a9565b9250828210156113605761135f6113d2565b5b828203905092915050565b600061137682611389565b9050919050565b60008115159050919050565b600073ffffffffffffffffffffffffffffffffffffffff82169050919050565b6000819050919050565b600060ff82169050919050565b60006113cb826113b3565b9050919050565b7f4e487b7100000000000000000000000000000000000000000000000000000000600052601160045260246000fd5b600080fd5b7f4f776e61626c653a206e6577206f776e657220697320746865207a65726f206160008201527f6464726573730000000000000000000000000000000000000000000000000000602082015250565b7f496e697469616c697a61626c653a20636f6e747261637420697320616c72656160008201527f647920696e697469616c697a6564000000000000000000000000000000000000602082015250565b7f4f776e61626c653a2063616c6c6572206973206e6f7420746865206f776e6572600082015250565b7f496e697469616c697a61626c653a20636f6e7472616374206973206e6f74206960008201527f6e697469616c697a696e67000000000000000000000000000000000000000000602082015250565b6115258161136b565b811461153057600080fd5b50565b61153c8161137d565b811461154757600080fd5b50565b611553816113a9565b811461155e57600080fd5b5056fea26469706673582212209648fa9cdbbd1b8613bc9d04fb7d3e03296ed78fe3ab35e2214cd16575a20c0e64736f6c63430008070033a2646970667358221220abdbe77f29250730ea3052f35ee58294eda201d7f7211181c56c12e19c7c8b8b64736f6c63430008070033",
  "linkReferences": {},
  "deployedLinkReferences": {}
}