{
  "_format": "hh-sol-artifact-1",
  "contractName": "Mixer",
  "sourceName": "contracts/Mixer.sol",
  "abi": [
    {
      "inputs": [],
      "stateMutability": "nonpayable",
      "type": "constructor"
    },
    {
      "anonymous": false,
      "inputs": [
        {
          "indexed": false,
          "internalType": "address",
          "name": "",
          "type": "address"
        }
      ],
      "name": "NewInnerContractCreated",
      "type": "event"
    },
    {
      "anonymous": false,
      "inputs": [
        {
          "indexed": true,
          "internalType": "address",
          "name": "previousOwner",
          "type": "address"
        },
        {
          "indexed": true,
          "internalType": "address",
          "name": "newOwner",
          "type": "address"
        }
      ],
      "name": "OwnershipTransferred",
      "type": "event"
    },
    {
      "inputs": [
        {
          "internalType": "address",
          "name": "",
          "type": "address"
        }
      ],
      "name": "addressDeposits",
      "outputs": [
        {
          "internalType": "uint8",
          "name": "",
          "type": "uint8"
        }
      ],
      "stateMutability": "view",
      "type": "function"
    },
    {
      "inputs": [],
      "name": "currentContract",
      "outputs": [
        {
          "internalType": "address payable",
          "name": "",
          "type": "address"
        }
      ],
      "stateMutability": "view",
      "type": "function"
    },
    {
      "inputs": [
        {
          "internalType": "address",
          "name": "_erc20Addr",
          "type": "address"
        },
        {
          "internalType": "uint256",
          "name": "_numberOfTokens",
          "type": "uint256"
        },
        {
          "internalType": "address",
          "name": "_to",
          "type": "address"
        }
      ],
      "name": "depositTokens",
      "outputs": [],
      "stateMutability": "payable",
      "type": "function"
    },
    {
      "inputs": [],
      "name": "getCurrentContract",
      "outputs": [
        {
          "internalType": "address",
          "name": "",
          "type": "address"
        }
      ],
      "stateMutability": "view",
      "type": "function"
    },
    {
      "inputs": [],
      "name": "owner",
      "outputs": [
        {
          "internalType": "address",
          "name": "",
          "type": "address"
        }
      ],
      "stateMutability": "view",
      "type": "function"
    },
    {
      "inputs": [],
      "name": "renounceOwnership",
      "outputs": [],
      "stateMutability": "nonpayable",
      "type": "function"
    },
    {
      "inputs": [
        {
          "internalType": "address",
          "name": "newOwner",
          "type": "address"
        }
      ],
      "name": "transferOwnership",
      "outputs": [],
      "stateMutability": "nonpayable",
      "type": "function"
    },
    {
      "inputs": [
        {
          "internalType": "address",
          "name": "_contractAddress",
          "type": "address"
        },
        {
          "internalType": "address",
          "name": "_erc20Addr",
          "type": "address"
        },
        {
          "internalType": "uint256",
          "name": "_numberOfTokens",
          "type": "uint256"
        },
        {
          "internalType": "address",
          "name": "_from",
          "type": "address"
        },
        {
          "internalType": "address",
          "name": "_to",
          "type": "address"
        }
      ],
      "name": "withdraw",
      "outputs": [],
      "stateMutability": "nonpayable",
      "type": "function"
    },
    {
      "inputs": [
        {
          "internalType": "address",
          "name": "_to",
          "type": "address"
        }
      ],
      "name": "withdrawFee",
      "outputs": [],
      "stateMutability": "nonpayable",
      "type": "function"
    },
    {
      "inputs": [
        {
          "internalType": "address",
          "name": "_contractAddress",
          "type": "address"
        },
        {
          "internalType": "address",
          "name": "_erc20Addr",
          "type": "address"
        },
        {
          "internalType": "uint256",
          "name": "_numberOfTokens",
          "type": "uint256"
        },
        {
          "internalType": "address",
          "name": "_from",
          "type": "address"
        },
        {
          "internalType": "address",
          "name": "_to",
          "type": "address"
        }
      ],
      "name": "withdrawForCompliance",
      "outputs": [],
      "stateMutability": "nonpayable",
      "type": "function"
    },
    {
      "stateMutability": "payable",
      "type": "receive"
    }
  ],
  "bytecode": "0x60806040523480156200001157600080fd5b5062000032620000266200004960201b60201c565b6200005160201b60201c565b620000426200011560201b60201c565b506200029e565b600033905090565b60008060009054906101000a900473ffffffffffffffffffffffffffffffffffffffff169050816000806101000a81548173ffffffffffffffffffffffffffffffffffffffff021916908373ffffffffffffffffffffffffffffffffffffffff1602179055508173ffffffffffffffffffffffffffffffffffffffff168173ffffffffffffffffffffffffffffffffffffffff167f8be0079c531659141344cd1fd0a4f28419497f9722a3daafe3b4186f6b6457e060405160405180910390a35050565b6000604051620001259062000206565b604051809103906000f08015801562000142573d6000803e3d6000fd5b50600260006101000a81548173ffffffffffffffffffffffffffffffffffffffff021916908373ffffffffffffffffffffffffffffffffffffffff1602179055507fff930b9a7b49209e6e4aaca7250915fa46f36a097caed9bc228fb268db60f770600260009054906101000a900473ffffffffffffffffffffffffffffffffffffffff16604051620001d6919062000225565b60405180910390a1600260009054906101000a900473ffffffffffffffffffffffffffffffffffffffff16905090565b61100f80620029db83390190565b6200021f8162000262565b82525050565b60006020820190506200023c600083018462000214565b92915050565b600073ffffffffffffffffffffffffffffffffffffffff82169050919050565b60006200026f8262000276565b9050919050565b600062000283826200028a565b9050919050565b6000620002978262000242565b9050919050565b61272d80620002ae6000396000f3fe608060405260043610620000a35760003560e01c80638da5cb5b11620000615780638da5cb5b1462000179578063aff3c1a514620001a9578063ec634f7714620001d7578063f072476e1462000207578063f2fde38b146200024b57620000ae565b80631ac3ddeb14620000b3578063298e4f7914620000e157806331d7d6501462000101578063715018a6146200012f578063721d7d8e146200014957620000ae565b36620000ae57600080fd5b600080fd5b348015620000c057600080fd5b50620000df6004803603810190620000d9919062000e9a565b62000279565b005b620000ff6004803603810190620000f9919062000f54565b620002ce565b005b3480156200010e57600080fd5b506200012d600480360381019062000127919062000ecc565b62000857565b005b3480156200013c57600080fd5b5062000147620008e8565b005b3480156200015657600080fd5b506200016162000900565b6040516200017091906200118d565b60405180910390f35b3480156200018657600080fd5b506200019162000926565b604051620001a0919062001153565b60405180910390f35b348015620001b657600080fd5b50620001d56004803603810190620001cf919062000ecc565b6200094f565b005b348015620001e457600080fd5b50620001ef62000b19565b604051620001fe919062001153565b60405180910390f35b3480156200021457600080fd5b506200023360048036038101906200022d919062000e9a565b62000b43565b6040516200024291906200138a565b60405180910390f35b3480156200025857600080fd5b5062000277600480360381019062000271919062000e9a565b62000b63565b005b6200028362000bee565b8073ffffffffffffffffffffffffffffffffffffffff166108fc479081150290604051600060405180830381858888f19350505050158015620002ca573d6000803e3d6000fd5b5050565b662386f26fc100003410156200031b576040517f08c379a00000000000000000000000000000000000000000000000000000000081526004016200031290620012e0565b60405180910390fd5b601e60016000600260009054906101000a900473ffffffffffffffffffffffffffffffffffffffff1673ffffffffffffffffffffffffffffffffffffffff1673ffffffffffffffffffffffffffffffffffffffff16815260200190815260200160002060009054906101000a900460ff1660ff161415620003a257620003a062000c73565b505b600073ffffffffffffffffffffffffffffffffffffffff168373ffffffffffffffffffffffffffffffffffffffff1614156200057157666a94d74f430000662386f26fc1000034620003f59190620013f6565b101562000439576040517f08c379a0000000000000000000000000000000000000000000000000000000008152600401620004309062001324565b60405180910390fd5b600260009054906101000a900473ffffffffffffffffffffffffffffffffffffffff1673ffffffffffffffffffffffffffffffffffffffff166108fc662386f26fc10000346200048a9190620013f6565b9081150290604051600060405180830381858888f19350505050158015620004b6573d6000803e3d6000fd5b50600260009054906101000a900473ffffffffffffffffffffffffffffffffffffffff1673ffffffffffffffffffffffffffffffffffffffff1663b1d1ec19620004ff62000d64565b85662386f26fc1000034620005159190620013f6565b856040518563ffffffff1660e01b815260040162000537949392919062001214565b600060405180830381600087803b1580156200055257600080fd5b505af115801562000567573d6000803e3d6000fd5b50505050620007bb565b68056bc75e2d631000008373ffffffffffffffffffffffffffffffffffffffff1663dd62ed3e620005a162000d64565b306040518363ffffffff1660e01b8152600401620005c1929190620011aa565b60206040518083038186803b158015620005da57600080fd5b505afa158015620005ef573d6000803e3d6000fd5b505050506040513d601f19601f8201168201806040525081019062000615919062000fe2565b101562000659576040517f08c379a0000000000000000000000000000000000000000000000000000000008152600401620006509062001324565b60405180910390fd5b8273ffffffffffffffffffffffffffffffffffffffff166323b872dd6200067f62000d64565b600260009054906101000a900473ffffffffffffffffffffffffffffffffffffffff16856040518463ffffffff1660e01b8152600401620006c393929190620011d7565b602060405180830381600087803b158015620006de57600080fd5b505af1158015620006f3573d6000803e3d6000fd5b505050506040513d601f19601f8201168201806040525081019062000719919062000fb0565b50600260009054906101000a900473ffffffffffffffffffffffffffffffffffffffff1673ffffffffffffffffffffffffffffffffffffffff1663b1d1ec196200076262000d64565b8585856040518563ffffffff1660e01b815260040162000786949392919062001214565b600060405180830381600087803b158015620007a157600080fd5b505af1158015620007b6573d6000803e3d6000fd5b505050505b6001806000600260009054906101000a900473ffffffffffffffffffffffffffffffffffffffff1673ffffffffffffffffffffffffffffffffffffffff1673ffffffffffffffffffffffffffffffffffffffff16815260200190815260200160002060008282829054906101000a900460ff166200083a9190620013b8565b92506101000a81548160ff021916908360ff160217905550505050565b6200086162000bee565b8473ffffffffffffffffffffffffffffffffffffffff166331d7d650838686856200088b62000926565b6040518663ffffffff1660e01b8152600401620008ad95949392919062001261565b600060405180830381600087803b158015620008c857600080fd5b505af1158015620008dd573d6000803e3d6000fd5b505050505050505050565b620008f262000bee565b620008fe600062000d6c565b565b600260009054906101000a900473ffffffffffffffffffffffffffffffffffffffff1681565b60008060009054906101000a900473ffffffffffffffffffffffffffffffffffffffff16905090565b600260009054906101000a900473ffffffffffffffffffffffffffffffffffffffff1673ffffffffffffffffffffffffffffffffffffffff168573ffffffffffffffffffffffffffffffffffffffff161415620009e3576040517f08c379a0000000000000000000000000000000000000000000000000000000008152600401620009da9062001302565b60405180910390fd5b8173ffffffffffffffffffffffffffffffffffffffff1662000a0462000d64565b73ffffffffffffffffffffffffffffffffffffffff16148062000a5b57508073ffffffffffffffffffffffffffffffffffffffff1662000a4362000d64565b73ffffffffffffffffffffffffffffffffffffffff16145b62000a9d576040517f08c379a000000000000000000000000000000000000000000000000000000000815260040162000a949062001368565b60405180910390fd5b8473ffffffffffffffffffffffffffffffffffffffff16630e917f76838686856040518563ffffffff1660e01b815260040162000ade949392919062001214565b600060405180830381600087803b15801562000af957600080fd5b505af115801562000b0e573d6000803e3d6000fd5b505050505050505050565b6000600260009054906101000a900473ffffffffffffffffffffffffffffffffffffffff16905090565b60016020528060005260406000206000915054906101000a900460ff1681565b62000b6d62000bee565b600073ffffffffffffffffffffffffffffffffffffffff168173ffffffffffffffffffffffffffffffffffffffff16141562000be0576040517f08c379a000000000000000000000000000000000000000000000000000000000815260040162000bd790620012be565b60405180910390fd5b62000beb8162000d6c565b50565b62000bf862000d64565b73ffffffffffffffffffffffffffffffffffffffff1662000c1862000926565b73ffffffffffffffffffffffffffffffffffffffff161462000c71576040517f08c379a000000000000000000000000000000000000000000000000000000000815260040162000c689062001346565b60405180910390fd5b565b600060405162000c839062000e30565b604051809103906000f08015801562000ca0573d6000803e3d6000fd5b50600260006101000a81548173ffffffffffffffffffffffffffffffffffffffff021916908373ffffffffffffffffffffffffffffffffffffffff1602179055507fff930b9a7b49209e6e4aaca7250915fa46f36a097caed9bc228fb268db60f770600260009054906101000a900473ffffffffffffffffffffffffffffffffffffffff1660405162000d34919062001170565b60405180910390a1600260009054906101000a900473ffffffffffffffffffffffffffffffffffffffff16905090565b600033905090565b60008060009054906101000a900473ffffffffffffffffffffffffffffffffffffffff169050816000806101000a81548173ffffffffffffffffffffffffffffffffffffffff021916908373ffffffffffffffffffffffffffffffffffffffff1602179055508173ffffffffffffffffffffffffffffffffffffffff168173ffffffffffffffffffffffffffffffffffffffff167f8be0079c531659141344cd1fd0a4f28419497f9722a3daafe3b4186f6b6457e060405160405180910390a35050565b61100f80620016e983390190565b60008135905062000e4f816200169a565b92915050565b60008151905062000e6681620016b4565b92915050565b60008135905062000e7d81620016ce565b92915050565b60008151905062000e9481620016ce565b92915050565b60006020828403121562000eb35762000eb262001507565b5b600062000ec38482850162000e3e565b91505092915050565b600080600080600060a0868803121562000eeb5762000eea62001507565b5b600062000efb8882890162000e3e565b955050602062000f0e8882890162000e3e565b945050604062000f218882890162000e6c565b935050606062000f348882890162000e3e565b925050608062000f478882890162000e3e565b9150509295509295909350565b60008060006060848603121562000f705762000f6f62001507565b5b600062000f808682870162000e3e565b935050602062000f938682870162000e6c565b925050604062000fa68682870162000e3e565b9150509250925092565b60006020828403121562000fc95762000fc862001507565b5b600062000fd98482850162000e55565b91505092915050565b60006020828403121562000ffb5762000ffa62001507565b5b60006200100b8482850162000e83565b91505092915050565b6200101f816200149c565b82525050565b620010308162001445565b82525050565b620010418162001431565b82525050565b600062001056602683620013a7565b915062001063826200150c565b604082019050919050565b60006200107d602083620013a7565b91506200108a826200155b565b602082019050919050565b6000620010a4603183620013a7565b9150620010b18262001584565b604082019050919050565b6000620010cb602783620013a7565b9150620010d882620015d3565b604082019050919050565b6000620010f2602083620013a7565b9150620010ff8262001622565b602082019050919050565b600062001119602883620013a7565b915062001126826200164b565b604082019050919050565b6200113c8162001485565b82525050565b6200114d816200148f565b82525050565b60006020820190506200116a600083018462001036565b92915050565b600060208201905062001187600083018462001014565b92915050565b6000602082019050620011a4600083018462001025565b92915050565b6000604082019050620011c1600083018562001036565b620011d0602083018462001036565b9392505050565b6000606082019050620011ee600083018662001036565b620011fd602083018562001014565b6200120c604083018462001131565b949350505050565b60006080820190506200122b600083018762001036565b6200123a602083018662001036565b62001249604083018562001131565b62001258606083018462001036565b95945050505050565b600060a08201905062001278600083018862001036565b62001287602083018762001036565b62001296604083018662001131565b620012a5606083018562001036565b620012b4608083018462001036565b9695505050505050565b60006020820190508181036000830152620012d98162001047565b9050919050565b60006020820190508181036000830152620012fb816200106e565b9050919050565b600060208201905081810360008301526200131d8162001095565b9050919050565b600060208201905081810360008301526200133f81620010bc565b9050919050565b600060208201905081810360008301526200136181620010e3565b9050919050565b6000602082019050818103600083015262001383816200110a565b9050919050565b6000602082019050620013a1600083018462001142565b92915050565b600082825260208201905092915050565b6000620013c5826200148f565b9150620013d2836200148f565b92508260ff03821115620013eb57620013ea620014d8565b5b828201905092915050565b6000620014038262001485565b9150620014108362001485565b925082821015620014265762001425620014d8565b5b828203905092915050565b60006200143e8262001465565b9050919050565b6000620014528262001465565b9050919050565b60008115159050919050565b600073ffffffffffffffffffffffffffffffffffffffff82169050919050565b6000819050919050565b600060ff82169050919050565b6000620014a982620014b0565b9050919050565b6000620014bd82620014c4565b9050919050565b6000620014d18262001465565b9050919050565b7f4e487b7100000000000000000000000000000000000000000000000000000000600052601160045260246000fd5b600080fd5b7f4f776e61626c653a206e6577206f776e657220697320746865207a65726f206160008201527f6464726573730000000000000000000000000000000000000000000000000000602082015250565b7f4d697865723a2046656520746f20636f6e7472616374206e6f742073656e7421600082015250565b7f4d697865723a2043616e277420776974686472617720756e74696c207468652060008201527f636f6e74726163742069732066756c6c2e000000000000000000000000000000602082015250565b7f4d697865723a204d696e2062616c616e636520746f206465706f736974206e6f60008201527f742073656e742100000000000000000000000000000000000000000000000000602082015250565b7f4f776e61626c653a2063616c6c6572206973206e6f7420746865206f776e6572600082015250565b7f4d697865723a204e6f7420617574686f72697a656420746f207769746864726160008201527f772066756e64732e000000000000000000000000000000000000000000000000602082015250565b620016a58162001431565b8114620016b157600080fd5b50565b620016bf8162001459565b8114620016cb57600080fd5b50565b620016d98162001485565b8114620016e557600080fd5b5056fe608060405234801561001057600080fd5b5061002d61002261003260201b60201c565b61003a60201b60201c565b6100fe565b600033905090565b60008060009054906101000a900473ffffffffffffffffffffffffffffffffffffffff169050816000806101000a81548173ffffffffffffffffffffffffffffffffffffffff021916908373ffffffffffffffffffffffffffffffffffffffff1602179055508173ffffffffffffffffffffffffffffffffffffffff168173ffffffffffffffffffffffffffffffffffffffff167f8be0079c531659141344cd1fd0a4f28419497f9722a3daafe3b4186f6b6457e060405160405180910390a35050565b610f028061010d6000396000f3fe6080604052600436106100745760003560e01c80638da5cb5b1161004e5780638da5cb5b146100e9578063b1d1ec1914610114578063ba0b7dee1461013d578063f2fde38b1461017a5761007b565b80630e917f761461008057806331d7d650146100a9578063715018a6146100d25761007b565b3661007b57005b600080fd5b34801561008c57600080fd5b506100a760048036038101906100a29190610ae6565b6101a3565b005b3480156100b557600080fd5b506100d060048036038101906100cb9190610b4d565b610457565b005b3480156100de57600080fd5b506100e761070c565b005b3480156100f557600080fd5b506100fe610720565b60405161010b9190610c59565b60405180910390f35b34801561012057600080fd5b5061013b60048036038101906101369190610ae6565b610749565b005b34801561014957600080fd5b50610164600480360381019061015f9190610a93565b610827565b6040516101719190610cdd565b60405180910390f35b34801561018657600080fd5b506101a1600480360381019061019c9190610a66565b610859565b005b6101ab6108dd565b81600160008673ffffffffffffffffffffffffffffffffffffffff1673ffffffffffffffffffffffffffffffffffffffff16815260200190815260200160002060008573ffffffffffffffffffffffffffffffffffffffff1673ffffffffffffffffffffffffffffffffffffffff16815260200190815260200160002060008373ffffffffffffffffffffffffffffffffffffffff1673ffffffffffffffffffffffffffffffffffffffff16815260200190815260200160002054101561027157600080fd5b81600160008673ffffffffffffffffffffffffffffffffffffffff1673ffffffffffffffffffffffffffffffffffffffff16815260200190815260200160002060008573ffffffffffffffffffffffffffffffffffffffff1673ffffffffffffffffffffffffffffffffffffffff16815260200190815260200160002060008373ffffffffffffffffffffffffffffffffffffffff1673ffffffffffffffffffffffffffffffffffffffff168152602001908152602001600020600082825461033a9190610d5f565b92505081905550600073ffffffffffffffffffffffffffffffffffffffff168373ffffffffffffffffffffffffffffffffffffffff1614156103c2578073ffffffffffffffffffffffffffffffffffffffff166108fc839081150290604051600060405180830381858888f193505050501580156103bc573d6000803e3d6000fd5b50610451565b8273ffffffffffffffffffffffffffffffffffffffff1663a9059cbb82846040518363ffffffff1660e01b81526004016103fd929190610c74565b602060405180830381600087803b15801561041757600080fd5b505af115801561042b573d6000803e3d6000fd5b505050506040513d601f19601f8201168201806040525081019061044f9190610bc8565b505b50505050565b61045f6108dd565b82600160008773ffffffffffffffffffffffffffffffffffffffff1673ffffffffffffffffffffffffffffffffffffffff16815260200190815260200160002060008673ffffffffffffffffffffffffffffffffffffffff1673ffffffffffffffffffffffffffffffffffffffff16815260200190815260200160002060008473ffffffffffffffffffffffffffffffffffffffff1673ffffffffffffffffffffffffffffffffffffffff16815260200190815260200160002054101561052557600080fd5b82600160008773ffffffffffffffffffffffffffffffffffffffff1673ffffffffffffffffffffffffffffffffffffffff16815260200190815260200160002060008673ffffffffffffffffffffffffffffffffffffffff1673ffffffffffffffffffffffffffffffffffffffff16815260200190815260200160002060008473ffffffffffffffffffffffffffffffffffffffff1673ffffffffffffffffffffffffffffffffffffffff16815260200190815260200160002060008282546105ee9190610d5f565b92505081905550600073ffffffffffffffffffffffffffffffffffffffff168473ffffffffffffffffffffffffffffffffffffffff161415610676578073ffffffffffffffffffffffffffffffffffffffff166108fc849081150290604051600060405180830381858888f19350505050158015610670573d6000803e3d6000fd5b50610705565b8373ffffffffffffffffffffffffffffffffffffffff1663a9059cbb82856040518363ffffffff1660e01b81526004016106b1929190610c74565b602060405180830381600087803b1580156106cb57600080fd5b505af11580156106df573d6000803e3d6000fd5b505050506040513d601f19601f820116820180604052508101906107039190610bc8565b505b5050505050565b6107146108dd565b61071e600061095b565b565b60008060009054906101000a900473ffffffffffffffffffffffffffffffffffffffff16905090565b6107516108dd565b81600160008673ffffffffffffffffffffffffffffffffffffffff1673ffffffffffffffffffffffffffffffffffffffff16815260200190815260200160002060008573ffffffffffffffffffffffffffffffffffffffff1673ffffffffffffffffffffffffffffffffffffffff16815260200190815260200160002060008373ffffffffffffffffffffffffffffffffffffffff1673ffffffffffffffffffffffffffffffffffffffff168152602001908152602001600020600082825461081a9190610d09565b9250508190555050505050565b600160205282600052604060002060205281600052604060002060205280600052604060002060009250925050505481565b6108616108dd565b600073ffffffffffffffffffffffffffffffffffffffff168173ffffffffffffffffffffffffffffffffffffffff1614156108d1576040517f08c379a00000000000000000000000000000000000000000000000000000000081526004016108c890610c9d565b60405180910390fd5b6108da8161095b565b50565b6108e5610a1f565b73ffffffffffffffffffffffffffffffffffffffff16610903610720565b73ffffffffffffffffffffffffffffffffffffffff1614610959576040517f08c379a000000000000000000000000000000000000000000000000000000000815260040161095090610cbd565b60405180910390fd5b565b60008060009054906101000a900473ffffffffffffffffffffffffffffffffffffffff169050816000806101000a81548173ffffffffffffffffffffffffffffffffffffffff021916908373ffffffffffffffffffffffffffffffffffffffff1602179055508173ffffffffffffffffffffffffffffffffffffffff168173ffffffffffffffffffffffffffffffffffffffff167f8be0079c531659141344cd1fd0a4f28419497f9722a3daafe3b4186f6b6457e060405160405180910390a35050565b600033905090565b600081359050610a3681610e87565b92915050565b600081519050610a4b81610e9e565b92915050565b600081359050610a6081610eb5565b92915050565b600060208284031215610a7c57610a7b610e0a565b5b6000610a8a84828501610a27565b91505092915050565b600080600060608486031215610aac57610aab610e0a565b5b6000610aba86828701610a27565b9350506020610acb86828701610a27565b9250506040610adc86828701610a27565b9150509250925092565b60008060008060808587031215610b0057610aff610e0a565b5b6000610b0e87828801610a27565b9450506020610b1f87828801610a27565b9350506040610b3087828801610a51565b9250506060610b4187828801610a27565b91505092959194509250565b600080600080600060a08688031215610b6957610b68610e0a565b5b6000610b7788828901610a27565b9550506020610b8888828901610a27565b9450506040610b9988828901610a51565b9350506060610baa88828901610a27565b9250506080610bbb88828901610a27565b9150509295509295909350565b600060208284031215610bde57610bdd610e0a565b5b6000610bec84828501610a3c565b91505092915050565b610bfe81610d93565b82525050565b6000610c11602683610cf8565b9150610c1c82610e0f565b604082019050919050565b6000610c34602083610cf8565b9150610c3f82610e5e565b602082019050919050565b610c5381610dd1565b82525050565b6000602082019050610c6e6000830184610bf5565b92915050565b6000604082019050610c896000830185610bf5565b610c966020830184610c4a565b9392505050565b60006020820190508181036000830152610cb681610c04565b9050919050565b60006020820190508181036000830152610cd681610c27565b9050919050565b6000602082019050610cf26000830184610c4a565b92915050565b600082825260208201905092915050565b6000610d1482610dd1565b9150610d1f83610dd1565b9250827fffffffffffffffffffffffffffffffffffffffffffffffffffffffffffffffff03821115610d5457610d53610ddb565b5b828201905092915050565b6000610d6a82610dd1565b9150610d7583610dd1565b925082821015610d8857610d87610ddb565b5b828203905092915050565b6000610d9e82610db1565b9050919050565b60008115159050919050565b600073ffffffffffffffffffffffffffffffffffffffff82169050919050565b6000819050919050565b7f4e487b7100000000000000000000000000000000000000000000000000000000600052601160045260246000fd5b600080fd5b7f4f776e61626c653a206e6577206f776e657220697320746865207a65726f206160008201527f6464726573730000000000000000000000000000000000000000000000000000602082015250565b7f4f776e61626c653a2063616c6c6572206973206e6f7420746865206f776e6572600082015250565b610e9081610d93565b8114610e9b57600080fd5b50565b610ea781610da5565b8114610eb257600080fd5b50565b610ebe81610dd1565b8114610ec957600080fd5b5056fea2646970667358221220d5c2f89e66f895c1a3e5fde5522eed057b19cea26a3ec4c8b4d6becb100631fe64736f6c63430008070033a26469706673582212208ab10c457a7b0042d271a8de1a252f058ac785b00cb3280b1f75d75dc0316d3a64736f6c63430008070033608060405234801561001057600080fd5b5061002d61002261003260201b60201c565b61003a60201b60201c565b6100fe565b600033905090565b60008060009054906101000a900473ffffffffffffffffffffffffffffffffffffffff169050816000806101000a81548173ffffffffffffffffffffffffffffffffffffffff021916908373ffffffffffffffffffffffffffffffffffffffff1602179055508173ffffffffffffffffffffffffffffffffffffffff168173ffffffffffffffffffffffffffffffffffffffff167f8be0079c531659141344cd1fd0a4f28419497f9722a3daafe3b4186f6b6457e060405160405180910390a35050565b610f028061010d6000396000f3fe6080604052600436106100745760003560e01c80638da5cb5b1161004e5780638da5cb5b146100e9578063b1d1ec1914610114578063ba0b7dee1461013d578063f2fde38b1461017a5761007b565b80630e917f761461008057806331d7d650146100a9578063715018a6146100d25761007b565b3661007b57005b600080fd5b34801561008c57600080fd5b506100a760048036038101906100a29190610ae6565b6101a3565b005b3480156100b557600080fd5b506100d060048036038101906100cb9190610b4d565b610457565b005b3480156100de57600080fd5b506100e761070c565b005b3480156100f557600080fd5b506100fe610720565b60405161010b9190610c59565b60405180910390f35b34801561012057600080fd5b5061013b60048036038101906101369190610ae6565b610749565b005b34801561014957600080fd5b50610164600480360381019061015f9190610a93565b610827565b6040516101719190610cdd565b60405180910390f35b34801561018657600080fd5b506101a1600480360381019061019c9190610a66565b610859565b005b6101ab6108dd565b81600160008673ffffffffffffffffffffffffffffffffffffffff1673ffffffffffffffffffffffffffffffffffffffff16815260200190815260200160002060008573ffffffffffffffffffffffffffffffffffffffff1673ffffffffffffffffffffffffffffffffffffffff16815260200190815260200160002060008373ffffffffffffffffffffffffffffffffffffffff1673ffffffffffffffffffffffffffffffffffffffff16815260200190815260200160002054101561027157600080fd5b81600160008673ffffffffffffffffffffffffffffffffffffffff1673ffffffffffffffffffffffffffffffffffffffff16815260200190815260200160002060008573ffffffffffffffffffffffffffffffffffffffff1673ffffffffffffffffffffffffffffffffffffffff16815260200190815260200160002060008373ffffffffffffffffffffffffffffffffffffffff1673ffffffffffffffffffffffffffffffffffffffff168152602001908152602001600020600082825461033a9190610d5f565b92505081905550600073ffffffffffffffffffffffffffffffffffffffff168373ffffffffffffffffffffffffffffffffffffffff1614156103c2578073ffffffffffffffffffffffffffffffffffffffff166108fc839081150290604051600060405180830381858888f193505050501580156103bc573d6000803e3d6000fd5b50610451565b8273ffffffffffffffffffffffffffffffffffffffff1663a9059cbb82846040518363ffffffff1660e01b81526004016103fd929190610c74565b602060405180830381600087803b15801561041757600080fd5b505af115801561042b573d6000803e3d6000fd5b505050506040513d601f19601f8201168201806040525081019061044f9190610bc8565b505b50505050565b61045f6108dd565b82600160008773ffffffffffffffffffffffffffffffffffffffff1673ffffffffffffffffffffffffffffffffffffffff16815260200190815260200160002060008673ffffffffffffffffffffffffffffffffffffffff1673ffffffffffffffffffffffffffffffffffffffff16815260200190815260200160002060008473ffffffffffffffffffffffffffffffffffffffff1673ffffffffffffffffffffffffffffffffffffffff16815260200190815260200160002054101561052557600080fd5b82600160008773ffffffffffffffffffffffffffffffffffffffff1673ffffffffffffffffffffffffffffffffffffffff16815260200190815260200160002060008673ffffffffffffffffffffffffffffffffffffffff1673ffffffffffffffffffffffffffffffffffffffff16815260200190815260200160002060008473ffffffffffffffffffffffffffffffffffffffff1673ffffffffffffffffffffffffffffffffffffffff16815260200190815260200160002060008282546105ee9190610d5f565b92505081905550600073ffffffffffffffffffffffffffffffffffffffff168473ffffffffffffffffffffffffffffffffffffffff161415610676578073ffffffffffffffffffffffffffffffffffffffff166108fc849081150290604051600060405180830381858888f19350505050158015610670573d6000803e3d6000fd5b50610705565b8373ffffffffffffffffffffffffffffffffffffffff1663a9059cbb82856040518363ffffffff1660e01b81526004016106b1929190610c74565b602060405180830381600087803b1580156106cb57600080fd5b505af11580156106df573d6000803e3d6000fd5b505050506040513d601f19601f820116820180604052508101906107039190610bc8565b505b5050505050565b6107146108dd565b61071e600061095b565b565b60008060009054906101000a900473ffffffffffffffffffffffffffffffffffffffff16905090565b6107516108dd565b81600160008673ffffffffffffffffffffffffffffffffffffffff1673ffffffffffffffffffffffffffffffffffffffff16815260200190815260200160002060008573ffffffffffffffffffffffffffffffffffffffff1673ffffffffffffffffffffffffffffffffffffffff16815260200190815260200160002060008373ffffffffffffffffffffffffffffffffffffffff1673ffffffffffffffffffffffffffffffffffffffff168152602001908152602001600020600082825461081a9190610d09565b9250508190555050505050565b600160205282600052604060002060205281600052604060002060205280600052604060002060009250925050505481565b6108616108dd565b600073ffffffffffffffffffffffffffffffffffffffff168173ffffffffffffffffffffffffffffffffffffffff1614156108d1576040517f08c379a00000000000000000000000000000000000000000000000000000000081526004016108c890610c9d565b60405180910390fd5b6108da8161095b565b50565b6108e5610a1f565b73ffffffffffffffffffffffffffffffffffffffff16610903610720565b73ffffffffffffffffffffffffffffffffffffffff1614610959576040517f08c379a000000000000000000000000000000000000000000000000000000000815260040161095090610cbd565b60405180910390fd5b565b60008060009054906101000a900473ffffffffffffffffffffffffffffffffffffffff169050816000806101000a81548173ffffffffffffffffffffffffffffffffffffffff021916908373ffffffffffffffffffffffffffffffffffffffff1602179055508173ffffffffffffffffffffffffffffffffffffffff168173ffffffffffffffffffffffffffffffffffffffff167f8be0079c531659141344cd1fd0a4f28419497f9722a3daafe3b4186f6b6457e060405160405180910390a35050565b600033905090565b600081359050610a3681610e87565b92915050565b600081519050610a4b81610e9e565b92915050565b600081359050610a6081610eb5565b92915050565b600060208284031215610a7c57610a7b610e0a565b5b6000610a8a84828501610a27565b91505092915050565b600080600060608486031215610aac57610aab610e0a565b5b6000610aba86828701610a27565b9350506020610acb86828701610a27565b9250506040610adc86828701610a27565b9150509250925092565b60008060008060808587031215610b0057610aff610e0a565b5b6000610b0e87828801610a27565b9450506020610b1f87828801610a27565b9350506040610b3087828801610a51565b9250506060610b4187828801610a27565b91505092959194509250565b600080600080600060a08688031215610b6957610b68610e0a565b5b6000610b7788828901610a27565b9550506020610b8888828901610a27565b9450506040610b9988828901610a51565b9350506060610baa88828901610a27565b9250506080610bbb88828901610a27565b9150509295509295909350565b600060208284031215610bde57610bdd610e0a565b5b6000610bec84828501610a3c565b91505092915050565b610bfe81610d93565b82525050565b6000610c11602683610cf8565b9150610c1c82610e0f565b604082019050919050565b6000610c34602083610cf8565b9150610c3f82610e5e565b602082019050919050565b610c5381610dd1565b82525050565b6000602082019050610c6e6000830184610bf5565b92915050565b6000604082019050610c896000830185610bf5565b610c966020830184610c4a565b9392505050565b60006020820190508181036000830152610cb681610c04565b9050919050565b60006020820190508181036000830152610cd681610c27565b9050919050565b6000602082019050610cf26000830184610c4a565b92915050565b600082825260208201905092915050565b6000610d1482610dd1565b9150610d1f83610dd1565b9250827fffffffffffffffffffffffffffffffffffffffffffffffffffffffffffffffff03821115610d5457610d53610ddb565b5b828201905092915050565b6000610d6a82610dd1565b9150610d7583610dd1565b925082821015610d8857610d87610ddb565b5b828203905092915050565b6000610d9e82610db1565b9050919050565b60008115159050919050565b600073ffffffffffffffffffffffffffffffffffffffff82169050919050565b6000819050919050565b7f4e487b7100000000000000000000000000000000000000000000000000000000600052601160045260246000fd5b600080fd5b7f4f776e61626c653a206e6577206f776e657220697320746865207a65726f206160008201527f6464726573730000000000000000000000000000000000000000000000000000602082015250565b7f4f776e61626c653a2063616c6c6572206973206e6f7420746865206f776e6572600082015250565b610e9081610d93565b8114610e9b57600080fd5b50565b610ea781610da5565b8114610eb257600080fd5b50565b610ebe81610dd1565b8114610ec957600080fd5b5056fea2646970667358221220d5c2f89e66f895c1a3e5fde5522eed057b19cea26a3ec4c8b4d6becb100631fe64736f6c63430008070033",
  "linkReferences": {},
  "deployedLinkReferences": {}
}