{
  "_format": "hh-sol-artifact-1",
  "contractName": "Mixer",
  "sourceName": "contracts/Mixer.sol",
  "abi": [
    {
      "anonymous": false,
      "inputs": [
        {
          "indexed": false,
          "internalType": "uint8",
          "name": "version",
          "type": "uint8"
        }
      ],
      "name": "Initialized",
      "type": "event"
    },
    {
      "anonymous": false,
      "inputs": [
        {
          "indexed": false,
          "internalType": "address",
          "name": "",
          "type": "address"
        }
      ],
      "name": "NewInnerContractCreated",
      "type": "event"
    },
    {
      "anonymous": false,
      "inputs": [
        {
          "indexed": true,
          "internalType": "address",
          "name": "previousOwner",
          "type": "address"
        },
        {
          "indexed": true,
          "internalType": "address",
          "name": "newOwner",
          "type": "address"
        }
      ],
      "name": "OwnershipTransferred",
      "type": "event"
    },
    {
      "inputs": [
        {
          "internalType": "address",
          "name": "",
          "type": "address"
        }
      ],
      "name": "addressDeposits",
      "outputs": [
        {
          "internalType": "uint8",
          "name": "",
          "type": "uint8"
        }
      ],
      "stateMutability": "view",
      "type": "function"
    },
    {
      "inputs": [],
      "name": "currentContract",
      "outputs": [
        {
          "internalType": "address payable",
          "name": "",
          "type": "address"
        }
      ],
      "stateMutability": "view",
      "type": "function"
    },
    {
      "inputs": [
        {
          "internalType": "address",
          "name": "_erc20Addr",
          "type": "address"
        },
        {
          "internalType": "uint256",
          "name": "_numberOfTokens",
          "type": "uint256"
        },
        {
          "internalType": "address",
          "name": "_to",
          "type": "address"
        }
      ],
      "name": "depositTokens",
      "outputs": [],
      "stateMutability": "payable",
      "type": "function"
    },
    {
      "inputs": [
        {
          "internalType": "address",
          "name": "_contractAddress",
          "type": "address"
        },
        {
          "internalType": "address",
          "name": "_erc20Addr",
          "type": "address"
        },
        {
          "internalType": "uint256",
          "name": "_numberOfTokens",
          "type": "uint256"
        },
        {
          "internalType": "address",
          "name": "_from",
          "type": "address"
        },
        {
          "internalType": "address",
          "name": "_to",
          "type": "address"
        }
      ],
      "name": "forceSend",
      "outputs": [],
      "stateMutability": "nonpayable",
      "type": "function"
    },
    {
      "inputs": [],
      "name": "getCurrentContract",
      "outputs": [
        {
          "internalType": "address",
          "name": "",
          "type": "address"
        }
      ],
      "stateMutability": "view",
      "type": "function"
    },
    {
      "inputs": [],
      "name": "getOwnerOfInner",
      "outputs": [
        {
          "internalType": "address",
          "name": "",
          "type": "address"
        }
      ],
      "stateMutability": "view",
      "type": "function"
    },
    {
      "inputs": [],
      "name": "initialize",
      "outputs": [],
      "stateMutability": "nonpayable",
      "type": "function"
    },
    {
      "inputs": [],
      "name": "owner",
      "outputs": [
        {
          "internalType": "address",
          "name": "",
          "type": "address"
        }
      ],
      "stateMutability": "view",
      "type": "function"
    },
    {
      "inputs": [],
      "name": "renounceOwnership",
      "outputs": [],
      "stateMutability": "nonpayable",
      "type": "function"
    },
    {
      "inputs": [
        {
          "internalType": "address",
          "name": "newOwner",
          "type": "address"
        }
      ],
      "name": "transferOwnership",
      "outputs": [],
      "stateMutability": "nonpayable",
      "type": "function"
    },
    {
      "inputs": [
        {
          "internalType": "address",
          "name": "_contractAddress",
          "type": "address"
        },
        {
          "internalType": "address",
          "name": "_erc20Addr",
          "type": "address"
        },
        {
          "internalType": "uint256",
          "name": "_numberOfTokens",
          "type": "uint256"
        },
        {
          "internalType": "address",
          "name": "_from",
          "type": "address"
        },
        {
          "internalType": "address",
          "name": "_to",
          "type": "address"
        }
      ],
      "name": "withdraw",
      "outputs": [],
      "stateMutability": "nonpayable",
      "type": "function"
    },
    {
      "inputs": [
        {
          "internalType": "address",
          "name": "_to",
          "type": "address"
        }
      ],
      "name": "withdrawFee",
      "outputs": [],
      "stateMutability": "nonpayable",
      "type": "function"
    },
    {
      "inputs": [
        {
          "internalType": "address",
          "name": "_contractAddress",
          "type": "address"
        },
        {
          "internalType": "address",
          "name": "_erc20Addr",
          "type": "address"
        },
        {
          "internalType": "uint256",
          "name": "_numberOfTokens",
          "type": "uint256"
        },
        {
          "internalType": "address",
          "name": "_from",
          "type": "address"
        },
        {
          "internalType": "address",
          "name": "_to",
          "type": "address"
        }
      ],
      "name": "withdrawForCeX",
      "outputs": [],
      "stateMutability": "nonpayable",
      "type": "function"
    },
    {
      "inputs": [
        {
          "internalType": "address",
          "name": "_contractAddress",
          "type": "address"
        },
        {
          "internalType": "address",
          "name": "_erc20Addr",
          "type": "address"
        },
        {
          "internalType": "uint256",
          "name": "_numberOfTokens",
          "type": "uint256"
        },
        {
          "internalType": "address",
          "name": "_from",
          "type": "address"
        },
        {
          "internalType": "address",
          "name": "_to",
          "type": "address"
        }
      ],
      "name": "withdrawForCompliance",
      "outputs": [],
      "stateMutability": "nonpayable",
      "type": "function"
    },
    {
      "stateMutability": "payable",
      "type": "receive"
    }
  ],
  "bytecode": "0x608060405234801561001057600080fd5b506132f0806100206000396000f3fe6080604052600436106100e15760003560e01c80638129fc1c1161007f578063aff3c1a511610059578063aff3c1a51461025f578063ec634f7714610288578063f072476e146102b3578063f2fde38b146102f0576100eb565b80638129fc1c146101f45780638da5cb5b1461020b5780639483a1da14610236576100eb565b806331d7d650116100bb57806331d7d65014610160578063549ee5b814610189578063715018a6146101b2578063721d7d8e146101c9576100eb565b8063035bedfe146100f05780631ac3ddeb1461011b578063298e4f7914610144576100eb565b366100eb57600080fd5b600080fd5b3480156100fc57600080fd5b50610105610319565b60405161011291906116b4565b60405180910390f35b34801561012757600080fd5b50610142600480360381019061013d91906113c0565b6103c0565b005b61015e60048036038101906101599190611495565b610412565b005b34801561016c57600080fd5b506101876004803603810190610182919061141a565b610965565b005b34801561019557600080fd5b506101b060048036038101906101ab919061141a565b6109ee565b005b3480156101be57600080fd5b506101c7610aff565b005b3480156101d557600080fd5b506101de610b13565b6040516101eb91906116ea565b60405180910390f35b34801561020057600080fd5b50610209610b39565b005b34801561021757600080fd5b50610220610c80565b60405161022d91906116b4565b60405180910390f35b34801561024257600080fd5b5061025d6004803603810190610258919061141a565b610caa565b005b34801561026b57600080fd5b506102866004803603810190610281919061141a565b610d2a565b005b34801561029457600080fd5b5061029d610ee5565b6040516102aa91906116b4565b60405180910390f35b3480156102bf57600080fd5b506102da60048036038101906102d591906113c0565b610f0f565b6040516102e79190611918565b60405180910390f35b3480156102fc57600080fd5b50610317600480360381019061031291906113c0565b610f2f565b005b6000606660009054906101000a900473ffffffffffffffffffffffffffffffffffffffff1673ffffffffffffffffffffffffffffffffffffffff16638da5cb5b6040518163ffffffff1660e01b815260040160206040518083038186803b15801561038357600080fd5b505afa158015610397573d6000803e3d6000fd5b505050506040513d601f19601f820116820180604052508101906103bb91906113ed565b905090565b6103c8610fb3565b8073ffffffffffffffffffffffffffffffffffffffff166108fc479081150290604051600060405180830381858888f1935050505015801561040e573d6000803e3d6000fd5b5050565b655af3107a400034101561045b576040517f08c379a000000000000000000000000000000000000000000000000000000000815260040161045290611838565b60405180910390fd5b600360656000606660009054906101000a900473ffffffffffffffffffffffffffffffffffffffff1673ffffffffffffffffffffffffffffffffffffffff1673ffffffffffffffffffffffffffffffffffffffff16815260200190815260200160002060009054906101000a900460ff1660ff1614156104df576104dd611031565b505b600073ffffffffffffffffffffffffffffffffffffffff168373ffffffffffffffffffffffffffffffffffffffff16141561069957660110d9316ec000655af3107a40003461052e919061197b565b101561056f576040517f08c379a000000000000000000000000000000000000000000000000000000000815260040161056690611898565b60405180910390fd5b606660009054906101000a900473ffffffffffffffffffffffffffffffffffffffff1673ffffffffffffffffffffffffffffffffffffffff166108fc655af3107a4000346105bd919061197b565b9081150290604051600060405180830381858888f193505050501580156105e8573d6000803e3d6000fd5b50606660009054906101000a900473ffffffffffffffffffffffffffffffffffffffff1673ffffffffffffffffffffffffffffffffffffffff1663b1d1ec1961062f61119f565b85655af3107a400034610642919061197b565b856040518563ffffffff1660e01b81526004016106629493929190611765565b600060405180830381600087803b15801561067c57600080fd5b505af1158015610690573d6000803e3d6000fd5b505050506108ca565b68056bc75e2d631000008373ffffffffffffffffffffffffffffffffffffffff1663dd62ed3e6106c761119f565b306040518363ffffffff1660e01b81526004016106e5929190611705565b60206040518083038186803b1580156106fd57600080fd5b505afa158015610711573d6000803e3d6000fd5b505050506040513d601f19601f820116820180604052508101906107359190611515565b1015610776576040517f08c379a000000000000000000000000000000000000000000000000000000000815260040161076d90611898565b60405180910390fd5b8273ffffffffffffffffffffffffffffffffffffffff166323b872dd61079a61119f565b606660009054906101000a900473ffffffffffffffffffffffffffffffffffffffff16856040518463ffffffff1660e01b81526004016107dc9392919061172e565b602060405180830381600087803b1580156107f657600080fd5b505af115801561080a573d6000803e3d6000fd5b505050506040513d601f19601f8201168201806040525081019061082e91906114e8565b50606660009054906101000a900473ffffffffffffffffffffffffffffffffffffffff1673ffffffffffffffffffffffffffffffffffffffff1663b1d1ec1961087561119f565b8585856040518563ffffffff1660e01b81526004016108979493929190611765565b600060405180830381600087803b1580156108b157600080fd5b505af11580156108c5573d6000803e3d6000fd5b505050505b600160656000606660009054906101000a900473ffffffffffffffffffffffffffffffffffffffff1673ffffffffffffffffffffffffffffffffffffffff1673ffffffffffffffffffffffffffffffffffffffff16815260200190815260200160002060008282829054906101000a900460ff166109489190611944565b92506101000a81548160ff021916908360ff160217905550505050565b61096d610fb3565b8473ffffffffffffffffffffffffffffffffffffffff166331d7d65083868685610995610c80565b6040518663ffffffff1660e01b81526004016109b59594939291906117aa565b600060405180830381600087803b1580156109cf57600080fd5b505af11580156109e3573d6000803e3d6000fd5b505050505050505050565b6109f6610fb3565b606660009054906101000a900473ffffffffffffffffffffffffffffffffffffffff1673ffffffffffffffffffffffffffffffffffffffff168573ffffffffffffffffffffffffffffffffffffffff161415610a87576040517f08c379a0000000000000000000000000000000000000000000000000000000008152600401610a7e90611858565b60405180910390fd5b8473ffffffffffffffffffffffffffffffffffffffff166353ba6007838686856040518563ffffffff1660e01b8152600401610ac69493929190611765565b600060405180830381600087803b158015610ae057600080fd5b505af1158015610af4573d6000803e3d6000fd5b505050505050505050565b610b07610fb3565b610b1160006111a7565b565b606660009054906101000a900473ffffffffffffffffffffffffffffffffffffffff1681565b60008060019054906101000a900460ff16159050808015610b6a5750600160008054906101000a900460ff1660ff16105b80610b975750610b793061126d565b158015610b965750600160008054906101000a900460ff1660ff16145b5b610bd6576040517f08c379a0000000000000000000000000000000000000000000000000000000008152600401610bcd90611878565b60405180910390fd5b60016000806101000a81548160ff021916908360ff1602179055508015610c13576001600060016101000a81548160ff0219169083151502179055505b610c1b611290565b610c23611031565b508015610c7d5760008060016101000a81548160ff0219169083151502179055507f7f26b83ff96e1f2b6a682f133852f6798a09c465da95921460cefb38474024986001604051610c7491906117fd565b60405180910390a15b50565b6000603360009054906101000a900473ffffffffffffffffffffffffffffffffffffffff16905090565b610cb2610fb3565b8473ffffffffffffffffffffffffffffffffffffffff16630e917f76838686856040518563ffffffff1660e01b8152600401610cf19493929190611765565b600060405180830381600087803b158015610d0b57600080fd5b505af1158015610d1f573d6000803e3d6000fd5b505050505050505050565b606660009054906101000a900473ffffffffffffffffffffffffffffffffffffffff1673ffffffffffffffffffffffffffffffffffffffff168573ffffffffffffffffffffffffffffffffffffffff161415610dbb576040517f08c379a0000000000000000000000000000000000000000000000000000000008152600401610db290611858565b60405180910390fd5b8173ffffffffffffffffffffffffffffffffffffffff16610dda61119f565b73ffffffffffffffffffffffffffffffffffffffff161480610e2e57508073ffffffffffffffffffffffffffffffffffffffff16610e1661119f565b73ffffffffffffffffffffffffffffffffffffffff16145b610e6d576040517f08c379a0000000000000000000000000000000000000000000000000000000008152600401610e64906118d8565b60405180910390fd5b8473ffffffffffffffffffffffffffffffffffffffff16630e917f76838686856040518563ffffffff1660e01b8152600401610eac9493929190611765565b600060405180830381600087803b158015610ec657600080fd5b505af1158015610eda573d6000803e3d6000fd5b505050505050505050565b6000606660009054906101000a900473ffffffffffffffffffffffffffffffffffffffff16905090565b60656020528060005260406000206000915054906101000a900460ff1681565b610f37610fb3565b600073ffffffffffffffffffffffffffffffffffffffff168173ffffffffffffffffffffffffffffffffffffffff161415610fa7576040517f08c379a0000000000000000000000000000000000000000000000000000000008152600401610f9e90611818565b60405180910390fd5b610fb0816111a7565b50565b610fbb61119f565b73ffffffffffffffffffffffffffffffffffffffff16610fd9610c80565b73ffffffffffffffffffffffffffffffffffffffff161461102f576040517f08c379a0000000000000000000000000000000000000000000000000000000008152600401611026906118b8565b60405180910390fd5b565b600060405161103f9061134a565b604051809103906000f08015801561105b573d6000803e3d6000fd5b50606660006101000a81548173ffffffffffffffffffffffffffffffffffffffff021916908373ffffffffffffffffffffffffffffffffffffffff1602179055507fff930b9a7b49209e6e4aaca7250915fa46f36a097caed9bc228fb268db60f770606660009054906101000a900473ffffffffffffffffffffffffffffffffffffffff166040516110ed91906116cf565b60405180910390a1606660009054906101000a900473ffffffffffffffffffffffffffffffffffffffff1673ffffffffffffffffffffffffffffffffffffffff16638129fc1c6040518163ffffffff1660e01b8152600401600060405180830381600087803b15801561115f57600080fd5b505af1158015611173573d6000803e3d6000fd5b50505050606660009054906101000a900473ffffffffffffffffffffffffffffffffffffffff16905090565b600033905090565b6000603360009054906101000a900473ffffffffffffffffffffffffffffffffffffffff16905081603360006101000a81548173ffffffffffffffffffffffffffffffffffffffff021916908373ffffffffffffffffffffffffffffffffffffffff1602179055508173ffffffffffffffffffffffffffffffffffffffff168173ffffffffffffffffffffffffffffffffffffffff167f8be0079c531659141344cd1fd0a4f28419497f9722a3daafe3b4186f6b6457e060405160405180910390a35050565b6000808273ffffffffffffffffffffffffffffffffffffffff163b119050919050565b600060019054906101000a900460ff166112df576040517f08c379a00000000000000000000000000000000000000000000000000000000081526004016112d6906118f8565b60405180910390fd5b6112e76112e9565b565b600060019054906101000a900460ff16611338576040517f08c379a000000000000000000000000000000000000000000000000000000000815260040161132f906118f8565b60405180910390fd5b61134861134361119f565b6111a7565b565b6115b780611d0483390190565b60008135905061136681611cbe565b92915050565b60008151905061137b81611cbe565b92915050565b60008151905061139081611cd5565b92915050565b6000813590506113a581611cec565b92915050565b6000815190506113ba81611cec565b92915050565b6000602082840312156113d6576113d5611a8d565b5b60006113e484828501611357565b91505092915050565b60006020828403121561140357611402611a8d565b5b60006114118482850161136c565b91505092915050565b600080600080600060a0868803121561143657611435611a8d565b5b600061144488828901611357565b955050602061145588828901611357565b945050604061146688828901611396565b935050606061147788828901611357565b925050608061148888828901611357565b9150509295509295909350565b6000806000606084860312156114ae576114ad611a8d565b5b60006114bc86828701611357565b93505060206114cd86828701611396565b92505060406114de86828701611357565b9150509250925092565b6000602082840312156114fe576114fd611a8d565b5b600061150c84828501611381565b91505092915050565b60006020828403121561152b5761152a611a8d565b5b6000611539848285016113ab565b91505092915050565b61154b81611a16565b82525050565b61155a816119c1565b82525050565b611569816119af565b82525050565b61157881611a28565b82525050565b600061158b602683611933565b915061159682611a92565b604082019050919050565b60006115ae602083611933565b91506115b982611ae1565b602082019050919050565b60006115d1603183611933565b91506115dc82611b0a565b604082019050919050565b60006115f4602e83611933565b91506115ff82611b59565b604082019050919050565b6000611617602783611933565b915061162282611ba8565b604082019050919050565b600061163a602083611933565b915061164582611bf7565b602082019050919050565b600061165d602883611933565b915061166882611c20565b604082019050919050565b6000611680602b83611933565b915061168b82611c6f565b604082019050919050565b61169f816119ff565b82525050565b6116ae81611a09565b82525050565b60006020820190506116c96000830184611560565b92915050565b60006020820190506116e46000830184611542565b92915050565b60006020820190506116ff6000830184611551565b92915050565b600060408201905061171a6000830185611560565b6117276020830184611560565b9392505050565b60006060820190506117436000830186611560565b6117506020830185611542565b61175d6040830184611696565b949350505050565b600060808201905061177a6000830187611560565b6117876020830186611560565b6117946040830185611696565b6117a16060830184611560565b95945050505050565b600060a0820190506117bf6000830188611560565b6117cc6020830187611560565b6117d96040830186611696565b6117e66060830185611560565b6117f36080830184611560565b9695505050505050565b6000602082019050611812600083018461156f565b92915050565b600060208201905081810360008301526118318161157e565b9050919050565b60006020820190508181036000830152611851816115a1565b9050919050565b60006020820190508181036000830152611871816115c4565b9050919050565b60006020820190508181036000830152611891816115e7565b9050919050565b600060208201905081810360008301526118b18161160a565b9050919050565b600060208201905081810360008301526118d18161162d565b9050919050565b600060208201905081810360008301526118f181611650565b9050919050565b6000602082019050818103600083015261191181611673565b9050919050565b600060208201905061192d60008301846116a5565b92915050565b600082825260208201905092915050565b600061194f82611a09565b915061195a83611a09565b92508260ff038211156119705761196f611a5e565b5b828201905092915050565b6000611986826119ff565b9150611991836119ff565b9250828210156119a4576119a3611a5e565b5b828203905092915050565b60006119ba826119df565b9050919050565b60006119cc826119df565b9050919050565b60008115159050919050565b600073ffffffffffffffffffffffffffffffffffffffff82169050919050565b6000819050919050565b600060ff82169050919050565b6000611a2182611a3a565b9050919050565b6000611a3382611a09565b9050919050565b6000611a4582611a4c565b9050919050565b6000611a57826119df565b9050919050565b7f4e487b7100000000000000000000000000000000000000000000000000000000600052601160045260246000fd5b600080fd5b7f4f776e61626c653a206e6577206f776e657220697320746865207a65726f206160008201527f6464726573730000000000000000000000000000000000000000000000000000602082015250565b7f4d697865723a2046656520746f20636f6e7472616374206e6f742073656e7421600082015250565b7f4d697865723a2043616e277420776974686472617720756e74696c207468652060008201527f636f6e74726163742069732066756c6c2e000000000000000000000000000000602082015250565b7f496e697469616c697a61626c653a20636f6e747261637420697320616c72656160008201527f647920696e697469616c697a6564000000000000000000000000000000000000602082015250565b7f4d697865723a204d696e2062616c616e636520746f206465706f736974206e6f60008201527f742073656e742100000000000000000000000000000000000000000000000000602082015250565b7f4f776e61626c653a2063616c6c6572206973206e6f7420746865206f776e6572600082015250565b7f4d697865723a204e6f7420617574686f72697a656420746f207769746864726160008201527f772066756e64732e000000000000000000000000000000000000000000000000602082015250565b7f496e697469616c697a61626c653a20636f6e7472616374206973206e6f74206960008201527f6e697469616c697a696e67000000000000000000000000000000000000000000602082015250565b611cc7816119af565b8114611cd257600080fd5b50565b611cde816119d3565b8114611ce957600080fd5b50565b611cf5816119ff565b8114611d0057600080fd5b5056fe608060405234801561001057600080fd5b50611597806100206000396000f3fe60806040526004361061008a5760003560e01c80638129fc1c116100595780638129fc1c146101285780638da5cb5b1461013f578063b1d1ec191461016a578063ba0b7dee14610193578063f2fde38b146101d057610091565b80630e917f761461009657806331d7d650146100bf57806353ba6007146100e8578063715018a61461011157610091565b3661009157005b600080fd5b3480156100a257600080fd5b506100bd60048036038101906100b8919061100e565b6101f9565b005b3480156100cb57600080fd5b506100e660048036038101906100e19190611075565b6104ad565b005b3480156100f457600080fd5b5061010f600480360381019061010a919061100e565b610762565b005b34801561011d57600080fd5b50610126610a16565b005b34801561013457600080fd5b5061013d610a2a565b005b34801561014b57600080fd5b50610154610b68565b60405161016191906111d6565b60405180910390f35b34801561017657600080fd5b50610191600480360381019061018c919061100e565b610b92565b005b34801561019f57600080fd5b506101ba60048036038101906101b59190610fbb565b610c70565b6040516101c791906112b5565b60405180910390f35b3480156101dc57600080fd5b506101f760048036038101906101f29190610f8e565b610ca2565b005b610201610d26565b81606560008673ffffffffffffffffffffffffffffffffffffffff1673ffffffffffffffffffffffffffffffffffffffff16815260200190815260200160002060008573ffffffffffffffffffffffffffffffffffffffff1673ffffffffffffffffffffffffffffffffffffffff16815260200190815260200160002060008373ffffffffffffffffffffffffffffffffffffffff1673ffffffffffffffffffffffffffffffffffffffff1681526020019081526020016000205410156102c757600080fd5b81606560008673ffffffffffffffffffffffffffffffffffffffff1673ffffffffffffffffffffffffffffffffffffffff16815260200190815260200160002060008573ffffffffffffffffffffffffffffffffffffffff1673ffffffffffffffffffffffffffffffffffffffff16815260200190815260200160002060008373ffffffffffffffffffffffffffffffffffffffff1673ffffffffffffffffffffffffffffffffffffffff16815260200190815260200160002060008282546103909190611337565b92505081905550600073ffffffffffffffffffffffffffffffffffffffff168373ffffffffffffffffffffffffffffffffffffffff161415610418578073ffffffffffffffffffffffffffffffffffffffff166108fc839081150290604051600060405180830381858888f19350505050158015610412573d6000803e3d6000fd5b506104a7565b8273ffffffffffffffffffffffffffffffffffffffff1663a9059cbb82846040518363ffffffff1660e01b81526004016104539291906111f1565b602060405180830381600087803b15801561046d57600080fd5b505af1158015610481573d6000803e3d6000fd5b505050506040513d601f19601f820116820180604052508101906104a591906110f0565b505b50505050565b6104b5610d26565b82606560008773ffffffffffffffffffffffffffffffffffffffff1673ffffffffffffffffffffffffffffffffffffffff16815260200190815260200160002060008673ffffffffffffffffffffffffffffffffffffffff1673ffffffffffffffffffffffffffffffffffffffff16815260200190815260200160002060008473ffffffffffffffffffffffffffffffffffffffff1673ffffffffffffffffffffffffffffffffffffffff16815260200190815260200160002054101561057b57600080fd5b82606560008773ffffffffffffffffffffffffffffffffffffffff1673ffffffffffffffffffffffffffffffffffffffff16815260200190815260200160002060008673ffffffffffffffffffffffffffffffffffffffff1673ffffffffffffffffffffffffffffffffffffffff16815260200190815260200160002060008473ffffffffffffffffffffffffffffffffffffffff1673ffffffffffffffffffffffffffffffffffffffff16815260200190815260200160002060008282546106449190611337565b92505081905550600073ffffffffffffffffffffffffffffffffffffffff168473ffffffffffffffffffffffffffffffffffffffff1614156106cc578073ffffffffffffffffffffffffffffffffffffffff166108fc849081150290604051600060405180830381858888f193505050501580156106c6573d6000803e3d6000fd5b5061075b565b8373ffffffffffffffffffffffffffffffffffffffff1663a9059cbb82856040518363ffffffff1660e01b81526004016107079291906111f1565b602060405180830381600087803b15801561072157600080fd5b505af1158015610735573d6000803e3d6000fd5b505050506040513d601f19601f8201168201806040525081019061075991906110f0565b505b5050505050565b61076a610d26565b81606560008673ffffffffffffffffffffffffffffffffffffffff1673ffffffffffffffffffffffffffffffffffffffff16815260200190815260200160002060008573ffffffffffffffffffffffffffffffffffffffff1673ffffffffffffffffffffffffffffffffffffffff16815260200190815260200160002060008373ffffffffffffffffffffffffffffffffffffffff1673ffffffffffffffffffffffffffffffffffffffff16815260200190815260200160002054101561083057600080fd5b81606560008673ffffffffffffffffffffffffffffffffffffffff1673ffffffffffffffffffffffffffffffffffffffff16815260200190815260200160002060008573ffffffffffffffffffffffffffffffffffffffff1673ffffffffffffffffffffffffffffffffffffffff16815260200190815260200160002060008373ffffffffffffffffffffffffffffffffffffffff1673ffffffffffffffffffffffffffffffffffffffff16815260200190815260200160002060008282546108f99190611337565b92505081905550600073ffffffffffffffffffffffffffffffffffffffff168373ffffffffffffffffffffffffffffffffffffffff161415610981578073ffffffffffffffffffffffffffffffffffffffff166108fc839081150290604051600060405180830381858888f1935050505015801561097b573d6000803e3d6000fd5b50610a10565b8273ffffffffffffffffffffffffffffffffffffffff1663a9059cbb82846040518363ffffffff1660e01b81526004016109bc9291906111f1565b602060405180830381600087803b1580156109d657600080fd5b505af11580156109ea573d6000803e3d6000fd5b505050506040513d601f19601f82011682018060405250810190610a0e91906110f0565b505b50505050565b610a1e610d26565b610a286000610da4565b565b60008060019054906101000a900460ff16159050808015610a5b5750600160008054906101000a900460ff1660ff16105b80610a885750610a6a30610e6a565b158015610a875750600160008054906101000a900460ff1660ff16145b5b610ac7576040517f08c379a0000000000000000000000000000000000000000000000000000000008152600401610abe90611255565b60405180910390fd5b60016000806101000a81548160ff021916908360ff1602179055508015610b04576001600060016101000a81548160ff0219169083151502179055505b610b0c610e8d565b8015610b655760008060016101000a81548160ff0219169083151502179055507f7f26b83ff96e1f2b6a682f133852f6798a09c465da95921460cefb38474024986001604051610b5c919061121a565b60405180910390a15b50565b6000603360009054906101000a900473ffffffffffffffffffffffffffffffffffffffff16905090565b610b9a610d26565b81606560008673ffffffffffffffffffffffffffffffffffffffff1673ffffffffffffffffffffffffffffffffffffffff16815260200190815260200160002060008573ffffffffffffffffffffffffffffffffffffffff1673ffffffffffffffffffffffffffffffffffffffff16815260200190815260200160002060008373ffffffffffffffffffffffffffffffffffffffff1673ffffffffffffffffffffffffffffffffffffffff1681526020019081526020016000206000828254610c6391906112e1565b9250508190555050505050565b606560205282600052604060002060205281600052604060002060205280600052604060002060009250925050505481565b610caa610d26565b600073ffffffffffffffffffffffffffffffffffffffff168173ffffffffffffffffffffffffffffffffffffffff161415610d1a576040517f08c379a0000000000000000000000000000000000000000000000000000000008152600401610d1190611235565b60405180910390fd5b610d2381610da4565b50565b610d2e610ee6565b73ffffffffffffffffffffffffffffffffffffffff16610d4c610b68565b73ffffffffffffffffffffffffffffffffffffffff1614610da2576040517f08c379a0000000000000000000000000000000000000000000000000000000008152600401610d9990611275565b60405180910390fd5b565b6000603360009054906101000a900473ffffffffffffffffffffffffffffffffffffffff16905081603360006101000a81548173ffffffffffffffffffffffffffffffffffffffff021916908373ffffffffffffffffffffffffffffffffffffffff1602179055508173ffffffffffffffffffffffffffffffffffffffff168173ffffffffffffffffffffffffffffffffffffffff167f8be0079c531659141344cd1fd0a4f28419497f9722a3daafe3b4186f6b6457e060405160405180910390a35050565b6000808273ffffffffffffffffffffffffffffffffffffffff163b119050919050565b600060019054906101000a900460ff16610edc576040517f08c379a0000000000000000000000000000000000000000000000000000000008152600401610ed390611295565b60405180910390fd5b610ee4610eee565b565b600033905090565b600060019054906101000a900460ff16610f3d576040517f08c379a0000000000000000000000000000000000000000000000000000000008152600401610f3490611295565b60405180910390fd5b610f4d610f48610ee6565b610da4565b565b600081359050610f5e8161151c565b92915050565b600081519050610f7381611533565b92915050565b600081359050610f888161154a565b92915050565b600060208284031215610fa457610fa3611401565b5b6000610fb284828501610f4f565b91505092915050565b600080600060608486031215610fd457610fd3611401565b5b6000610fe286828701610f4f565b9350506020610ff386828701610f4f565b925050604061100486828701610f4f565b9150509250925092565b6000806000806080858703121561102857611027611401565b5b600061103687828801610f4f565b945050602061104787828801610f4f565b935050604061105887828801610f79565b925050606061106987828801610f4f565b91505092959194509250565b600080600080600060a0868803121561109157611090611401565b5b600061109f88828901610f4f565b95505060206110b088828901610f4f565b94505060406110c188828901610f79565b93505060606110d288828901610f4f565b92505060806110e388828901610f4f565b9150509295509295909350565b60006020828403121561110657611105611401565b5b600061111484828501610f64565b91505092915050565b6111268161136b565b82525050565b611135816113c0565b82525050565b60006111486026836112d0565b915061115382611406565b604082019050919050565b600061116b602e836112d0565b915061117682611455565b604082019050919050565b600061118e6020836112d0565b9150611199826114a4565b602082019050919050565b60006111b1602b836112d0565b91506111bc826114cd565b604082019050919050565b6111d0816113a9565b82525050565b60006020820190506111eb600083018461111d565b92915050565b6000604082019050611206600083018561111d565b61121360208301846111c7565b9392505050565b600060208201905061122f600083018461112c565b92915050565b6000602082019050818103600083015261124e8161113b565b9050919050565b6000602082019050818103600083015261126e8161115e565b9050919050565b6000602082019050818103600083015261128e81611181565b9050919050565b600060208201905081810360008301526112ae816111a4565b9050919050565b60006020820190506112ca60008301846111c7565b92915050565b600082825260208201905092915050565b60006112ec826113a9565b91506112f7836113a9565b9250827fffffffffffffffffffffffffffffffffffffffffffffffffffffffffffffffff0382111561132c5761132b6113d2565b5b828201905092915050565b6000611342826113a9565b915061134d836113a9565b9250828210156113605761135f6113d2565b5b828203905092915050565b600061137682611389565b9050919050565b60008115159050919050565b600073ffffffffffffffffffffffffffffffffffffffff82169050919050565b6000819050919050565b600060ff82169050919050565b60006113cb826113b3565b9050919050565b7f4e487b7100000000000000000000000000000000000000000000000000000000600052601160045260246000fd5b600080fd5b7f4f776e61626c653a206e6577206f776e657220697320746865207a65726f206160008201527f6464726573730000000000000000000000000000000000000000000000000000602082015250565b7f496e697469616c697a61626c653a20636f6e747261637420697320616c72656160008201527f647920696e697469616c697a6564000000000000000000000000000000000000602082015250565b7f4f776e61626c653a2063616c6c6572206973206e6f7420746865206f776e6572600082015250565b7f496e697469616c697a61626c653a20636f6e7472616374206973206e6f74206960008201527f6e697469616c697a696e67000000000000000000000000000000000000000000602082015250565b6115258161136b565b811461153057600080fd5b50565b61153c8161137d565b811461154757600080fd5b50565b611553816113a9565b811461155e57600080fd5b5056fea26469706673582212209648fa9cdbbd1b8613bc9d04fb7d3e03296ed78fe3ab35e2214cd16575a20c0e64736f6c63430008070033a264697066735822122069b4949a3ef0693068571b973ba0730efde7907197be885db69caac70c8607c164736f6c63430008070033",
  "linkReferences": {},
  "deployedLinkReferences": {}
}