{
  "_format": "hh-sol-artifact-1",
  "contractName": "Mixer",
  "sourceName": "contracts/Mixer.sol",
  "abi": [
    {
      "anonymous": false,
      "inputs": [
        {
          "indexed": false,
          "internalType": "uint8",
          "name": "version",
          "type": "uint8"
        }
      ],
      "name": "Initialized",
      "type": "event"
    },
    {
      "anonymous": false,
      "inputs": [
        {
          "indexed": false,
          "internalType": "address",
          "name": "",
          "type": "address"
        }
      ],
      "name": "NewInnerContractCreated",
      "type": "event"
    },
    {
      "anonymous": false,
      "inputs": [
        {
          "indexed": true,
          "internalType": "address",
          "name": "previousOwner",
          "type": "address"
        },
        {
          "indexed": true,
          "internalType": "address",
          "name": "newOwner",
          "type": "address"
        }
      ],
      "name": "OwnershipTransferred",
      "type": "event"
    },
    {
      "inputs": [
        {
          "internalType": "address",
          "name": "",
          "type": "address"
        }
      ],
      "name": "addressDeposits",
      "outputs": [
        {
          "internalType": "uint8",
          "name": "",
          "type": "uint8"
        }
      ],
      "stateMutability": "view",
      "type": "function"
    },
    {
      "inputs": [],
      "name": "currentContract",
      "outputs": [
        {
          "internalType": "address payable",
          "name": "",
          "type": "address"
        }
      ],
      "stateMutability": "view",
      "type": "function"
    },
    {
      "inputs": [
        {
          "internalType": "address",
          "name": "_erc20Addr",
          "type": "address"
        },
        {
          "internalType": "uint256",
          "name": "_numberOfTokens",
          "type": "uint256"
        },
        {
          "internalType": "address",
          "name": "_to",
          "type": "address"
        }
      ],
      "name": "depositTokens",
      "outputs": [],
      "stateMutability": "payable",
      "type": "function"
    },
    {
      "inputs": [],
      "name": "getCurrentContract",
      "outputs": [
        {
          "internalType": "address",
          "name": "",
          "type": "address"
        }
      ],
      "stateMutability": "view",
      "type": "function"
    },
    {
      "inputs": [],
      "name": "getOwnerOfInner",
      "outputs": [
        {
          "internalType": "address",
          "name": "",
          "type": "address"
        }
      ],
      "stateMutability": "view",
      "type": "function"
    },
    {
      "inputs": [],
      "name": "initialize",
      "outputs": [],
      "stateMutability": "nonpayable",
      "type": "function"
    },
    {
      "inputs": [],
      "name": "owner",
      "outputs": [
        {
          "internalType": "address",
          "name": "",
          "type": "address"
        }
      ],
      "stateMutability": "view",
      "type": "function"
    },
    {
      "inputs": [],
      "name": "renounceOwnership",
      "outputs": [],
      "stateMutability": "nonpayable",
      "type": "function"
    },
    {
      "inputs": [
        {
          "internalType": "address",
          "name": "newOwner",
          "type": "address"
        }
      ],
      "name": "transferOwnership",
      "outputs": [],
      "stateMutability": "nonpayable",
      "type": "function"
    },
    {
      "inputs": [
        {
          "internalType": "address",
          "name": "_contractAddress",
          "type": "address"
        },
        {
          "internalType": "address",
          "name": "_erc20Addr",
          "type": "address"
        },
        {
          "internalType": "uint256",
          "name": "_numberOfTokens",
          "type": "uint256"
        },
        {
          "internalType": "address",
          "name": "_from",
          "type": "address"
        },
        {
          "internalType": "address",
          "name": "_to",
          "type": "address"
        }
      ],
      "name": "withdraw",
      "outputs": [],
      "stateMutability": "nonpayable",
      "type": "function"
    },
    {
      "inputs": [
        {
          "internalType": "address",
          "name": "_to",
          "type": "address"
        }
      ],
      "name": "withdrawFee",
      "outputs": [],
      "stateMutability": "nonpayable",
      "type": "function"
    },
    {
      "inputs": [
        {
          "internalType": "address",
          "name": "_contractAddress",
          "type": "address"
        },
        {
          "internalType": "address",
          "name": "_erc20Addr",
          "type": "address"
        },
        {
          "internalType": "uint256",
          "name": "_numberOfTokens",
          "type": "uint256"
        },
        {
          "internalType": "address",
          "name": "_from",
          "type": "address"
        },
        {
          "internalType": "address",
          "name": "_to",
          "type": "address"
        }
      ],
      "name": "withdrawForCeX",
      "outputs": [],
      "stateMutability": "nonpayable",
      "type": "function"
    },
    {
      "inputs": [
        {
          "internalType": "address",
          "name": "_contractAddress",
          "type": "address"
        },
        {
          "internalType": "address",
          "name": "_erc20Addr",
          "type": "address"
        },
        {
          "internalType": "uint256",
          "name": "_numberOfTokens",
          "type": "uint256"
        },
        {
          "internalType": "address",
          "name": "_from",
          "type": "address"
        },
        {
          "internalType": "address",
          "name": "_to",
          "type": "address"
        }
      ],
      "name": "withdrawForCompliance",
      "outputs": [],
      "stateMutability": "nonpayable",
      "type": "function"
    },
    {
      "stateMutability": "payable",
      "type": "receive"
    }
  ],
  "bytecode": "0x608060405234801561001057600080fd5b5061319c806100206000396000f3fe6080604052600436106100c65760003560e01c8063721d7d8e1161007f578063aff3c1a511610059578063aff3c1a51461021b578063ec634f7714610244578063f072476e1461026f578063f2fde38b146102ac576100d0565b8063721d7d8e146101ae5780638129fc1c146101d95780638da5cb5b146101f0576100d0565b8063035bedfe146100d55780631ac3ddeb14610100578063298e4f791461012957806331d7d65014610145578063549ee5b81461016e578063715018a614610197576100d0565b366100d057600080fd5b600080fd5b3480156100e157600080fd5b506100ea6102d5565b6040516100f79190611560565b60405180910390f35b34801561010c57600080fd5b506101276004803603810190610122919061126c565b61037c565b005b610143600480360381019061013e9190611341565b6103ce565b005b34801561015157600080fd5b5061016c600480360381019061016791906112c6565b610922565b005b34801561017a57600080fd5b50610195600480360381019061019091906112c6565b6109ab565b005b3480156101a357600080fd5b506101ac610a2b565b005b3480156101ba57600080fd5b506101c3610a3f565b6040516101d09190611596565b60405180910390f35b3480156101e557600080fd5b506101ee610a65565b005b3480156101fc57600080fd5b50610205610bac565b6040516102129190611560565b60405180910390f35b34801561022757600080fd5b50610242600480360381019061023d91906112c6565b610bd6565b005b34801561025057600080fd5b50610259610d91565b6040516102669190611560565b60405180910390f35b34801561027b57600080fd5b506102966004803603810190610291919061126c565b610dbb565b6040516102a391906117c4565b60405180910390f35b3480156102b857600080fd5b506102d360048036038101906102ce919061126c565b610ddb565b005b6000606660009054906101000a900473ffffffffffffffffffffffffffffffffffffffff1673ffffffffffffffffffffffffffffffffffffffff16638da5cb5b6040518163ffffffff1660e01b815260040160206040518083038186803b15801561033f57600080fd5b505afa158015610353573d6000803e3d6000fd5b505050506040513d601f19601f820116820180604052508101906103779190611299565b905090565b610384610e5f565b8073ffffffffffffffffffffffffffffffffffffffff166108fc479081150290604051600060405180830381858888f193505050501580156103ca573d6000803e3d6000fd5b5050565b655af3107a4000341015610417576040517f08c379a000000000000000000000000000000000000000000000000000000000815260040161040e906116e4565b60405180910390fd5b600360656000606660009054906101000a900473ffffffffffffffffffffffffffffffffffffffff1673ffffffffffffffffffffffffffffffffffffffff1673ffffffffffffffffffffffffffffffffffffffff16815260200190815260200160002060009054906101000a900460ff1660ff16141561049b57610499610edd565b505b600073ffffffffffffffffffffffffffffffffffffffff168373ffffffffffffffffffffffffffffffffffffffff16141561065657660110d9316ec000662386f26fc10000346104eb9190611827565b101561052c576040517f08c379a000000000000000000000000000000000000000000000000000000000815260040161052390611744565b60405180910390fd5b606660009054906101000a900473ffffffffffffffffffffffffffffffffffffffff1673ffffffffffffffffffffffffffffffffffffffff166108fc655af3107a40003461057a9190611827565b9081150290604051600060405180830381858888f193505050501580156105a5573d6000803e3d6000fd5b50606660009054906101000a900473ffffffffffffffffffffffffffffffffffffffff1673ffffffffffffffffffffffffffffffffffffffff1663b1d1ec196105ec61104b565b85655af3107a4000346105ff9190611827565b856040518563ffffffff1660e01b815260040161061f9493929190611611565b600060405180830381600087803b15801561063957600080fd5b505af115801561064d573d6000803e3d6000fd5b50505050610887565b68056bc75e2d631000008373ffffffffffffffffffffffffffffffffffffffff1663dd62ed3e61068461104b565b306040518363ffffffff1660e01b81526004016106a29291906115b1565b60206040518083038186803b1580156106ba57600080fd5b505afa1580156106ce573d6000803e3d6000fd5b505050506040513d601f19601f820116820180604052508101906106f291906113c1565b1015610733576040517f08c379a000000000000000000000000000000000000000000000000000000000815260040161072a90611744565b60405180910390fd5b8273ffffffffffffffffffffffffffffffffffffffff166323b872dd61075761104b565b606660009054906101000a900473ffffffffffffffffffffffffffffffffffffffff16856040518463ffffffff1660e01b8152600401610799939291906115da565b602060405180830381600087803b1580156107b357600080fd5b505af11580156107c7573d6000803e3d6000fd5b505050506040513d601f19601f820116820180604052508101906107eb9190611394565b50606660009054906101000a900473ffffffffffffffffffffffffffffffffffffffff1673ffffffffffffffffffffffffffffffffffffffff1663b1d1ec1961083261104b565b8585856040518563ffffffff1660e01b81526004016108549493929190611611565b600060405180830381600087803b15801561086e57600080fd5b505af1158015610882573d6000803e3d6000fd5b505050505b600160656000606660009054906101000a900473ffffffffffffffffffffffffffffffffffffffff1673ffffffffffffffffffffffffffffffffffffffff1673ffffffffffffffffffffffffffffffffffffffff16815260200190815260200160002060008282829054906101000a900460ff1661090591906117f0565b92506101000a81548160ff021916908360ff160217905550505050565b61092a610e5f565b8473ffffffffffffffffffffffffffffffffffffffff166331d7d65083868685610952610bac565b6040518663ffffffff1660e01b8152600401610972959493929190611656565b600060405180830381600087803b15801561098c57600080fd5b505af11580156109a0573d6000803e3d6000fd5b505050505050505050565b6109b3610e5f565b8473ffffffffffffffffffffffffffffffffffffffff166353ba6007838686856040518563ffffffff1660e01b81526004016109f29493929190611611565b600060405180830381600087803b158015610a0c57600080fd5b505af1158015610a20573d6000803e3d6000fd5b505050505050505050565b610a33610e5f565b610a3d6000611053565b565b606660009054906101000a900473ffffffffffffffffffffffffffffffffffffffff1681565b60008060019054906101000a900460ff16159050808015610a965750600160008054906101000a900460ff1660ff16105b80610ac35750610aa530611119565b158015610ac25750600160008054906101000a900460ff1660ff16145b5b610b02576040517f08c379a0000000000000000000000000000000000000000000000000000000008152600401610af990611724565b60405180910390fd5b60016000806101000a81548160ff021916908360ff1602179055508015610b3f576001600060016101000a81548160ff0219169083151502179055505b610b4761113c565b610b4f610edd565b508015610ba95760008060016101000a81548160ff0219169083151502179055507f7f26b83ff96e1f2b6a682f133852f6798a09c465da95921460cefb38474024986001604051610ba091906116a9565b60405180910390a15b50565b6000603360009054906101000a900473ffffffffffffffffffffffffffffffffffffffff16905090565b606660009054906101000a900473ffffffffffffffffffffffffffffffffffffffff1673ffffffffffffffffffffffffffffffffffffffff168573ffffffffffffffffffffffffffffffffffffffff161415610c67576040517f08c379a0000000000000000000000000000000000000000000000000000000008152600401610c5e90611704565b60405180910390fd5b8173ffffffffffffffffffffffffffffffffffffffff16610c8661104b565b73ffffffffffffffffffffffffffffffffffffffff161480610cda57508073ffffffffffffffffffffffffffffffffffffffff16610cc261104b565b73ffffffffffffffffffffffffffffffffffffffff16145b610d19576040517f08c379a0000000000000000000000000000000000000000000000000000000008152600401610d1090611784565b60405180910390fd5b8473ffffffffffffffffffffffffffffffffffffffff16630e917f76838686856040518563ffffffff1660e01b8152600401610d589493929190611611565b600060405180830381600087803b158015610d7257600080fd5b505af1158015610d86573d6000803e3d6000fd5b505050505050505050565b6000606660009054906101000a900473ffffffffffffffffffffffffffffffffffffffff16905090565b60656020528060005260406000206000915054906101000a900460ff1681565b610de3610e5f565b600073ffffffffffffffffffffffffffffffffffffffff168173ffffffffffffffffffffffffffffffffffffffff161415610e53576040517f08c379a0000000000000000000000000000000000000000000000000000000008152600401610e4a906116c4565b60405180910390fd5b610e5c81611053565b50565b610e6761104b565b73ffffffffffffffffffffffffffffffffffffffff16610e85610bac565b73ffffffffffffffffffffffffffffffffffffffff1614610edb576040517f08c379a0000000000000000000000000000000000000000000000000000000008152600401610ed290611764565b60405180910390fd5b565b6000604051610eeb906111f6565b604051809103906000f080158015610f07573d6000803e3d6000fd5b50606660006101000a81548173ffffffffffffffffffffffffffffffffffffffff021916908373ffffffffffffffffffffffffffffffffffffffff1602179055507fff930b9a7b49209e6e4aaca7250915fa46f36a097caed9bc228fb268db60f770606660009054906101000a900473ffffffffffffffffffffffffffffffffffffffff16604051610f99919061157b565b60405180910390a1606660009054906101000a900473ffffffffffffffffffffffffffffffffffffffff1673ffffffffffffffffffffffffffffffffffffffff16638129fc1c6040518163ffffffff1660e01b8152600401600060405180830381600087803b15801561100b57600080fd5b505af115801561101f573d6000803e3d6000fd5b50505050606660009054906101000a900473ffffffffffffffffffffffffffffffffffffffff16905090565b600033905090565b6000603360009054906101000a900473ffffffffffffffffffffffffffffffffffffffff16905081603360006101000a81548173ffffffffffffffffffffffffffffffffffffffff021916908373ffffffffffffffffffffffffffffffffffffffff1602179055508173ffffffffffffffffffffffffffffffffffffffff168173ffffffffffffffffffffffffffffffffffffffff167f8be0079c531659141344cd1fd0a4f28419497f9722a3daafe3b4186f6b6457e060405160405180910390a35050565b6000808273ffffffffffffffffffffffffffffffffffffffff163b119050919050565b600060019054906101000a900460ff1661118b576040517f08c379a0000000000000000000000000000000000000000000000000000000008152600401611182906117a4565b60405180910390fd5b611193611195565b565b600060019054906101000a900460ff166111e4576040517f08c379a00000000000000000000000000000000000000000000000000000000081526004016111db906117a4565b60405180910390fd5b6111f46111ef61104b565b611053565b565b6115b780611bb083390190565b60008135905061121281611b6a565b92915050565b60008151905061122781611b6a565b92915050565b60008151905061123c81611b81565b92915050565b60008135905061125181611b98565b92915050565b60008151905061126681611b98565b92915050565b60006020828403121561128257611281611939565b5b600061129084828501611203565b91505092915050565b6000602082840312156112af576112ae611939565b5b60006112bd84828501611218565b91505092915050565b600080600080600060a086880312156112e2576112e1611939565b5b60006112f088828901611203565b955050602061130188828901611203565b945050604061131288828901611242565b935050606061132388828901611203565b925050608061133488828901611203565b9150509295509295909350565b60008060006060848603121561135a57611359611939565b5b600061136886828701611203565b935050602061137986828701611242565b925050604061138a86828701611203565b9150509250925092565b6000602082840312156113aa576113a9611939565b5b60006113b88482850161122d565b91505092915050565b6000602082840312156113d7576113d6611939565b5b60006113e584828501611257565b91505092915050565b6113f7816118c2565b82525050565b6114068161186d565b82525050565b6114158161185b565b82525050565b611424816118d4565b82525050565b60006114376026836117df565b91506114428261193e565b604082019050919050565b600061145a6020836117df565b91506114658261198d565b602082019050919050565b600061147d6031836117df565b9150611488826119b6565b604082019050919050565b60006114a0602e836117df565b91506114ab82611a05565b604082019050919050565b60006114c36027836117df565b91506114ce82611a54565b604082019050919050565b60006114e66020836117df565b91506114f182611aa3565b602082019050919050565b60006115096028836117df565b915061151482611acc565b604082019050919050565b600061152c602b836117df565b915061153782611b1b565b604082019050919050565b61154b816118ab565b82525050565b61155a816118b5565b82525050565b6000602082019050611575600083018461140c565b92915050565b600060208201905061159060008301846113ee565b92915050565b60006020820190506115ab60008301846113fd565b92915050565b60006040820190506115c6600083018561140c565b6115d3602083018461140c565b9392505050565b60006060820190506115ef600083018661140c565b6115fc60208301856113ee565b6116096040830184611542565b949350505050565b6000608082019050611626600083018761140c565b611633602083018661140c565b6116406040830185611542565b61164d606083018461140c565b95945050505050565b600060a08201905061166b600083018861140c565b611678602083018761140c565b6116856040830186611542565b611692606083018561140c565b61169f608083018461140c565b9695505050505050565b60006020820190506116be600083018461141b565b92915050565b600060208201905081810360008301526116dd8161142a565b9050919050565b600060208201905081810360008301526116fd8161144d565b9050919050565b6000602082019050818103600083015261171d81611470565b9050919050565b6000602082019050818103600083015261173d81611493565b9050919050565b6000602082019050818103600083015261175d816114b6565b9050919050565b6000602082019050818103600083015261177d816114d9565b9050919050565b6000602082019050818103600083015261179d816114fc565b9050919050565b600060208201905081810360008301526117bd8161151f565b9050919050565b60006020820190506117d96000830184611551565b92915050565b600082825260208201905092915050565b60006117fb826118b5565b9150611806836118b5565b92508260ff0382111561181c5761181b61190a565b5b828201905092915050565b6000611832826118ab565b915061183d836118ab565b9250828210156118505761184f61190a565b5b828203905092915050565b60006118668261188b565b9050919050565b60006118788261188b565b9050919050565b60008115159050919050565b600073ffffffffffffffffffffffffffffffffffffffff82169050919050565b6000819050919050565b600060ff82169050919050565b60006118cd826118e6565b9050919050565b60006118df826118b5565b9050919050565b60006118f1826118f8565b9050919050565b60006119038261188b565b9050919050565b7f4e487b7100000000000000000000000000000000000000000000000000000000600052601160045260246000fd5b600080fd5b7f4f776e61626c653a206e6577206f776e657220697320746865207a65726f206160008201527f6464726573730000000000000000000000000000000000000000000000000000602082015250565b7f4d697865723a2046656520746f20636f6e7472616374206e6f742073656e7421600082015250565b7f4d697865723a2043616e277420776974686472617720756e74696c207468652060008201527f636f6e74726163742069732066756c6c2e000000000000000000000000000000602082015250565b7f496e697469616c697a61626c653a20636f6e747261637420697320616c72656160008201527f647920696e697469616c697a6564000000000000000000000000000000000000602082015250565b7f4d697865723a204d696e2062616c616e636520746f206465706f736974206e6f60008201527f742073656e742100000000000000000000000000000000000000000000000000602082015250565b7f4f776e61626c653a2063616c6c6572206973206e6f7420746865206f776e6572600082015250565b7f4d697865723a204e6f7420617574686f72697a656420746f207769746864726160008201527f772066756e64732e000000000000000000000000000000000000000000000000602082015250565b7f496e697469616c697a61626c653a20636f6e7472616374206973206e6f74206960008201527f6e697469616c697a696e67000000000000000000000000000000000000000000602082015250565b611b738161185b565b8114611b7e57600080fd5b50565b611b8a8161187f565b8114611b9557600080fd5b50565b611ba1816118ab565b8114611bac57600080fd5b5056fe608060405234801561001057600080fd5b50611597806100206000396000f3fe60806040526004361061008a5760003560e01c80638129fc1c116100595780638129fc1c146101285780638da5cb5b1461013f578063b1d1ec191461016a578063ba0b7dee14610193578063f2fde38b146101d057610091565b80630e917f761461009657806331d7d650146100bf57806353ba6007146100e8578063715018a61461011157610091565b3661009157005b600080fd5b3480156100a257600080fd5b506100bd60048036038101906100b8919061100e565b6101f9565b005b3480156100cb57600080fd5b506100e660048036038101906100e19190611075565b6104ad565b005b3480156100f457600080fd5b5061010f600480360381019061010a919061100e565b610762565b005b34801561011d57600080fd5b50610126610a16565b005b34801561013457600080fd5b5061013d610a2a565b005b34801561014b57600080fd5b50610154610b68565b60405161016191906111d6565b60405180910390f35b34801561017657600080fd5b50610191600480360381019061018c919061100e565b610b92565b005b34801561019f57600080fd5b506101ba60048036038101906101b59190610fbb565b610c70565b6040516101c791906112b5565b60405180910390f35b3480156101dc57600080fd5b506101f760048036038101906101f29190610f8e565b610ca2565b005b610201610d26565b81606560008673ffffffffffffffffffffffffffffffffffffffff1673ffffffffffffffffffffffffffffffffffffffff16815260200190815260200160002060008573ffffffffffffffffffffffffffffffffffffffff1673ffffffffffffffffffffffffffffffffffffffff16815260200190815260200160002060008373ffffffffffffffffffffffffffffffffffffffff1673ffffffffffffffffffffffffffffffffffffffff1681526020019081526020016000205410156102c757600080fd5b81606560008673ffffffffffffffffffffffffffffffffffffffff1673ffffffffffffffffffffffffffffffffffffffff16815260200190815260200160002060008573ffffffffffffffffffffffffffffffffffffffff1673ffffffffffffffffffffffffffffffffffffffff16815260200190815260200160002060008373ffffffffffffffffffffffffffffffffffffffff1673ffffffffffffffffffffffffffffffffffffffff16815260200190815260200160002060008282546103909190611337565b92505081905550600073ffffffffffffffffffffffffffffffffffffffff168373ffffffffffffffffffffffffffffffffffffffff161415610418578073ffffffffffffffffffffffffffffffffffffffff166108fc839081150290604051600060405180830381858888f19350505050158015610412573d6000803e3d6000fd5b506104a7565b8273ffffffffffffffffffffffffffffffffffffffff1663a9059cbb82846040518363ffffffff1660e01b81526004016104539291906111f1565b602060405180830381600087803b15801561046d57600080fd5b505af1158015610481573d6000803e3d6000fd5b505050506040513d601f19601f820116820180604052508101906104a591906110f0565b505b50505050565b6104b5610d26565b82606560008773ffffffffffffffffffffffffffffffffffffffff1673ffffffffffffffffffffffffffffffffffffffff16815260200190815260200160002060008673ffffffffffffffffffffffffffffffffffffffff1673ffffffffffffffffffffffffffffffffffffffff16815260200190815260200160002060008473ffffffffffffffffffffffffffffffffffffffff1673ffffffffffffffffffffffffffffffffffffffff16815260200190815260200160002054101561057b57600080fd5b82606560008773ffffffffffffffffffffffffffffffffffffffff1673ffffffffffffffffffffffffffffffffffffffff16815260200190815260200160002060008673ffffffffffffffffffffffffffffffffffffffff1673ffffffffffffffffffffffffffffffffffffffff16815260200190815260200160002060008473ffffffffffffffffffffffffffffffffffffffff1673ffffffffffffffffffffffffffffffffffffffff16815260200190815260200160002060008282546106449190611337565b92505081905550600073ffffffffffffffffffffffffffffffffffffffff168473ffffffffffffffffffffffffffffffffffffffff1614156106cc578073ffffffffffffffffffffffffffffffffffffffff166108fc849081150290604051600060405180830381858888f193505050501580156106c6573d6000803e3d6000fd5b5061075b565b8373ffffffffffffffffffffffffffffffffffffffff1663a9059cbb82856040518363ffffffff1660e01b81526004016107079291906111f1565b602060405180830381600087803b15801561072157600080fd5b505af1158015610735573d6000803e3d6000fd5b505050506040513d601f19601f8201168201806040525081019061075991906110f0565b505b5050505050565b61076a610d26565b81606560008673ffffffffffffffffffffffffffffffffffffffff1673ffffffffffffffffffffffffffffffffffffffff16815260200190815260200160002060008573ffffffffffffffffffffffffffffffffffffffff1673ffffffffffffffffffffffffffffffffffffffff16815260200190815260200160002060008373ffffffffffffffffffffffffffffffffffffffff1673ffffffffffffffffffffffffffffffffffffffff16815260200190815260200160002054101561083057600080fd5b81606560008673ffffffffffffffffffffffffffffffffffffffff1673ffffffffffffffffffffffffffffffffffffffff16815260200190815260200160002060008573ffffffffffffffffffffffffffffffffffffffff1673ffffffffffffffffffffffffffffffffffffffff16815260200190815260200160002060008373ffffffffffffffffffffffffffffffffffffffff1673ffffffffffffffffffffffffffffffffffffffff16815260200190815260200160002060008282546108f99190611337565b92505081905550600073ffffffffffffffffffffffffffffffffffffffff168373ffffffffffffffffffffffffffffffffffffffff161415610981578073ffffffffffffffffffffffffffffffffffffffff166108fc839081150290604051600060405180830381858888f1935050505015801561097b573d6000803e3d6000fd5b50610a10565b8273ffffffffffffffffffffffffffffffffffffffff1663a9059cbb82846040518363ffffffff1660e01b81526004016109bc9291906111f1565b602060405180830381600087803b1580156109d657600080fd5b505af11580156109ea573d6000803e3d6000fd5b505050506040513d601f19601f82011682018060405250810190610a0e91906110f0565b505b50505050565b610a1e610d26565b610a286000610da4565b565b60008060019054906101000a900460ff16159050808015610a5b5750600160008054906101000a900460ff1660ff16105b80610a885750610a6a30610e6a565b158015610a875750600160008054906101000a900460ff1660ff16145b5b610ac7576040517f08c379a0000000000000000000000000000000000000000000000000000000008152600401610abe90611255565b60405180910390fd5b60016000806101000a81548160ff021916908360ff1602179055508015610b04576001600060016101000a81548160ff0219169083151502179055505b610b0c610e8d565b8015610b655760008060016101000a81548160ff0219169083151502179055507f7f26b83ff96e1f2b6a682f133852f6798a09c465da95921460cefb38474024986001604051610b5c919061121a565b60405180910390a15b50565b6000603360009054906101000a900473ffffffffffffffffffffffffffffffffffffffff16905090565b610b9a610d26565b81606560008673ffffffffffffffffffffffffffffffffffffffff1673ffffffffffffffffffffffffffffffffffffffff16815260200190815260200160002060008573ffffffffffffffffffffffffffffffffffffffff1673ffffffffffffffffffffffffffffffffffffffff16815260200190815260200160002060008373ffffffffffffffffffffffffffffffffffffffff1673ffffffffffffffffffffffffffffffffffffffff1681526020019081526020016000206000828254610c6391906112e1565b9250508190555050505050565b606560205282600052604060002060205281600052604060002060205280600052604060002060009250925050505481565b610caa610d26565b600073ffffffffffffffffffffffffffffffffffffffff168173ffffffffffffffffffffffffffffffffffffffff161415610d1a576040517f08c379a0000000000000000000000000000000000000000000000000000000008152600401610d1190611235565b60405180910390fd5b610d2381610da4565b50565b610d2e610ee6565b73ffffffffffffffffffffffffffffffffffffffff16610d4c610b68565b73ffffffffffffffffffffffffffffffffffffffff1614610da2576040517f08c379a0000000000000000000000000000000000000000000000000000000008152600401610d9990611275565b60405180910390fd5b565b6000603360009054906101000a900473ffffffffffffffffffffffffffffffffffffffff16905081603360006101000a81548173ffffffffffffffffffffffffffffffffffffffff021916908373ffffffffffffffffffffffffffffffffffffffff1602179055508173ffffffffffffffffffffffffffffffffffffffff168173ffffffffffffffffffffffffffffffffffffffff167f8be0079c531659141344cd1fd0a4f28419497f9722a3daafe3b4186f6b6457e060405160405180910390a35050565b6000808273ffffffffffffffffffffffffffffffffffffffff163b119050919050565b600060019054906101000a900460ff16610edc576040517f08c379a0000000000000000000000000000000000000000000000000000000008152600401610ed390611295565b60405180910390fd5b610ee4610eee565b565b600033905090565b600060019054906101000a900460ff16610f3d576040517f08c379a0000000000000000000000000000000000000000000000000000000008152600401610f3490611295565b60405180910390fd5b610f4d610f48610ee6565b610da4565b565b600081359050610f5e8161151c565b92915050565b600081519050610f7381611533565b92915050565b600081359050610f888161154a565b92915050565b600060208284031215610fa457610fa3611401565b5b6000610fb284828501610f4f565b91505092915050565b600080600060608486031215610fd457610fd3611401565b5b6000610fe286828701610f4f565b9350506020610ff386828701610f4f565b925050604061100486828701610f4f565b9150509250925092565b6000806000806080858703121561102857611027611401565b5b600061103687828801610f4f565b945050602061104787828801610f4f565b935050604061105887828801610f79565b925050606061106987828801610f4f565b91505092959194509250565b600080600080600060a0868803121561109157611090611401565b5b600061109f88828901610f4f565b95505060206110b088828901610f4f565b94505060406110c188828901610f79565b93505060606110d288828901610f4f565b92505060806110e388828901610f4f565b9150509295509295909350565b60006020828403121561110657611105611401565b5b600061111484828501610f64565b91505092915050565b6111268161136b565b82525050565b611135816113c0565b82525050565b60006111486026836112d0565b915061115382611406565b604082019050919050565b600061116b602e836112d0565b915061117682611455565b604082019050919050565b600061118e6020836112d0565b9150611199826114a4565b602082019050919050565b60006111b1602b836112d0565b91506111bc826114cd565b604082019050919050565b6111d0816113a9565b82525050565b60006020820190506111eb600083018461111d565b92915050565b6000604082019050611206600083018561111d565b61121360208301846111c7565b9392505050565b600060208201905061122f600083018461112c565b92915050565b6000602082019050818103600083015261124e8161113b565b9050919050565b6000602082019050818103600083015261126e8161115e565b9050919050565b6000602082019050818103600083015261128e81611181565b9050919050565b600060208201905081810360008301526112ae816111a4565b9050919050565b60006020820190506112ca60008301846111c7565b92915050565b600082825260208201905092915050565b60006112ec826113a9565b91506112f7836113a9565b9250827fffffffffffffffffffffffffffffffffffffffffffffffffffffffffffffffff0382111561132c5761132b6113d2565b5b828201905092915050565b6000611342826113a9565b915061134d836113a9565b9250828210156113605761135f6113d2565b5b828203905092915050565b600061137682611389565b9050919050565b60008115159050919050565b600073ffffffffffffffffffffffffffffffffffffffff82169050919050565b6000819050919050565b600060ff82169050919050565b60006113cb826113b3565b9050919050565b7f4e487b7100000000000000000000000000000000000000000000000000000000600052601160045260246000fd5b600080fd5b7f4f776e61626c653a206e6577206f776e657220697320746865207a65726f206160008201527f6464726573730000000000000000000000000000000000000000000000000000602082015250565b7f496e697469616c697a61626c653a20636f6e747261637420697320616c72656160008201527f647920696e697469616c697a6564000000000000000000000000000000000000602082015250565b7f4f776e61626c653a2063616c6c6572206973206e6f7420746865206f776e6572600082015250565b7f496e697469616c697a61626c653a20636f6e7472616374206973206e6f74206960008201527f6e697469616c697a696e67000000000000000000000000000000000000000000602082015250565b6115258161136b565b811461153057600080fd5b50565b61153c8161137d565b811461154757600080fd5b50565b611553816113a9565b811461155e57600080fd5b5056fea26469706673582212208a0326e0fc3ad8a094efb40dac34d0042c7f89e3466f79ad08cc08c1ce7ebe6464736f6c63430008070033a26469706673582212205f649ae91193a46856ed06d3981d87d1b45f9b71a849efcfb8651fb8dac6075c64736f6c63430008070033",
  "linkReferences": {},
  "deployedLinkReferences": {}
}