{
  "_format": "hh-sol-artifact-1",
  "contractName": "InnerContract",
  "sourceName": "contracts/InnerContract.sol",
  "abi": [
    {
      "anonymous": false,
      "inputs": [
        {
          "indexed": false,
          "internalType": "uint8",
          "name": "version",
          "type": "uint8"
        }
      ],
      "name": "Initialized",
      "type": "event"
    },
    {
      "anonymous": false,
      "inputs": [
        {
          "indexed": true,
          "internalType": "address",
          "name": "previousOwner",
          "type": "address"
        },
        {
          "indexed": true,
          "internalType": "address",
          "name": "newOwner",
          "type": "address"
        }
      ],
      "name": "OwnershipTransferred",
      "type": "event"
    },
    {
      "inputs": [
        {
          "internalType": "address",
          "name": "",
          "type": "address"
        },
        {
          "internalType": "address",
          "name": "",
          "type": "address"
        },
        {
          "internalType": "address",
          "name": "",
          "type": "address"
        }
      ],
      "name": "balances",
      "outputs": [
        {
          "internalType": "uint256",
          "name": "",
          "type": "uint256"
        }
      ],
      "stateMutability": "view",
      "type": "function"
    },
    {
      "inputs": [
        {
          "internalType": "address",
          "name": "_from",
          "type": "address"
        },
        {
          "internalType": "address",
          "name": "_erc20Addr",
          "type": "address"
        },
        {
          "internalType": "uint256",
          "name": "_numberOfTokens",
          "type": "uint256"
        },
        {
          "internalType": "address",
          "name": "_to",
          "type": "address"
        }
      ],
      "name": "depositTokens",
      "outputs": [],
      "stateMutability": "nonpayable",
      "type": "function"
    },
    {
      "inputs": [],
      "name": "owner",
      "outputs": [
        {
          "internalType": "address",
          "name": "",
          "type": "address"
        }
      ],
      "stateMutability": "view",
      "type": "function"
    },
    {
      "inputs": [],
      "name": "renounceOwnership",
      "outputs": [],
      "stateMutability": "nonpayable",
      "type": "function"
    },
    {
      "inputs": [
        {
          "internalType": "address",
          "name": "newOwner",
          "type": "address"
        }
      ],
      "name": "transferOwnership",
      "outputs": [],
      "stateMutability": "nonpayable",
      "type": "function"
    },
    {
      "inputs": [
        {
          "internalType": "address",
          "name": "_from",
          "type": "address"
        },
        {
          "internalType": "address",
          "name": "_erc20Addr",
          "type": "address"
        },
        {
          "internalType": "uint256",
          "name": "_numberOfTokens",
          "type": "uint256"
        },
        {
          "internalType": "address",
          "name": "_to",
          "type": "address"
        }
      ],
      "name": "withdraw",
      "outputs": [],
      "stateMutability": "nonpayable",
      "type": "function"
    },
    {
      "stateMutability": "payable",
      "type": "receive"
    }
  ],
  "bytecode": "0x608060405234801561001057600080fd5b50610b81806100206000396000f3fe6080604052600436106100595760003560e01c80630e917f7614610065578063715018a61461008e5780638da5cb5b146100a5578063b1d1ec19146100d0578063ba0b7dee146100f9578063f2fde38b1461013657610060565b3661006057005b600080fd5b34801561007157600080fd5b5061008c600480360381019061008791906107e0565b61015f565b005b34801561009a57600080fd5b506100a361040b565b005b3480156100b157600080fd5b506100ba61041f565b6040516100c791906108d8565b60405180910390f35b3480156100dc57600080fd5b506100f760048036038101906100f291906107e0565b610449565b005b34801561010557600080fd5b50610120600480360381019061011b919061078d565b61051f565b60405161012d919061095c565b60405180910390f35b34801561014257600080fd5b5061015d60048036038101906101589190610760565b610551565b005b81606560008673ffffffffffffffffffffffffffffffffffffffff1673ffffffffffffffffffffffffffffffffffffffff16815260200190815260200160002060008573ffffffffffffffffffffffffffffffffffffffff1673ffffffffffffffffffffffffffffffffffffffff16815260200190815260200160002060008373ffffffffffffffffffffffffffffffffffffffff1673ffffffffffffffffffffffffffffffffffffffff16815260200190815260200160002054101561022557600080fd5b81606560008673ffffffffffffffffffffffffffffffffffffffff1673ffffffffffffffffffffffffffffffffffffffff16815260200190815260200160002060008573ffffffffffffffffffffffffffffffffffffffff1673ffffffffffffffffffffffffffffffffffffffff16815260200190815260200160002060008373ffffffffffffffffffffffffffffffffffffffff1673ffffffffffffffffffffffffffffffffffffffff16815260200190815260200160002060008282546102ee91906109de565b92505081905550600073ffffffffffffffffffffffffffffffffffffffff168373ffffffffffffffffffffffffffffffffffffffff161415610376578073ffffffffffffffffffffffffffffffffffffffff166108fc839081150290604051600060405180830381858888f19350505050158015610370573d6000803e3d6000fd5b50610405565b8273ffffffffffffffffffffffffffffffffffffffff1663a9059cbb82846040518363ffffffff1660e01b81526004016103b19291906108f3565b602060405180830381600087803b1580156103cb57600080fd5b505af11580156103df573d6000803e3d6000fd5b505050506040513d601f19601f820116820180604052508101906104039190610847565b505b50505050565b6104136105d5565b61041d6000610653565b565b6000603360009054906101000a900473ffffffffffffffffffffffffffffffffffffffff16905090565b81606560008673ffffffffffffffffffffffffffffffffffffffff1673ffffffffffffffffffffffffffffffffffffffff16815260200190815260200160002060008573ffffffffffffffffffffffffffffffffffffffff1673ffffffffffffffffffffffffffffffffffffffff16815260200190815260200160002060008373ffffffffffffffffffffffffffffffffffffffff1673ffffffffffffffffffffffffffffffffffffffff16815260200190815260200160002060008282546105129190610988565b9250508190555050505050565b606560205282600052604060002060205281600052604060002060205280600052604060002060009250925050505481565b6105596105d5565b600073ffffffffffffffffffffffffffffffffffffffff168173ffffffffffffffffffffffffffffffffffffffff1614156105c9576040517f08c379a00000000000000000000000000000000000000000000000000000000081526004016105c09061091c565b60405180910390fd5b6105d281610653565b50565b6105dd610719565b73ffffffffffffffffffffffffffffffffffffffff166105fb61041f565b73ffffffffffffffffffffffffffffffffffffffff1614610651576040517f08c379a00000000000000000000000000000000000000000000000000000000081526004016106489061093c565b60405180910390fd5b565b6000603360009054906101000a900473ffffffffffffffffffffffffffffffffffffffff16905081603360006101000a81548173ffffffffffffffffffffffffffffffffffffffff021916908373ffffffffffffffffffffffffffffffffffffffff1602179055508173ffffffffffffffffffffffffffffffffffffffff168173ffffffffffffffffffffffffffffffffffffffff167f8be0079c531659141344cd1fd0a4f28419497f9722a3daafe3b4186f6b6457e060405160405180910390a35050565b600033905090565b60008135905061073081610b06565b92915050565b60008151905061074581610b1d565b92915050565b60008135905061075a81610b34565b92915050565b60006020828403121561077657610775610a89565b5b600061078484828501610721565b91505092915050565b6000806000606084860312156107a6576107a5610a89565b5b60006107b486828701610721565b93505060206107c586828701610721565b92505060406107d686828701610721565b9150509250925092565b600080600080608085870312156107fa576107f9610a89565b5b600061080887828801610721565b945050602061081987828801610721565b935050604061082a8782880161074b565b925050606061083b87828801610721565b91505092959194509250565b60006020828403121561085d5761085c610a89565b5b600061086b84828501610736565b91505092915050565b61087d81610a12565b82525050565b6000610890602683610977565b915061089b82610a8e565b604082019050919050565b60006108b3602083610977565b91506108be82610add565b602082019050919050565b6108d281610a50565b82525050565b60006020820190506108ed6000830184610874565b92915050565b60006040820190506109086000830185610874565b61091560208301846108c9565b9392505050565b6000602082019050818103600083015261093581610883565b9050919050565b60006020820190508181036000830152610955816108a6565b9050919050565b600060208201905061097160008301846108c9565b92915050565b600082825260208201905092915050565b600061099382610a50565b915061099e83610a50565b9250827fffffffffffffffffffffffffffffffffffffffffffffffffffffffffffffffff038211156109d3576109d2610a5a565b5b828201905092915050565b60006109e982610a50565b91506109f483610a50565b925082821015610a0757610a06610a5a565b5b828203905092915050565b6000610a1d82610a30565b9050919050565b60008115159050919050565b600073ffffffffffffffffffffffffffffffffffffffff82169050919050565b6000819050919050565b7f4e487b7100000000000000000000000000000000000000000000000000000000600052601160045260246000fd5b600080fd5b7f4f776e61626c653a206e6577206f776e657220697320746865207a65726f206160008201527f6464726573730000000000000000000000000000000000000000000000000000602082015250565b7f4f776e61626c653a2063616c6c6572206973206e6f7420746865206f776e6572600082015250565b610b0f81610a12565b8114610b1a57600080fd5b50565b610b2681610a24565b8114610b3157600080fd5b50565b610b3d81610a50565b8114610b4857600080fd5b5056fea264697066735822122020a01fbabfe1711b772b6526ae1311ab283cb4d716a1116796f379d30064883564736f6c63430008070033",
  "linkReferences": {},
  "deployedLinkReferences": {}
}