{
  "_format": "hh-sol-artifact-1",
  "contractName": "InnerContract",
  "sourceName": "contracts/InnerContract.sol",
  "abi": [
    {
      "anonymous": false,
      "inputs": [
        {
          "indexed": true,
          "internalType": "address",
          "name": "previousOwner",
          "type": "address"
        },
        {
          "indexed": true,
          "internalType": "address",
          "name": "newOwner",
          "type": "address"
        }
      ],
      "name": "OwnershipTransferred",
      "type": "event"
    },
    {
      "inputs": [
        {
          "internalType": "address",
          "name": "",
          "type": "address"
        },
        {
          "internalType": "address",
          "name": "",
          "type": "address"
        }
      ],
      "name": "balances",
      "outputs": [
        {
          "internalType": "uint256",
          "name": "",
          "type": "uint256"
        }
      ],
      "stateMutability": "view",
      "type": "function"
    },
    {
      "inputs": [
        {
          "internalType": "address",
          "name": "_from",
          "type": "address"
        },
        {
          "internalType": "address",
          "name": "_erc20Addr",
          "type": "address"
        },
        {
          "internalType": "uint256",
          "name": "_numberOfTokens",
          "type": "uint256"
        },
        {
          "internalType": "address",
          "name": "_to",
          "type": "address"
        }
      ],
      "name": "depositTokens",
      "outputs": [],
      "stateMutability": "nonpayable",
      "type": "function"
    },
    {
      "inputs": [],
      "name": "owner",
      "outputs": [
        {
          "internalType": "address",
          "name": "",
          "type": "address"
        }
      ],
      "stateMutability": "view",
      "type": "function"
    },
    {
      "inputs": [],
      "name": "renounceOwnership",
      "outputs": [],
      "stateMutability": "nonpayable",
      "type": "function"
    },
    {
      "inputs": [
        {
          "internalType": "address",
          "name": "",
          "type": "address"
        },
        {
          "internalType": "address",
          "name": "",
          "type": "address"
        }
      ],
      "name": "toAddrBalances",
      "outputs": [
        {
          "internalType": "address",
          "name": "",
          "type": "address"
        }
      ],
      "stateMutability": "view",
      "type": "function"
    },
    {
      "inputs": [
        {
          "internalType": "address",
          "name": "newOwner",
          "type": "address"
        }
      ],
      "name": "transferOwnership",
      "outputs": [],
      "stateMutability": "nonpayable",
      "type": "function"
    },
    {
      "inputs": [
        {
          "internalType": "address",
          "name": "_from",
          "type": "address"
        },
        {
          "internalType": "address",
          "name": "_erc20Addr",
          "type": "address"
        },
        {
          "internalType": "uint256",
          "name": "_numberOfTokens",
          "type": "uint256"
        },
        {
          "internalType": "address",
          "name": "_to",
          "type": "address"
        }
      ],
      "name": "withdraw",
      "outputs": [],
      "stateMutability": "nonpayable",
      "type": "function"
    },
    {
      "stateMutability": "payable",
      "type": "receive"
    }
  ],
  "bytecode": "0x608060405234801561001057600080fd5b5061002d61002261003260201b60201c565b61003a60201b60201c565b6100fe565b600033905090565b60008060009054906101000a900473ffffffffffffffffffffffffffffffffffffffff169050816000806101000a81548173ffffffffffffffffffffffffffffffffffffffff021916908373ffffffffffffffffffffffffffffffffffffffff1602179055508173ffffffffffffffffffffffffffffffffffffffff168173ffffffffffffffffffffffffffffffffffffffff167f8be0079c531659141344cd1fd0a4f28419497f9722a3daafe3b4186f6b6457e060405160405180910390a35050565b610b718061010d6000396000f3fe6080604052600436106100745760003560e01c8063b1d1ec191161004e578063b1d1ec19146100eb578063c23f001f14610114578063cb79935814610151578063f2fde38b1461018e5761007b565b80630e917f7614610080578063715018a6146100a95780638da5cb5b146100c05761007b565b3661007b57005b600080fd5b34801561008c57600080fd5b506100a760048036038101906100a29190610889565b6101b7565b005b3480156100b557600080fd5b506100be610429565b005b3480156100cc57600080fd5b506100d561043d565b6040516100e29190610981565b60405180910390f35b3480156100f757600080fd5b50610112600480360381019061010d9190610889565b610466565b005b34801561012057600080fd5b5061013b60048036038101906101369190610849565b6105a8565b6040516101489190610a05565b60405180910390f35b34801561015d57600080fd5b5061017860048036038101906101739190610849565b6105cd565b6040516101859190610981565b60405180910390f35b34801561019a57600080fd5b506101b560048036038101906101b0919061081c565b61060f565b005b81600160008673ffffffffffffffffffffffffffffffffffffffff1673ffffffffffffffffffffffffffffffffffffffff16815260200190815260200160002060008573ffffffffffffffffffffffffffffffffffffffff1673ffffffffffffffffffffffffffffffffffffffff168152602001908152602001600020541461023f57600080fd5b8073ffffffffffffffffffffffffffffffffffffffff16600260008673ffffffffffffffffffffffffffffffffffffffff1673ffffffffffffffffffffffffffffffffffffffff16815260200190815260200160002060008573ffffffffffffffffffffffffffffffffffffffff1673ffffffffffffffffffffffffffffffffffffffff16815260200190815260200160002060009054906101000a900473ffffffffffffffffffffffffffffffffffffffff1673ffffffffffffffffffffffffffffffffffffffff161461031357600080fd5b600073ffffffffffffffffffffffffffffffffffffffff168373ffffffffffffffffffffffffffffffffffffffff161415610394578073ffffffffffffffffffffffffffffffffffffffff166108fc839081150290604051600060405180830381858888f1935050505015801561038e573d6000803e3d6000fd5b50610423565b8273ffffffffffffffffffffffffffffffffffffffff1663a9059cbb82846040518363ffffffff1660e01b81526004016103cf92919061099c565b602060405180830381600087803b1580156103e957600080fd5b505af11580156103fd573d6000803e3d6000fd5b505050506040513d601f19601f8201168201806040525081019061042191906108f0565b505b50505050565b610431610693565b61043b6000610711565b565b60008060009054906101000a900473ffffffffffffffffffffffffffffffffffffffff16905090565b81600160008673ffffffffffffffffffffffffffffffffffffffff1673ffffffffffffffffffffffffffffffffffffffff16815260200190815260200160002060008573ffffffffffffffffffffffffffffffffffffffff1673ffffffffffffffffffffffffffffffffffffffff1681526020019081526020016000208190555080600260008673ffffffffffffffffffffffffffffffffffffffff1673ffffffffffffffffffffffffffffffffffffffff16815260200190815260200160002060008573ffffffffffffffffffffffffffffffffffffffff1673ffffffffffffffffffffffffffffffffffffffff16815260200190815260200160002060006101000a81548173ffffffffffffffffffffffffffffffffffffffff021916908373ffffffffffffffffffffffffffffffffffffffff16021790555050505050565b6001602052816000526040600020602052806000526040600020600091509150505481565b60026020528160005260406000206020528060005260406000206000915091509054906101000a900473ffffffffffffffffffffffffffffffffffffffff1681565b610617610693565b600073ffffffffffffffffffffffffffffffffffffffff168173ffffffffffffffffffffffffffffffffffffffff161415610687576040517f08c379a000000000000000000000000000000000000000000000000000000000815260040161067e906109c5565b60405180910390fd5b61069081610711565b50565b61069b6107d5565b73ffffffffffffffffffffffffffffffffffffffff166106b961043d565b73ffffffffffffffffffffffffffffffffffffffff161461070f576040517f08c379a0000000000000000000000000000000000000000000000000000000008152600401610706906109e5565b60405180910390fd5b565b60008060009054906101000a900473ffffffffffffffffffffffffffffffffffffffff169050816000806101000a81548173ffffffffffffffffffffffffffffffffffffffff021916908373ffffffffffffffffffffffffffffffffffffffff1602179055508173ffffffffffffffffffffffffffffffffffffffff168173ffffffffffffffffffffffffffffffffffffffff167f8be0079c531659141344cd1fd0a4f28419497f9722a3daafe3b4186f6b6457e060405160405180910390a35050565b600033905090565b6000813590506107ec81610af6565b92915050565b60008151905061080181610b0d565b92915050565b60008135905061081681610b24565b92915050565b60006020828403121561083257610831610a79565b5b6000610840848285016107dd565b91505092915050565b600080604083850312156108605761085f610a79565b5b600061086e858286016107dd565b925050602061087f858286016107dd565b9150509250929050565b600080600080608085870312156108a3576108a2610a79565b5b60006108b1878288016107dd565b94505060206108c2878288016107dd565b93505060406108d387828801610807565b92505060606108e4878288016107dd565b91505092959194509250565b60006020828403121561090657610905610a79565b5b6000610914848285016107f2565b91505092915050565b61092681610a31565b82525050565b6000610939602683610a20565b915061094482610a7e565b604082019050919050565b600061095c602083610a20565b915061096782610acd565b602082019050919050565b61097b81610a6f565b82525050565b6000602082019050610996600083018461091d565b92915050565b60006040820190506109b1600083018561091d565b6109be6020830184610972565b9392505050565b600060208201905081810360008301526109de8161092c565b9050919050565b600060208201905081810360008301526109fe8161094f565b9050919050565b6000602082019050610a1a6000830184610972565b92915050565b600082825260208201905092915050565b6000610a3c82610a4f565b9050919050565b60008115159050919050565b600073ffffffffffffffffffffffffffffffffffffffff82169050919050565b6000819050919050565b600080fd5b7f4f776e61626c653a206e6577206f776e657220697320746865207a65726f206160008201527f6464726573730000000000000000000000000000000000000000000000000000602082015250565b7f4f776e61626c653a2063616c6c6572206973206e6f7420746865206f776e6572600082015250565b610aff81610a31565b8114610b0a57600080fd5b50565b610b1681610a43565b8114610b2157600080fd5b50565b610b2d81610a6f565b8114610b3857600080fd5b5056fea2646970667358221220e849c744126a9be22ca7eaaa7dd76cb537a7134ba45a2d747fe37ae7c0d67f3564736f6c63430008070033",
  "linkReferences": {},
  "deployedLinkReferences": {}
}