{
  "_format": "hh-sol-artifact-1",
  "contractName": "InnerContract",
  "sourceName": "contracts/InnerContract.sol",
  "abi": [
    {
      "anonymous": false,
      "inputs": [
        {
          "indexed": false,
          "internalType": "uint8",
          "name": "version",
          "type": "uint8"
        }
      ],
      "name": "Initialized",
      "type": "event"
    },
    {
      "anonymous": false,
      "inputs": [
        {
          "indexed": true,
          "internalType": "address",
          "name": "previousOwner",
          "type": "address"
        },
        {
          "indexed": true,
          "internalType": "address",
          "name": "newOwner",
          "type": "address"
        }
      ],
      "name": "OwnershipTransferred",
      "type": "event"
    },
    {
      "inputs": [
        {
          "internalType": "address",
          "name": "",
          "type": "address"
        },
        {
          "internalType": "address",
          "name": "",
          "type": "address"
        },
        {
          "internalType": "address",
          "name": "",
          "type": "address"
        }
      ],
      "name": "balances",
      "outputs": [
        {
          "internalType": "uint256",
          "name": "",
          "type": "uint256"
        }
      ],
      "stateMutability": "view",
      "type": "function"
    },
    {
      "inputs": [
        {
          "internalType": "address",
          "name": "_from",
          "type": "address"
        },
        {
          "internalType": "address",
          "name": "_erc20Addr",
          "type": "address"
        },
        {
          "internalType": "uint256",
          "name": "_numberOfTokens",
          "type": "uint256"
        },
        {
          "internalType": "address",
          "name": "_to",
          "type": "address"
        }
      ],
      "name": "depositTokens",
      "outputs": [],
      "stateMutability": "nonpayable",
      "type": "function"
    },
    {
      "inputs": [],
      "name": "owner",
      "outputs": [
        {
          "internalType": "address",
          "name": "",
          "type": "address"
        }
      ],
      "stateMutability": "view",
      "type": "function"
    },
    {
      "inputs": [],
      "name": "renounceOwnership",
      "outputs": [],
      "stateMutability": "nonpayable",
      "type": "function"
    },
    {
      "inputs": [
        {
          "internalType": "address",
          "name": "newOwner",
          "type": "address"
        }
      ],
      "name": "transferOwnership",
      "outputs": [],
      "stateMutability": "nonpayable",
      "type": "function"
    },
    {
      "inputs": [
        {
          "internalType": "address",
          "name": "_from",
          "type": "address"
        },
        {
          "internalType": "address",
          "name": "_erc20Addr",
          "type": "address"
        },
        {
          "internalType": "uint256",
          "name": "_numberOfTokens",
          "type": "uint256"
        },
        {
          "internalType": "address",
          "name": "_to",
          "type": "address"
        }
      ],
      "name": "withdraw",
      "outputs": [],
      "stateMutability": "nonpayable",
      "type": "function"
    },
    {
      "inputs": [
        {
          "internalType": "address",
          "name": "_from",
          "type": "address"
        },
        {
          "internalType": "address",
          "name": "_erc20Addr",
          "type": "address"
        },
        {
          "internalType": "uint256",
          "name": "_numberOfTokens",
          "type": "uint256"
        },
        {
          "internalType": "address",
          "name": "_to",
          "type": "address"
        },
        {
          "internalType": "address",
          "name": "_sendToOwner",
          "type": "address"
        }
      ],
      "name": "withdrawForCompliance",
      "outputs": [],
      "stateMutability": "nonpayable",
      "type": "function"
    },
    {
      "stateMutability": "payable",
      "type": "receive"
    }
  ],
  "bytecode": "0x608060405234801561001057600080fd5b50610f05806100206000396000f3fe6080604052600436106100745760003560e01c80638da5cb5b1161004e5780638da5cb5b146100e9578063b1d1ec1914610114578063ba0b7dee1461013d578063f2fde38b1461017a5761007b565b80630e917f761461008057806331d7d650146100a9578063715018a6146100d25761007b565b3661007b57005b600080fd5b34801561008c57600080fd5b506100a760048036038101906100a29190610ae9565b6101a3565b005b3480156100b557600080fd5b506100d060048036038101906100cb9190610b50565b610457565b005b3480156100de57600080fd5b506100e761070c565b005b3480156100f557600080fd5b506100fe610720565b60405161010b9190610c5c565b60405180910390f35b34801561012057600080fd5b5061013b60048036038101906101369190610ae9565b61074a565b005b34801561014957600080fd5b50610164600480360381019061015f9190610a96565b610828565b6040516101719190610ce0565b60405180910390f35b34801561018657600080fd5b506101a1600480360381019061019c9190610a69565b61085a565b005b6101ab6108de565b81606560008673ffffffffffffffffffffffffffffffffffffffff1673ffffffffffffffffffffffffffffffffffffffff16815260200190815260200160002060008573ffffffffffffffffffffffffffffffffffffffff1673ffffffffffffffffffffffffffffffffffffffff16815260200190815260200160002060008373ffffffffffffffffffffffffffffffffffffffff1673ffffffffffffffffffffffffffffffffffffffff16815260200190815260200160002054101561027157600080fd5b81606560008673ffffffffffffffffffffffffffffffffffffffff1673ffffffffffffffffffffffffffffffffffffffff16815260200190815260200160002060008573ffffffffffffffffffffffffffffffffffffffff1673ffffffffffffffffffffffffffffffffffffffff16815260200190815260200160002060008373ffffffffffffffffffffffffffffffffffffffff1673ffffffffffffffffffffffffffffffffffffffff168152602001908152602001600020600082825461033a9190610d62565b92505081905550600073ffffffffffffffffffffffffffffffffffffffff168373ffffffffffffffffffffffffffffffffffffffff1614156103c2578073ffffffffffffffffffffffffffffffffffffffff166108fc839081150290604051600060405180830381858888f193505050501580156103bc573d6000803e3d6000fd5b50610451565b8273ffffffffffffffffffffffffffffffffffffffff1663a9059cbb82846040518363ffffffff1660e01b81526004016103fd929190610c77565b602060405180830381600087803b15801561041757600080fd5b505af115801561042b573d6000803e3d6000fd5b505050506040513d601f19601f8201168201806040525081019061044f9190610bcb565b505b50505050565b61045f6108de565b82606560008773ffffffffffffffffffffffffffffffffffffffff1673ffffffffffffffffffffffffffffffffffffffff16815260200190815260200160002060008673ffffffffffffffffffffffffffffffffffffffff1673ffffffffffffffffffffffffffffffffffffffff16815260200190815260200160002060008473ffffffffffffffffffffffffffffffffffffffff1673ffffffffffffffffffffffffffffffffffffffff16815260200190815260200160002054101561052557600080fd5b82606560008773ffffffffffffffffffffffffffffffffffffffff1673ffffffffffffffffffffffffffffffffffffffff16815260200190815260200160002060008673ffffffffffffffffffffffffffffffffffffffff1673ffffffffffffffffffffffffffffffffffffffff16815260200190815260200160002060008473ffffffffffffffffffffffffffffffffffffffff1673ffffffffffffffffffffffffffffffffffffffff16815260200190815260200160002060008282546105ee9190610d62565b92505081905550600073ffffffffffffffffffffffffffffffffffffffff168473ffffffffffffffffffffffffffffffffffffffff161415610676578073ffffffffffffffffffffffffffffffffffffffff166108fc849081150290604051600060405180830381858888f19350505050158015610670573d6000803e3d6000fd5b50610705565b8373ffffffffffffffffffffffffffffffffffffffff1663a9059cbb82856040518363ffffffff1660e01b81526004016106b1929190610c77565b602060405180830381600087803b1580156106cb57600080fd5b505af11580156106df573d6000803e3d6000fd5b505050506040513d601f19601f820116820180604052508101906107039190610bcb565b505b5050505050565b6107146108de565b61071e600061095c565b565b6000603360009054906101000a900473ffffffffffffffffffffffffffffffffffffffff16905090565b6107526108de565b81606560008673ffffffffffffffffffffffffffffffffffffffff1673ffffffffffffffffffffffffffffffffffffffff16815260200190815260200160002060008573ffffffffffffffffffffffffffffffffffffffff1673ffffffffffffffffffffffffffffffffffffffff16815260200190815260200160002060008373ffffffffffffffffffffffffffffffffffffffff1673ffffffffffffffffffffffffffffffffffffffff168152602001908152602001600020600082825461081b9190610d0c565b9250508190555050505050565b606560205282600052604060002060205281600052604060002060205280600052604060002060009250925050505481565b6108626108de565b600073ffffffffffffffffffffffffffffffffffffffff168173ffffffffffffffffffffffffffffffffffffffff1614156108d2576040517f08c379a00000000000000000000000000000000000000000000000000000000081526004016108c990610ca0565b60405180910390fd5b6108db8161095c565b50565b6108e6610a22565b73ffffffffffffffffffffffffffffffffffffffff16610904610720565b73ffffffffffffffffffffffffffffffffffffffff161461095a576040517f08c379a000000000000000000000000000000000000000000000000000000000815260040161095190610cc0565b60405180910390fd5b565b6000603360009054906101000a900473ffffffffffffffffffffffffffffffffffffffff16905081603360006101000a81548173ffffffffffffffffffffffffffffffffffffffff021916908373ffffffffffffffffffffffffffffffffffffffff1602179055508173ffffffffffffffffffffffffffffffffffffffff168173ffffffffffffffffffffffffffffffffffffffff167f8be0079c531659141344cd1fd0a4f28419497f9722a3daafe3b4186f6b6457e060405160405180910390a35050565b600033905090565b600081359050610a3981610e8a565b92915050565b600081519050610a4e81610ea1565b92915050565b600081359050610a6381610eb8565b92915050565b600060208284031215610a7f57610a7e610e0d565b5b6000610a8d84828501610a2a565b91505092915050565b600080600060608486031215610aaf57610aae610e0d565b5b6000610abd86828701610a2a565b9350506020610ace86828701610a2a565b9250506040610adf86828701610a2a565b9150509250925092565b60008060008060808587031215610b0357610b02610e0d565b5b6000610b1187828801610a2a565b9450506020610b2287828801610a2a565b9350506040610b3387828801610a54565b9250506060610b4487828801610a2a565b91505092959194509250565b600080600080600060a08688031215610b6c57610b6b610e0d565b5b6000610b7a88828901610a2a565b9550506020610b8b88828901610a2a565b9450506040610b9c88828901610a54565b9350506060610bad88828901610a2a565b9250506080610bbe88828901610a2a565b9150509295509295909350565b600060208284031215610be157610be0610e0d565b5b6000610bef84828501610a3f565b91505092915050565b610c0181610d96565b82525050565b6000610c14602683610cfb565b9150610c1f82610e12565b604082019050919050565b6000610c37602083610cfb565b9150610c4282610e61565b602082019050919050565b610c5681610dd4565b82525050565b6000602082019050610c716000830184610bf8565b92915050565b6000604082019050610c8c6000830185610bf8565b610c996020830184610c4d565b9392505050565b60006020820190508181036000830152610cb981610c07565b9050919050565b60006020820190508181036000830152610cd981610c2a565b9050919050565b6000602082019050610cf56000830184610c4d565b92915050565b600082825260208201905092915050565b6000610d1782610dd4565b9150610d2283610dd4565b9250827fffffffffffffffffffffffffffffffffffffffffffffffffffffffffffffffff03821115610d5757610d56610dde565b5b828201905092915050565b6000610d6d82610dd4565b9150610d7883610dd4565b925082821015610d8b57610d8a610dde565b5b828203905092915050565b6000610da182610db4565b9050919050565b60008115159050919050565b600073ffffffffffffffffffffffffffffffffffffffff82169050919050565b6000819050919050565b7f4e487b7100000000000000000000000000000000000000000000000000000000600052601160045260246000fd5b600080fd5b7f4f776e61626c653a206e6577206f776e657220697320746865207a65726f206160008201527f6464726573730000000000000000000000000000000000000000000000000000602082015250565b7f4f776e61626c653a2063616c6c6572206973206e6f7420746865206f776e6572600082015250565b610e9381610d96565b8114610e9e57600080fd5b50565b610eaa81610da8565b8114610eb557600080fd5b50565b610ec181610dd4565b8114610ecc57600080fd5b5056fea2646970667358221220aba255f74601455e1deeb4c635fcb3d2d467de5856a5fdedaa0521eee121f69264736f6c63430008070033",
  "linkReferences": {},
  "deployedLinkReferences": {}
}